{"abi":[{"inputs":[{"internalType":"uint256","name":"minimum","type":"uint256"},{"internalType":"string","name":"title","type":"string"},{"internalType":"string","name":"description","type":"string"},{"internalType":"string","name":"image","type":"string"}],"name":"createCampaign","outputs":[],"stateMutability":"nonpayable","type":"function"},{"inputs":[],"name":"getCampaigns","outputs":[{"internalType":"contract Campaign[]","name":"","type":"address[]"},{"internalType":"string[]","name":"","type":"string[]"},{"internalType":"string[]","name":"","type":"string[]"},{"internalType":"string[]","name":"","type":"string[]"}],"stateMutability":"view","type":"function"},{"inputs":[{"internalType":"string","name":"title","type":"string"},{"internalType":"string","name":"description","type":"string"},{"internalType":"string","name":"image","type":"string"},{"internalType":"uint256","name":"campaignIndex","type":"uint256"}],"name":"updateCampaign","outputs":[],"stateMutability":"nonpayable","type":"function"}],"devdoc":{"kind":"dev","methods":{},"version":1},"evm":{"assembly":"    /* \"Factory.sol\":83:1485  contract Factory {... */\n  mstore(0x40, 0x80)\n  callvalue\n  dup1\n  iszero\n  tag_1\n  jumpi\n  0x00\n  dup1\n  revert\ntag_1:\n  pop\n  dataSize(sub_0)\n  dup1\n  dataOffset(sub_0)\n  0x00\n  codecopy\n  0x00\n  return\nstop\n\nsub_0: assembly {\n        /* \"Factory.sol\":83:1485  contract Factory {... */\n      mstore(0x40, 0x80)\n      callvalue\n      dup1\n      iszero\n      tag_1\n      jumpi\n      0x00\n      dup1\n      revert\n    tag_1:\n      pop\n      jumpi(tag_2, lt(calldatasize, 0x04))\n      shr(0xe0, calldataload(0x00))\n      dup1\n      0x48bc4063\n      eq\n      tag_3\n      jumpi\n      dup1\n      0x8ef03928\n      eq\n      tag_4\n      jumpi\n      dup1\n      0xa6b03633\n      eq\n      tag_5\n      jumpi\n    tag_2:\n      0x00\n      dup1\n      revert\n        /* \"Factory.sol\":1031:1483  function updateCampaign(... */\n    tag_3:\n      tag_6\n      0x04\n      dup1\n      calldatasize\n      sub\n      dup2\n      add\n      swap1\n      tag_7\n      swap2\n      swap1\n      tag_8\n      jump\t// in\n    tag_7:\n      tag_9\n      jump\t// in\n    tag_6:\n      stop\n        /* \"Factory.sol\":214:731  function createCampaign(... */\n    tag_4:\n      tag_10\n      0x04\n      dup1\n      calldatasize\n      sub\n      dup2\n      add\n      swap1\n      tag_11\n      swap2\n      swap1\n      tag_12\n      jump\t// in\n    tag_11:\n      tag_13\n      jump\t// in\n    tag_10:\n      stop\n        /* \"Factory.sol\":741:1025  function getCampaigns() public view returns (... */\n    tag_5:\n      tag_14\n      tag_15\n      jump\t// in\n    tag_14:\n      mload(0x40)\n      tag_16\n      swap5\n      swap4\n      swap3\n      swap2\n      swap1\n      tag_17\n      jump\t// in\n    tag_16:\n      mload(0x40)\n      dup1\n      swap2\n      sub\n      swap1\n      return\n        /* \"Factory.sol\":1031:1483  function updateCampaign(... */\n    tag_9:\n        /* \"Factory.sol\":1204:1221  deployedContracts */\n      0x00\n        /* \"Factory.sol\":1222:1235  campaignIndex */\n      dup2\n        /* \"Factory.sol\":1204:1236  deployedContracts[campaignIndex] */\n      dup2\n      sload\n      dup2\n      lt\n      tag_19\n      jumpi\n      tag_20\n      tag_21\n      jump\t// in\n    tag_20:\n    tag_19:\n      swap1\n      0x00\n      mstore\n      keccak256(0x00, 0x20)\n      add\n      0x00\n      swap1\n      sload\n      swap1\n      0x0100\n      exp\n      swap1\n      div\n      0xffffffffffffffffffffffffffffffffffffffff\n      and\n        /* \"Factory.sol\":1204:1241  deployedContracts[campaignIndex].edit */\n      0xffffffffffffffffffffffffffffffffffffffff\n      and\n      0x473fc933\n        /* \"Factory.sol\":1255:1260  title */\n      dup6\n        /* \"Factory.sol\":1274:1285  description */\n      dup6\n        /* \"Factory.sol\":1299:1304  image */\n      dup6\n        /* \"Factory.sol\":1318:1328  msg.sender */\n      caller\n        /* \"Factory.sol\":1204:1338  deployedContracts[campaignIndex].edit(... */\n      mload(0x40)\n      dup6\n      0xffffffff\n      and\n      0xe0\n      shl\n      dup2\n      mstore\n      0x04\n      add\n      tag_23\n      swap5\n      swap4\n      swap3\n      swap2\n      swap1\n      tag_24\n      jump\t// in\n    tag_23:\n      0x00\n      mload(0x40)\n      dup1\n      dup4\n      sub\n      dup2\n      0x00\n      dup8\n      dup1\n      extcodesize\n      iszero\n      dup1\n      iszero\n      tag_25\n      jumpi\n      0x00\n      dup1\n      revert\n    tag_25:\n      pop\n      gas\n      call\n      iszero\n      dup1\n      iszero\n      tag_27\n      jumpi\n      returndatasize\n      0x00\n      dup1\n      returndatacopy\n      revert(0x00, returndatasize)\n    tag_27:\n      pop\n      pop\n      pop\n      pop\n        /* \"Factory.sol\":1381:1386  title */\n      dup4\n        /* \"Factory.sol\":1357:1363  titles */\n      0x01\n        /* \"Factory.sol\":1364:1377  campaignIndex */\n      dup3\n        /* \"Factory.sol\":1357:1378  titles[campaignIndex] */\n      dup2\n      sload\n      dup2\n      lt\n      tag_28\n      jumpi\n      tag_29\n      tag_21\n      jump\t// in\n    tag_29:\n    tag_28:\n      swap1\n      0x00\n      mstore\n      keccak256(0x00, 0x20)\n      add\n        /* \"Factory.sol\":1357:1386  titles[campaignIndex] = title */\n      swap1\n      dup1\n      mload\n      swap1\n      0x20\n      add\n      swap1\n      tag_31\n      swap3\n      swap2\n      swap1\n      tag_32\n      jump\t// in\n    tag_31:\n      pop\n        /* \"Factory.sol\":1426:1437  description */\n      dup3\n        /* \"Factory.sol\":1396:1408  descriptions */\n      0x02\n        /* \"Factory.sol\":1409:1422  campaignIndex */\n      dup3\n        /* \"Factory.sol\":1396:1423  descriptions[campaignIndex] */\n      dup2\n      sload\n      dup2\n      lt\n      tag_33\n      jumpi\n      tag_34\n      tag_21\n      jump\t// in\n    tag_34:\n    tag_33:\n      swap1\n      0x00\n      mstore\n      keccak256(0x00, 0x20)\n      add\n        /* \"Factory.sol\":1396:1437  descriptions[campaignIndex] = description */\n      swap1\n      dup1\n      mload\n      swap1\n      0x20\n      add\n      swap1\n      tag_36\n      swap3\n      swap2\n      swap1\n      tag_32\n      jump\t// in\n    tag_36:\n      pop\n        /* \"Factory.sol\":1471:1476  image */\n      dup2\n        /* \"Factory.sol\":1447:1453  images */\n      0x03\n        /* \"Factory.sol\":1454:1467  campaignIndex */\n      dup3\n        /* \"Factory.sol\":1447:1468  images[campaignIndex] */\n      dup2\n      sload\n      dup2\n      lt\n      tag_37\n      jumpi\n      tag_38\n      tag_21\n      jump\t// in\n    tag_38:\n    tag_37:\n      swap1\n      0x00\n      mstore\n      keccak256(0x00, 0x20)\n      add\n        /* \"Factory.sol\":1447:1476  images[campaignIndex] = image */\n      swap1\n      dup1\n      mload\n      swap1\n      0x20\n      add\n      swap1\n      tag_40\n      swap3\n      swap2\n      swap1\n      tag_32\n      jump\t// in\n    tag_40:\n      pop\n        /* \"Factory.sol\":1031:1483  function updateCampaign(... */\n      pop\n      pop\n      pop\n      pop\n      jump\t// out\n        /* \"Factory.sol\":214:731  function createCampaign(... */\n    tag_13:\n        /* \"Factory.sol\":382:402  Campaign newCampaign */\n      0x00\n        /* \"Factory.sol\":431:438  minimum */\n      dup5\n        /* \"Factory.sol\":453:458  title */\n      dup5\n        /* \"Factory.sol\":472:483  description */\n      dup5\n        /* \"Factory.sol\":497:502  image */\n      dup5\n        /* \"Factory.sol\":516:526  msg.sender */\n      caller\n        /* \"Factory.sol\":540:557  deployedContracts */\n      0x00\n        /* \"Factory.sol\":540:564  deployedContracts.length */\n      dup1\n      sload\n      swap1\n      pop\n        /* \"Factory.sol\":405:574  new Campaign(... */\n      mload(0x40)\n      tag_42\n      swap1\n      tag_43\n      jump\t// in\n    tag_42:\n      tag_44\n      swap7\n      swap6\n      swap5\n      swap4\n      swap3\n      swap2\n      swap1\n      tag_45\n      jump\t// in\n    tag_44:\n      mload(0x40)\n      dup1\n      swap2\n      sub\n      swap1\n      0x00\n      create\n      dup1\n      iszero\n      dup1\n      iszero\n      tag_46\n      jumpi\n      returndatasize\n      0x00\n      dup1\n      returndatacopy\n      revert(0x00, returndatasize)\n    tag_46:\n      pop\n        /* \"Factory.sol\":382:574  Campaign newCampaign = new Campaign(... */\n      swap1\n      pop\n        /* \"Factory.sol\":593:610  deployedContracts */\n      0x00\n        /* \"Factory.sol\":616:627  newCampaign */\n      dup2\n        /* \"Factory.sol\":593:628  deployedContracts.push(newCampaign) */\n      swap1\n      dup1\n      0x01\n      dup2\n      sload\n      add\n      dup1\n      dup3\n      sstore\n      dup1\n      swap2\n      pop\n      pop\n      0x01\n      swap1\n      sub\n      swap1\n      0x00\n      mstore\n      keccak256(0x00, 0x20)\n      add\n      0x00\n      swap1\n      swap2\n      swap1\n      swap2\n      swap1\n      swap2\n      0x0100\n      exp\n      dup2\n      sload\n      dup2\n      0xffffffffffffffffffffffffffffffffffffffff\n      mul\n      not\n      and\n      swap1\n      dup4\n      0xffffffffffffffffffffffffffffffffffffffff\n      and\n      mul\n      or\n      swap1\n      sstore\n      pop\n        /* \"Factory.sol\":638:644  titles */\n      0x01\n        /* \"Factory.sol\":650:655  title */\n      dup5\n        /* \"Factory.sol\":638:656  titles.push(title) */\n      swap1\n      dup1\n      0x01\n      dup2\n      sload\n      add\n      dup1\n      dup3\n      sstore\n      dup1\n      swap2\n      pop\n      pop\n      0x01\n      swap1\n      sub\n      swap1\n      0x00\n      mstore\n      keccak256(0x00, 0x20)\n      add\n      0x00\n      swap1\n      swap2\n      swap1\n      swap2\n      swap1\n      swap2\n      pop\n      swap1\n      dup1\n      mload\n      swap1\n      0x20\n      add\n      swap1\n      tag_49\n      swap3\n      swap2\n      swap1\n      tag_32\n      jump\t// in\n    tag_49:\n      pop\n        /* \"Factory.sol\":666:678  descriptions */\n      0x02\n        /* \"Factory.sol\":684:695  description */\n      dup4\n        /* \"Factory.sol\":666:696  descriptions.push(description) */\n      swap1\n      dup1\n      0x01\n      dup2\n      sload\n      add\n      dup1\n      dup3\n      sstore\n      dup1\n      swap2\n      pop\n      pop\n      0x01\n      swap1\n      sub\n      swap1\n      0x00\n      mstore\n      keccak256(0x00, 0x20)\n      add\n      0x00\n      swap1\n      swap2\n      swap1\n      swap2\n      swap1\n      swap2\n      pop\n      swap1\n      dup1\n      mload\n      swap1\n      0x20\n      add\n      swap1\n      tag_51\n      swap3\n      swap2\n      swap1\n      tag_32\n      jump\t// in\n    tag_51:\n      pop\n        /* \"Factory.sol\":706:712  images */\n      0x03\n        /* \"Factory.sol\":718:723  image */\n      dup3\n        /* \"Factory.sol\":706:724  images.push(image) */\n      swap1\n      dup1\n      0x01\n      dup2\n      sload\n      add\n      dup1\n      dup3\n      sstore\n      dup1\n      swap2\n      pop\n      pop\n      0x01\n      swap1\n      sub\n      swap1\n      0x00\n      mstore\n      keccak256(0x00, 0x20)\n      add\n      0x00\n      swap1\n      swap2\n      swap1\n      swap2\n      swap1\n      swap2\n      pop\n      swap1\n      dup1\n      mload\n      swap1\n      0x20\n      add\n      swap1\n      tag_53\n      swap3\n      swap2\n      swap1\n      tag_32\n      jump\t// in\n    tag_53:\n      pop\n        /* \"Factory.sol\":372:731  {... */\n      pop\n        /* \"Factory.sol\":214:731  function createCampaign(... */\n      pop\n      pop\n      pop\n      pop\n      jump\t// out\n        /* \"Factory.sol\":741:1025  function getCampaigns() public view returns (... */\n    tag_15:\n        /* \"Factory.sol\":795:812  Campaign[] memory */\n      0x60\n        /* \"Factory.sol\":822:837  string[] memory */\n      dup1\n        /* \"Factory.sol\":847:862  string[] memory */\n      0x60\n        /* \"Factory.sol\":872:887  string[] memory */\n      dup1\n        /* \"Factory.sol\":925:942  deployedContracts */\n      0x00\n        /* \"Factory.sol\":956:962  titles */\n      0x01\n        /* \"Factory.sol\":976:988  descriptions */\n      0x02\n        /* \"Factory.sol\":1002:1008  images */\n      0x03\n        /* \"Factory.sol\":904:1018  return (... */\n      dup4\n      dup1\n      sload\n      dup1\n      0x20\n      mul\n      0x20\n      add\n      mload(0x40)\n      swap1\n      dup2\n      add\n      0x40\n      mstore\n      dup1\n      swap3\n      swap2\n      swap1\n      dup2\n      dup2\n      mstore\n      0x20\n      add\n      dup3\n      dup1\n      sload\n      dup1\n      iszero\n      tag_55\n      jumpi\n      0x20\n      mul\n      dup3\n      add\n      swap2\n      swap1\n      0x00\n      mstore\n      keccak256(0x00, 0x20)\n      swap1\n    tag_56:\n      dup2\n      0x00\n      swap1\n      sload\n      swap1\n      0x0100\n      exp\n      swap1\n      div\n      0xffffffffffffffffffffffffffffffffffffffff\n      and\n      0xffffffffffffffffffffffffffffffffffffffff\n      and\n      dup2\n      mstore\n      0x20\n      add\n      swap1\n      0x01\n      add\n      swap1\n      dup1\n      dup4\n      gt\n      tag_56\n      jumpi\n    tag_55:\n      pop\n      pop\n      pop\n      pop\n      pop\n      swap4\n      pop\n      dup3\n      dup1\n      sload\n      dup1\n      0x20\n      mul\n      0x20\n      add\n      mload(0x40)\n      swap1\n      dup2\n      add\n      0x40\n      mstore\n      dup1\n      swap3\n      swap2\n      swap1\n      dup2\n      dup2\n      mstore\n      0x20\n      add\n      0x00\n      swap1\n    tag_57:\n      dup3\n      dup3\n      lt\n      iszero\n      tag_58\n      jumpi\n      dup4\n      dup3\n      swap1\n      0x00\n      mstore\n      keccak256(0x00, 0x20)\n      add\n      dup1\n      sload\n      tag_60\n      swap1\n      tag_61\n      jump\t// in\n    tag_60:\n      dup1\n      0x1f\n      add\n      0x20\n      dup1\n      swap2\n      div\n      mul\n      0x20\n      add\n      mload(0x40)\n      swap1\n      dup2\n      add\n      0x40\n      mstore\n      dup1\n      swap3\n      swap2\n      swap1\n      dup2\n      dup2\n      mstore\n      0x20\n      add\n      dup3\n      dup1\n      sload\n      tag_62\n      swap1\n      tag_61\n      jump\t// in\n    tag_62:\n      dup1\n      iszero\n      tag_63\n      jumpi\n      dup1\n      0x1f\n      lt\n      tag_64\n      jumpi\n      0x0100\n      dup1\n      dup4\n      sload\n      div\n      mul\n      dup4\n      mstore\n      swap2\n      0x20\n      add\n      swap2\n      jump(tag_63)\n    tag_64:\n      dup3\n      add\n      swap2\n      swap1\n      0x00\n      mstore\n      keccak256(0x00, 0x20)\n      swap1\n    tag_65:\n      dup2\n      sload\n      dup2\n      mstore\n      swap1\n      0x01\n      add\n      swap1\n      0x20\n      add\n      dup1\n      dup4\n      gt\n      tag_65\n      jumpi\n      dup3\n      swap1\n      sub\n      0x1f\n      and\n      dup3\n      add\n      swap2\n    tag_63:\n      pop\n      pop\n      pop\n      pop\n      pop\n      dup2\n      mstore\n      0x20\n      add\n      swap1\n      0x01\n      add\n      swap1\n      jump(tag_57)\n    tag_58:\n      pop\n      pop\n      pop\n      pop\n      swap3\n      pop\n      dup2\n      dup1\n      sload\n      dup1\n      0x20\n      mul\n      0x20\n      add\n      mload(0x40)\n      swap1\n      dup2\n      add\n      0x40\n      mstore\n      dup1\n      swap3\n      swap2\n      swap1\n      dup2\n      dup2\n      mstore\n      0x20\n      add\n      0x00\n      swap1\n    tag_66:\n      dup3\n      dup3\n      lt\n      iszero\n      tag_67\n      jumpi\n      dup4\n      dup3\n      swap1\n      0x00\n      mstore\n      keccak256(0x00, 0x20)\n      add\n      dup1\n      sload\n      tag_69\n      swap1\n      tag_61\n      jump\t// in\n    tag_69:\n      dup1\n      0x1f\n      add\n      0x20\n      dup1\n      swap2\n      div\n      mul\n      0x20\n      add\n      mload(0x40)\n      swap1\n      dup2\n      add\n      0x40\n      mstore\n      dup1\n      swap3\n      swap2\n      swap1\n      dup2\n      dup2\n      mstore\n      0x20\n      add\n      dup3\n      dup1\n      sload\n      tag_70\n      swap1\n      tag_61\n      jump\t// in\n    tag_70:\n      dup1\n      iszero\n      tag_71\n      jumpi\n      dup1\n      0x1f\n      lt\n      tag_72\n      jumpi\n      0x0100\n      dup1\n      dup4\n      sload\n      div\n      mul\n      dup4\n      mstore\n      swap2\n      0x20\n      add\n      swap2\n      jump(tag_71)\n    tag_72:\n      dup3\n      add\n      swap2\n      swap1\n      0x00\n      mstore\n      keccak256(0x00, 0x20)\n      swap1\n    tag_73:\n      dup2\n      sload\n      dup2\n      mstore\n      swap1\n      0x01\n      add\n      swap1\n      0x20\n      add\n      dup1\n      dup4\n      gt\n      tag_73\n      jumpi\n      dup3\n      swap1\n      sub\n      0x1f\n      and\n      dup3\n      add\n      swap2\n    tag_71:\n      pop\n      pop\n      pop\n      pop\n      pop\n      dup2\n      mstore\n      0x20\n      add\n      swap1\n      0x01\n      add\n      swap1\n      jump(tag_66)\n    tag_67:\n      pop\n      pop\n      pop\n      pop\n      swap2\n      pop\n      dup1\n      dup1\n      sload\n      dup1\n      0x20\n      mul\n      0x20\n      add\n      mload(0x40)\n      swap1\n      dup2\n      add\n      0x40\n      mstore\n      dup1\n      swap3\n      swap2\n      swap1\n      dup2\n      dup2\n      mstore\n      0x20\n      add\n      0x00\n      swap1\n    tag_74:\n      dup3\n      dup3\n      lt\n      iszero\n      tag_75\n      jumpi\n      dup4\n      dup3\n      swap1\n      0x00\n      mstore\n      keccak256(0x00, 0x20)\n      add\n      dup1\n      sload\n      tag_77\n      swap1\n      tag_61\n      jump\t// in\n    tag_77:\n      dup1\n      0x1f\n      add\n      0x20\n      dup1\n      swap2\n      div\n      mul\n      0x20\n      add\n      mload(0x40)\n      swap1\n      dup2\n      add\n      0x40\n      mstore\n      dup1\n      swap3\n      swap2\n      swap1\n      dup2\n      dup2\n      mstore\n      0x20\n      add\n      dup3\n      dup1\n      sload\n      tag_78\n      swap1\n      tag_61\n      jump\t// in\n    tag_78:\n      dup1\n      iszero\n      tag_79\n      jumpi\n      dup1\n      0x1f\n      lt\n      tag_80\n      jumpi\n      0x0100\n      dup1\n      dup4\n      sload\n      div\n      mul\n      dup4\n      mstore\n      swap2\n      0x20\n      add\n      swap2\n      jump(tag_79)\n    tag_80:\n      dup3\n      add\n      swap2\n      swap1\n      0x00\n      mstore\n      keccak256(0x00, 0x20)\n      swap1\n    tag_81:\n      dup2\n      sload\n      dup2\n      mstore\n      swap1\n      0x01\n      add\n      swap1\n      0x20\n      add\n      dup1\n      dup4\n      gt\n      tag_81\n      jumpi\n      dup3\n      swap1\n      sub\n      0x1f\n      and\n      dup3\n      add\n      swap2\n    tag_79:\n      pop\n      pop\n      pop\n      pop\n      pop\n      dup2\n      mstore\n      0x20\n      add\n      swap1\n      0x01\n      add\n      swap1\n      jump(tag_74)\n    tag_75:\n      pop\n      pop\n      pop\n      pop\n      swap1\n      pop\n      swap4\n      pop\n      swap4\n      pop\n      swap4\n      pop\n      swap4\n      pop\n        /* \"Factory.sol\":741:1025  function getCampaigns() public view returns (... */\n      swap1\n      swap2\n      swap3\n      swap4\n      jump\t// out\n    tag_32:\n      dup3\n      dup1\n      sload\n      tag_82\n      swap1\n      tag_61\n      jump\t// in\n    tag_82:\n      swap1\n      0x00\n      mstore\n      keccak256(0x00, 0x20)\n      swap1\n      0x1f\n      add\n      0x20\n      swap1\n      div\n      dup2\n      add\n      swap3\n      dup3\n      tag_84\n      jumpi\n      0x00\n      dup6\n      sstore\n      jump(tag_83)\n    tag_84:\n      dup3\n      0x1f\n      lt\n      tag_85\n      jumpi\n      dup1\n      mload\n      not(0xff)\n      and\n      dup4\n      dup1\n      add\n      or\n      dup6\n      sstore\n      jump(tag_83)\n    tag_85:\n      dup3\n      dup1\n      add\n      0x01\n      add\n      dup6\n      sstore\n      dup3\n      iszero\n      tag_83\n      jumpi\n      swap2\n      dup3\n      add\n    tag_86:\n      dup3\n      dup2\n      gt\n      iszero\n      tag_87\n      jumpi\n      dup3\n      mload\n      dup3\n      sstore\n      swap2\n      0x20\n      add\n      swap2\n      swap1\n      0x01\n      add\n      swap1\n      jump(tag_86)\n    tag_87:\n    tag_83:\n      pop\n      swap1\n      pop\n      tag_88\n      swap2\n      swap1\n      tag_89\n      jump\t// in\n    tag_88:\n      pop\n      swap1\n      jump\t// out\n    tag_43:\n      dataSize(sub_0)\n      dup1\n      dataOffset(sub_0)\n      dup4\n      codecopy\n      add\n      swap1\n      jump\t// out\n    tag_89:\n    tag_90:\n      dup1\n      dup3\n      gt\n      iszero\n      tag_91\n      jumpi\n      0x00\n      dup2\n      0x00\n      swap1\n      sstore\n      pop\n      0x01\n      add\n      jump(tag_90)\n    tag_91:\n      pop\n      swap1\n      jump\t// out\n        /* \"#utility.yul\":7:419   */\n    tag_93:\n        /* \"#utility.yul\":85:90   */\n      0x00\n        /* \"#utility.yul\":110:176   */\n      tag_95\n        /* \"#utility.yul\":126:175   */\n      tag_96\n        /* \"#utility.yul\":168:174   */\n      dup5\n        /* \"#utility.yul\":126:175   */\n      tag_97\n      jump\t// in\n    tag_96:\n        /* \"#utility.yul\":110:176   */\n      tag_98\n      jump\t// in\n    tag_95:\n        /* \"#utility.yul\":101:176   */\n      swap1\n      pop\n        /* \"#utility.yul\":199:205   */\n      dup3\n        /* \"#utility.yul\":192:197   */\n      dup2\n        /* \"#utility.yul\":185:206   */\n      mstore\n        /* \"#utility.yul\":237:241   */\n      0x20\n        /* \"#utility.yul\":230:235   */\n      dup2\n        /* \"#utility.yul\":226:242   */\n      add\n        /* \"#utility.yul\":275:278   */\n      dup5\n        /* \"#utility.yul\":266:272   */\n      dup5\n        /* \"#utility.yul\":261:264   */\n      dup5\n        /* \"#utility.yul\":257:273   */\n      add\n        /* \"#utility.yul\":254:279   */\n      gt\n        /* \"#utility.yul\":251:253   */\n      iszero\n      tag_99\n      jumpi\n        /* \"#utility.yul\":282:361   */\n      tag_100\n      tag_101\n      jump\t// in\n    tag_100:\n        /* \"#utility.yul\":251:253   */\n    tag_99:\n        /* \"#utility.yul\":372:413   */\n      tag_102\n        /* \"#utility.yul\":406:412   */\n      dup5\n        /* \"#utility.yul\":401:404   */\n      dup3\n        /* \"#utility.yul\":396:399   */\n      dup6\n        /* \"#utility.yul\":372:413   */\n      tag_103\n      jump\t// in\n    tag_102:\n        /* \"#utility.yul\":91:419   */\n      pop\n      swap4\n      swap3\n      pop\n      pop\n      pop\n      jump\t// out\n        /* \"#utility.yul\":439:779   */\n    tag_104:\n        /* \"#utility.yul\":495:500   */\n      0x00\n        /* \"#utility.yul\":544:547   */\n      dup3\n        /* \"#utility.yul\":537:541   */\n      0x1f\n        /* \"#utility.yul\":529:535   */\n      dup4\n        /* \"#utility.yul\":525:542   */\n      add\n        /* \"#utility.yul\":521:548   */\n      slt\n        /* \"#utility.yul\":511:513   */\n      tag_106\n      jumpi\n        /* \"#utility.yul\":552:631   */\n      tag_107\n      tag_108\n      jump\t// in\n    tag_107:\n        /* \"#utility.yul\":511:513   */\n    tag_106:\n        /* \"#utility.yul\":669:675   */\n      dup2\n        /* \"#utility.yul\":656:676   */\n      calldataload\n        /* \"#utility.yul\":694:773   */\n      tag_109\n        /* \"#utility.yul\":769:772   */\n      dup5\n        /* \"#utility.yul\":761:767   */\n      dup3\n        /* \"#utility.yul\":754:758   */\n      0x20\n        /* \"#utility.yul\":746:752   */\n      dup7\n        /* \"#utility.yul\":742:759   */\n      add\n        /* \"#utility.yul\":694:773   */\n      tag_93\n      jump\t// in\n    tag_109:\n        /* \"#utility.yul\":685:773   */\n      swap2\n      pop\n        /* \"#utility.yul\":501:779   */\n      pop\n      swap3\n      swap2\n      pop\n      pop\n      jump\t// out\n        /* \"#utility.yul\":785:924   */\n    tag_110:\n        /* \"#utility.yul\":831:836   */\n      0x00\n        /* \"#utility.yul\":869:875   */\n      dup2\n        /* \"#utility.yul\":856:876   */\n      calldataload\n        /* \"#utility.yul\":847:876   */\n      swap1\n      pop\n        /* \"#utility.yul\":885:918   */\n      tag_112\n        /* \"#utility.yul\":912:917   */\n      dup2\n        /* \"#utility.yul\":885:918   */\n      tag_113\n      jump\t// in\n    tag_112:\n        /* \"#utility.yul\":837:924   */\n      swap3\n      swap2\n      pop\n      pop\n      jump\t// out\n        /* \"#utility.yul\":930:2235   */\n    tag_8:\n        /* \"#utility.yul\":1046:1052   */\n      0x00\n        /* \"#utility.yul\":1054:1060   */\n      dup1\n        /* \"#utility.yul\":1062:1068   */\n      0x00\n        /* \"#utility.yul\":1070:1076   */\n      dup1\n        /* \"#utility.yul\":1119:1122   */\n      0x80\n        /* \"#utility.yul\":1107:1116   */\n      dup6\n        /* \"#utility.yul\":1098:1105   */\n      dup8\n        /* \"#utility.yul\":1094:1117   */\n      sub\n        /* \"#utility.yul\":1090:1123   */\n      slt\n        /* \"#utility.yul\":1087:1089   */\n      iszero\n      tag_115\n      jumpi\n        /* \"#utility.yul\":1126:1205   */\n      tag_116\n      tag_117\n      jump\t// in\n    tag_116:\n        /* \"#utility.yul\":1087:1089   */\n    tag_115:\n        /* \"#utility.yul\":1274:1275   */\n      0x00\n        /* \"#utility.yul\":1263:1272   */\n      dup6\n        /* \"#utility.yul\":1259:1276   */\n      add\n        /* \"#utility.yul\":1246:1277   */\n      calldataload\n        /* \"#utility.yul\":1304:1322   */\n      0xffffffffffffffff\n        /* \"#utility.yul\":1296:1302   */\n      dup2\n        /* \"#utility.yul\":1293:1323   */\n      gt\n        /* \"#utility.yul\":1290:1292   */\n      iszero\n      tag_118\n      jumpi\n        /* \"#utility.yul\":1326:1405   */\n      tag_119\n      tag_120\n      jump\t// in\n    tag_119:\n        /* \"#utility.yul\":1290:1292   */\n    tag_118:\n        /* \"#utility.yul\":1431:1494   */\n      tag_121\n        /* \"#utility.yul\":1486:1493   */\n      dup8\n        /* \"#utility.yul\":1477:1483   */\n      dup3\n        /* \"#utility.yul\":1466:1475   */\n      dup9\n        /* \"#utility.yul\":1462:1484   */\n      add\n        /* \"#utility.yul\":1431:1494   */\n      tag_104\n      jump\t// in\n    tag_121:\n        /* \"#utility.yul\":1421:1494   */\n      swap5\n      pop\n        /* \"#utility.yul\":1217:1504   */\n      pop\n        /* \"#utility.yul\":1571:1573   */\n      0x20\n        /* \"#utility.yul\":1560:1569   */\n      dup6\n        /* \"#utility.yul\":1556:1574   */\n      add\n        /* \"#utility.yul\":1543:1575   */\n      calldataload\n        /* \"#utility.yul\":1602:1620   */\n      0xffffffffffffffff\n        /* \"#utility.yul\":1594:1600   */\n      dup2\n        /* \"#utility.yul\":1591:1621   */\n      gt\n        /* \"#utility.yul\":1588:1590   */\n      iszero\n      tag_122\n      jumpi\n        /* \"#utility.yul\":1624:1703   */\n      tag_123\n      tag_120\n      jump\t// in\n    tag_123:\n        /* \"#utility.yul\":1588:1590   */\n    tag_122:\n        /* \"#utility.yul\":1729:1792   */\n      tag_124\n        /* \"#utility.yul\":1784:1791   */\n      dup8\n        /* \"#utility.yul\":1775:1781   */\n      dup3\n        /* \"#utility.yul\":1764:1773   */\n      dup9\n        /* \"#utility.yul\":1760:1782   */\n      add\n        /* \"#utility.yul\":1729:1792   */\n      tag_104\n      jump\t// in\n    tag_124:\n        /* \"#utility.yul\":1719:1792   */\n      swap4\n      pop\n        /* \"#utility.yul\":1514:1802   */\n      pop\n        /* \"#utility.yul\":1869:1871   */\n      0x40\n        /* \"#utility.yul\":1858:1867   */\n      dup6\n        /* \"#utility.yul\":1854:1872   */\n      add\n        /* \"#utility.yul\":1841:1873   */\n      calldataload\n        /* \"#utility.yul\":1900:1918   */\n      0xffffffffffffffff\n        /* \"#utility.yul\":1892:1898   */\n      dup2\n        /* \"#utility.yul\":1889:1919   */\n      gt\n        /* \"#utility.yul\":1886:1888   */\n      iszero\n      tag_125\n      jumpi\n        /* \"#utility.yul\":1922:2001   */\n      tag_126\n      tag_120\n      jump\t// in\n    tag_126:\n        /* \"#utility.yul\":1886:1888   */\n    tag_125:\n        /* \"#utility.yul\":2027:2090   */\n      tag_127\n        /* \"#utility.yul\":2082:2089   */\n      dup8\n        /* \"#utility.yul\":2073:2079   */\n      dup3\n        /* \"#utility.yul\":2062:2071   */\n      dup9\n        /* \"#utility.yul\":2058:2080   */\n      add\n        /* \"#utility.yul\":2027:2090   */\n      tag_104\n      jump\t// in\n    tag_127:\n        /* \"#utility.yul\":2017:2090   */\n      swap3\n      pop\n        /* \"#utility.yul\":1812:2100   */\n      pop\n        /* \"#utility.yul\":2139:2141   */\n      0x60\n        /* \"#utility.yul\":2165:2218   */\n      tag_128\n        /* \"#utility.yul\":2210:2217   */\n      dup8\n        /* \"#utility.yul\":2201:2207   */\n      dup3\n        /* \"#utility.yul\":2190:2199   */\n      dup9\n        /* \"#utility.yul\":2186:2208   */\n      add\n        /* \"#utility.yul\":2165:2218   */\n      tag_110\n      jump\t// in\n    tag_128:\n        /* \"#utility.yul\":2155:2218   */\n      swap2\n      pop\n        /* \"#utility.yul\":2110:2228   */\n      pop\n        /* \"#utility.yul\":1077:2235   */\n      swap3\n      swap6\n      swap2\n      swap5\n      pop\n      swap3\n      pop\n      jump\t// out\n        /* \"#utility.yul\":2241:3546   */\n    tag_12:\n        /* \"#utility.yul\":2357:2363   */\n      0x00\n        /* \"#utility.yul\":2365:2371   */\n      dup1\n        /* \"#utility.yul\":2373:2379   */\n      0x00\n        /* \"#utility.yul\":2381:2387   */\n      dup1\n        /* \"#utility.yul\":2430:2433   */\n      0x80\n        /* \"#utility.yul\":2418:2427   */\n      dup6\n        /* \"#utility.yul\":2409:2416   */\n      dup8\n        /* \"#utility.yul\":2405:2428   */\n      sub\n        /* \"#utility.yul\":2401:2434   */\n      slt\n        /* \"#utility.yul\":2398:2400   */\n      iszero\n      tag_130\n      jumpi\n        /* \"#utility.yul\":2437:2516   */\n      tag_131\n      tag_117\n      jump\t// in\n    tag_131:\n        /* \"#utility.yul\":2398:2400   */\n    tag_130:\n        /* \"#utility.yul\":2557:2558   */\n      0x00\n        /* \"#utility.yul\":2582:2635   */\n      tag_132\n        /* \"#utility.yul\":2627:2634   */\n      dup8\n        /* \"#utility.yul\":2618:2624   */\n      dup3\n        /* \"#utility.yul\":2607:2616   */\n      dup9\n        /* \"#utility.yul\":2603:2625   */\n      add\n        /* \"#utility.yul\":2582:2635   */\n      tag_110\n      jump\t// in\n    tag_132:\n        /* \"#utility.yul\":2572:2635   */\n      swap5\n      pop\n        /* \"#utility.yul\":2528:2645   */\n      pop\n        /* \"#utility.yul\":2712:2714   */\n      0x20\n        /* \"#utility.yul\":2701:2710   */\n      dup6\n        /* \"#utility.yul\":2697:2715   */\n      add\n        /* \"#utility.yul\":2684:2716   */\n      calldataload\n        /* \"#utility.yul\":2743:2761   */\n      0xffffffffffffffff\n        /* \"#utility.yul\":2735:2741   */\n      dup2\n        /* \"#utility.yul\":2732:2762   */\n      gt\n        /* \"#utility.yul\":2729:2731   */\n      iszero\n      tag_133\n      jumpi\n        /* \"#utility.yul\":2765:2844   */\n      tag_134\n      tag_120\n      jump\t// in\n    tag_134:\n        /* \"#utility.yul\":2729:2731   */\n    tag_133:\n        /* \"#utility.yul\":2870:2933   */\n      tag_135\n        /* \"#utility.yul\":2925:2932   */\n      dup8\n        /* \"#utility.yul\":2916:2922   */\n      dup3\n        /* \"#utility.yul\":2905:2914   */\n      dup9\n        /* \"#utility.yul\":2901:2923   */\n      add\n        /* \"#utility.yul\":2870:2933   */\n      tag_104\n      jump\t// in\n    tag_135:\n        /* \"#utility.yul\":2860:2933   */\n      swap4\n      pop\n        /* \"#utility.yul\":2655:2943   */\n      pop\n        /* \"#utility.yul\":3010:3012   */\n      0x40\n        /* \"#utility.yul\":2999:3008   */\n      dup6\n        /* \"#utility.yul\":2995:3013   */\n      add\n        /* \"#utility.yul\":2982:3014   */\n      calldataload\n        /* \"#utility.yul\":3041:3059   */\n      0xffffffffffffffff\n        /* \"#utility.yul\":3033:3039   */\n      dup2\n        /* \"#utility.yul\":3030:3060   */\n      gt\n        /* \"#utility.yul\":3027:3029   */\n      iszero\n      tag_136\n      jumpi\n        /* \"#utility.yul\":3063:3142   */\n      tag_137\n      tag_120\n      jump\t// in\n    tag_137:\n        /* \"#utility.yul\":3027:3029   */\n    tag_136:\n        /* \"#utility.yul\":3168:3231   */\n      tag_138\n        /* \"#utility.yul\":3223:3230   */\n      dup8\n        /* \"#utility.yul\":3214:3220   */\n      dup3\n        /* \"#utility.yul\":3203:3212   */\n      dup9\n        /* \"#utility.yul\":3199:3221   */\n      add\n        /* \"#utility.yul\":3168:3231   */\n      tag_104\n      jump\t// in\n    tag_138:\n        /* \"#utility.yul\":3158:3231   */\n      swap3\n      pop\n        /* \"#utility.yul\":2953:3241   */\n      pop\n        /* \"#utility.yul\":3308:3310   */\n      0x60\n        /* \"#utility.yul\":3297:3306   */\n      dup6\n        /* \"#utility.yul\":3293:3311   */\n      add\n        /* \"#utility.yul\":3280:3312   */\n      calldataload\n        /* \"#utility.yul\":3339:3357   */\n      0xffffffffffffffff\n        /* \"#utility.yul\":3331:3337   */\n      dup2\n        /* \"#utility.yul\":3328:3358   */\n      gt\n        /* \"#utility.yul\":3325:3327   */\n      iszero\n      tag_139\n      jumpi\n        /* \"#utility.yul\":3361:3440   */\n      tag_140\n      tag_120\n      jump\t// in\n    tag_140:\n        /* \"#utility.yul\":3325:3327   */\n    tag_139:\n        /* \"#utility.yul\":3466:3529   */\n      tag_141\n        /* \"#utility.yul\":3521:3528   */\n      dup8\n        /* \"#utility.yul\":3512:3518   */\n      dup3\n        /* \"#utility.yul\":3501:3510   */\n      dup9\n        /* \"#utility.yul\":3497:3519   */\n      add\n        /* \"#utility.yul\":3466:3529   */\n      tag_104\n      jump\t// in\n    tag_141:\n        /* \"#utility.yul\":3456:3529   */\n      swap2\n      pop\n        /* \"#utility.yul\":3251:3539   */\n      pop\n        /* \"#utility.yul\":2388:3546   */\n      swap3\n      swap6\n      swap2\n      swap5\n      pop\n      swap3\n      pop\n      jump\t// out\n        /* \"#utility.yul\":3552:3763   */\n    tag_142:\n        /* \"#utility.yul\":3637:3647   */\n      0x00\n        /* \"#utility.yul\":3658:3720   */\n      tag_144\n        /* \"#utility.yul\":3716:3719   */\n      dup4\n        /* \"#utility.yul\":3708:3714   */\n      dup4\n        /* \"#utility.yul\":3658:3720   */\n      tag_145\n      jump\t// in\n    tag_144:\n        /* \"#utility.yul\":3752:3756   */\n      0x20\n        /* \"#utility.yul\":3747:3750   */\n      dup4\n        /* \"#utility.yul\":3743:3757   */\n      add\n        /* \"#utility.yul\":3729:3757   */\n      swap1\n      pop\n        /* \"#utility.yul\":3648:3763   */\n      swap3\n      swap2\n      pop\n      pop\n      jump\t// out\n        /* \"#utility.yul\":3769:3965   */\n    tag_146:\n        /* \"#utility.yul\":3858:3868   */\n      0x00\n        /* \"#utility.yul\":3893:3959   */\n      tag_148\n        /* \"#utility.yul\":3955:3958   */\n      dup4\n        /* \"#utility.yul\":3947:3953   */\n      dup4\n        /* \"#utility.yul\":3893:3959   */\n      tag_149\n      jump\t// in\n    tag_148:\n        /* \"#utility.yul\":3879:3959   */\n      swap1\n      pop\n        /* \"#utility.yul\":3869:3965   */\n      swap3\n      swap2\n      pop\n      pop\n      jump\t// out\n        /* \"#utility.yul\":3971:4089   */\n    tag_150:\n        /* \"#utility.yul\":4058:4082   */\n      tag_152\n        /* \"#utility.yul\":4076:4081   */\n      dup2\n        /* \"#utility.yul\":4058:4082   */\n      tag_153\n      jump\t// in\n    tag_152:\n        /* \"#utility.yul\":4053:4056   */\n      dup3\n        /* \"#utility.yul\":4046:4083   */\n      mstore\n        /* \"#utility.yul\":4036:4089   */\n      pop\n      pop\n      jump\t// out\n        /* \"#utility.yul\":4135:4947   */\n    tag_154:\n        /* \"#utility.yul\":4270:4273   */\n      0x00\n        /* \"#utility.yul\":4299:4369   */\n      tag_156\n        /* \"#utility.yul\":4363:4368   */\n      dup3\n        /* \"#utility.yul\":4299:4369   */\n      tag_157\n      jump\t// in\n    tag_156:\n        /* \"#utility.yul\":4385:4471   */\n      tag_158\n        /* \"#utility.yul\":4464:4470   */\n      dup2\n        /* \"#utility.yul\":4459:4462   */\n      dup6\n        /* \"#utility.yul\":4385:4471   */\n      tag_159\n      jump\t// in\n    tag_158:\n        /* \"#utility.yul\":4378:4471   */\n      swap4\n      pop\n        /* \"#utility.yul\":4495:4567   */\n      tag_160\n        /* \"#utility.yul\":4561:4566   */\n      dup4\n        /* \"#utility.yul\":4495:4567   */\n      tag_161\n      jump\t// in\n    tag_160:\n        /* \"#utility.yul\":4590:4597   */\n      dup1\n        /* \"#utility.yul\":4621:4622   */\n      0x00\n        /* \"#utility.yul\":4606:4922   */\n    tag_162:\n        /* \"#utility.yul\":4631:4637   */\n      dup4\n        /* \"#utility.yul\":4628:4629   */\n      dup2\n        /* \"#utility.yul\":4625:4638   */\n      lt\n        /* \"#utility.yul\":4606:4922   */\n      iszero\n      tag_164\n      jumpi\n        /* \"#utility.yul\":4707:4713   */\n      dup2\n        /* \"#utility.yul\":4701:4714   */\n      mload\n        /* \"#utility.yul\":4734:4813   */\n      tag_165\n        /* \"#utility.yul\":4809:4812   */\n      dup9\n        /* \"#utility.yul\":4794:4807   */\n      dup3\n        /* \"#utility.yul\":4734:4813   */\n      tag_142\n      jump\t// in\n    tag_165:\n        /* \"#utility.yul\":4727:4813   */\n      swap8\n      pop\n        /* \"#utility.yul\":4836:4912   */\n      tag_166\n        /* \"#utility.yul\":4905:4911   */\n      dup4\n        /* \"#utility.yul\":4836:4912   */\n      tag_167\n      jump\t// in\n    tag_166:\n        /* \"#utility.yul\":4826:4912   */\n      swap3\n      pop\n        /* \"#utility.yul\":4666:4922   */\n      pop\n        /* \"#utility.yul\":4653:4654   */\n      0x01\n        /* \"#utility.yul\":4650:4651   */\n      dup2\n        /* \"#utility.yul\":4646:4655   */\n      add\n        /* \"#utility.yul\":4641:4655   */\n      swap1\n      pop\n        /* \"#utility.yul\":4606:4922   */\n      jump(tag_162)\n    tag_164:\n        /* \"#utility.yul\":4610:4624   */\n      pop\n        /* \"#utility.yul\":4938:4941   */\n      dup6\n        /* \"#utility.yul\":4931:4941   */\n      swap4\n      pop\n        /* \"#utility.yul\":4275:4947   */\n      pop\n      pop\n      pop\n      swap3\n      swap2\n      pop\n      pop\n      jump\t// out\n        /* \"#utility.yul\":4981:5972   */\n    tag_168:\n        /* \"#utility.yul\":5120:5123   */\n      0x00\n        /* \"#utility.yul\":5149:5213   */\n      tag_170\n        /* \"#utility.yul\":5207:5212   */\n      dup3\n        /* \"#utility.yul\":5149:5213   */\n      tag_171\n      jump\t// in\n    tag_170:\n        /* \"#utility.yul\":5229:5325   */\n      tag_172\n        /* \"#utility.yul\":5318:5324   */\n      dup2\n        /* \"#utility.yul\":5313:5316   */\n      dup6\n        /* \"#utility.yul\":5229:5325   */\n      tag_173\n      jump\t// in\n    tag_172:\n        /* \"#utility.yul\":5222:5325   */\n      swap4\n      pop\n        /* \"#utility.yul\":5351:5354   */\n      dup4\n        /* \"#utility.yul\":5396:5400   */\n      0x20\n        /* \"#utility.yul\":5388:5394   */\n      dup3\n        /* \"#utility.yul\":5384:5401   */\n      mul\n        /* \"#utility.yul\":5379:5382   */\n      dup6\n        /* \"#utility.yul\":5375:5402   */\n      add\n        /* \"#utility.yul\":5426:5492   */\n      tag_174\n        /* \"#utility.yul\":5486:5491   */\n      dup6\n        /* \"#utility.yul\":5426:5492   */\n      tag_175\n      jump\t// in\n    tag_174:\n        /* \"#utility.yul\":5515:5522   */\n      dup1\n        /* \"#utility.yul\":5546:5547   */\n      0x00\n        /* \"#utility.yul\":5531:5927   */\n    tag_176:\n        /* \"#utility.yul\":5556:5562   */\n      dup6\n        /* \"#utility.yul\":5553:5554   */\n      dup2\n        /* \"#utility.yul\":5550:5563   */\n      lt\n        /* \"#utility.yul\":5531:5927   */\n      iszero\n      tag_178\n      jumpi\n        /* \"#utility.yul\":5627:5636   */\n      dup5\n        /* \"#utility.yul\":5621:5625   */\n      dup5\n        /* \"#utility.yul\":5617:5637   */\n      sub\n        /* \"#utility.yul\":5612:5615   */\n      dup10\n        /* \"#utility.yul\":5605:5638   */\n      mstore\n        /* \"#utility.yul\":5678:5684   */\n      dup2\n        /* \"#utility.yul\":5672:5685   */\n      mload\n        /* \"#utility.yul\":5706:5790   */\n      tag_179\n        /* \"#utility.yul\":5785:5789   */\n      dup6\n        /* \"#utility.yul\":5770:5783   */\n      dup3\n        /* \"#utility.yul\":5706:5790   */\n      tag_146\n      jump\t// in\n    tag_179:\n        /* \"#utility.yul\":5698:5790   */\n      swap5\n      pop\n        /* \"#utility.yul\":5813:5883   */\n      tag_180\n        /* \"#utility.yul\":5876:5882   */\n      dup4\n        /* \"#utility.yul\":5813:5883   */\n      tag_181\n      jump\t// in\n    tag_180:\n        /* \"#utility.yul\":5803:5883   */\n      swap3\n      pop\n        /* \"#utility.yul\":5912:5916   */\n      0x20\n        /* \"#utility.yul\":5907:5910   */\n      dup11\n        /* \"#utility.yul\":5903:5917   */\n      add\n        /* \"#utility.yul\":5896:5917   */\n      swap10\n      pop\n        /* \"#utility.yul\":5591:5927   */\n      pop\n        /* \"#utility.yul\":5578:5579   */\n      0x01\n        /* \"#utility.yul\":5575:5576   */\n      dup2\n        /* \"#utility.yul\":5571:5580   */\n      add\n        /* \"#utility.yul\":5566:5580   */\n      swap1\n      pop\n        /* \"#utility.yul\":5531:5927   */\n      jump(tag_176)\n    tag_178:\n        /* \"#utility.yul\":5535:5549   */\n      pop\n        /* \"#utility.yul\":5943:5947   */\n      dup3\n        /* \"#utility.yul\":5936:5947   */\n      swap8\n      pop\n        /* \"#utility.yul\":5963:5966   */\n      dup8\n        /* \"#utility.yul\":5956:5966   */\n      swap6\n      pop\n        /* \"#utility.yul\":5125:5972   */\n      pop\n      pop\n      pop\n      pop\n      pop\n      swap3\n      swap2\n      pop\n      pop\n      jump\t// out\n        /* \"#utility.yul\":5978:6131   */\n    tag_145:\n        /* \"#utility.yul\":6071:6124   */\n      tag_183\n        /* \"#utility.yul\":6118:6123   */\n      dup2\n        /* \"#utility.yul\":6071:6124   */\n      tag_184\n      jump\t// in\n    tag_183:\n        /* \"#utility.yul\":6066:6069   */\n      dup3\n        /* \"#utility.yul\":6059:6125   */\n      mstore\n        /* \"#utility.yul\":6049:6131   */\n      pop\n      pop\n      jump\t// out\n        /* \"#utility.yul\":6137:6481   */\n    tag_149:\n        /* \"#utility.yul\":6215:6218   */\n      0x00\n        /* \"#utility.yul\":6243:6282   */\n      tag_186\n        /* \"#utility.yul\":6276:6281   */\n      dup3\n        /* \"#utility.yul\":6243:6282   */\n      tag_187\n      jump\t// in\n    tag_186:\n        /* \"#utility.yul\":6298:6359   */\n      tag_188\n        /* \"#utility.yul\":6352:6358   */\n      dup2\n        /* \"#utility.yul\":6347:6350   */\n      dup6\n        /* \"#utility.yul\":6298:6359   */\n      tag_189\n      jump\t// in\n    tag_188:\n        /* \"#utility.yul\":6291:6359   */\n      swap4\n      pop\n        /* \"#utility.yul\":6368:6420   */\n      tag_190\n        /* \"#utility.yul\":6413:6419   */\n      dup2\n        /* \"#utility.yul\":6408:6411   */\n      dup6\n        /* \"#utility.yul\":6401:6405   */\n      0x20\n        /* \"#utility.yul\":6394:6399   */\n      dup7\n        /* \"#utility.yul\":6390:6406   */\n      add\n        /* \"#utility.yul\":6368:6420   */\n      tag_191\n      jump\t// in\n    tag_190:\n        /* \"#utility.yul\":6445:6474   */\n      tag_192\n        /* \"#utility.yul\":6467:6473   */\n      dup2\n        /* \"#utility.yul\":6445:6474   */\n      tag_193\n      jump\t// in\n    tag_192:\n        /* \"#utility.yul\":6440:6443   */\n      dup5\n        /* \"#utility.yul\":6436:6475   */\n      add\n        /* \"#utility.yul\":6429:6475   */\n      swap2\n      pop\n        /* \"#utility.yul\":6219:6481   */\n      pop\n      swap3\n      swap2\n      pop\n      pop\n      jump\t// out\n        /* \"#utility.yul\":6487:6851   */\n    tag_194:\n        /* \"#utility.yul\":6575:6578   */\n      0x00\n        /* \"#utility.yul\":6603:6642   */\n      tag_196\n        /* \"#utility.yul\":6636:6641   */\n      dup3\n        /* \"#utility.yul\":6603:6642   */\n      tag_187\n      jump\t// in\n    tag_196:\n        /* \"#utility.yul\":6658:6729   */\n      tag_197\n        /* \"#utility.yul\":6722:6728   */\n      dup2\n        /* \"#utility.yul\":6717:6720   */\n      dup6\n        /* \"#utility.yul\":6658:6729   */\n      tag_198\n      jump\t// in\n    tag_197:\n        /* \"#utility.yul\":6651:6729   */\n      swap4\n      pop\n        /* \"#utility.yul\":6738:6790   */\n      tag_199\n        /* \"#utility.yul\":6783:6789   */\n      dup2\n        /* \"#utility.yul\":6778:6781   */\n      dup6\n        /* \"#utility.yul\":6771:6775   */\n      0x20\n        /* \"#utility.yul\":6764:6769   */\n      dup7\n        /* \"#utility.yul\":6760:6776   */\n      add\n        /* \"#utility.yul\":6738:6790   */\n      tag_191\n      jump\t// in\n    tag_199:\n        /* \"#utility.yul\":6815:6844   */\n      tag_200\n        /* \"#utility.yul\":6837:6843   */\n      dup2\n        /* \"#utility.yul\":6815:6844   */\n      tag_193\n      jump\t// in\n    tag_200:\n        /* \"#utility.yul\":6810:6813   */\n      dup5\n        /* \"#utility.yul\":6806:6845   */\n      add\n        /* \"#utility.yul\":6799:6845   */\n      swap2\n      pop\n        /* \"#utility.yul\":6579:6851   */\n      pop\n      swap3\n      swap2\n      pop\n      pop\n      jump\t// out\n        /* \"#utility.yul\":6857:6975   */\n    tag_201:\n        /* \"#utility.yul\":6944:6968   */\n      tag_203\n        /* \"#utility.yul\":6962:6967   */\n      dup2\n        /* \"#utility.yul\":6944:6968   */\n      tag_204\n      jump\t// in\n    tag_203:\n        /* \"#utility.yul\":6939:6942   */\n      dup3\n        /* \"#utility.yul\":6932:6969   */\n      mstore\n        /* \"#utility.yul\":6922:6975   */\n      pop\n      pop\n      jump\t// out\n        /* \"#utility.yul\":6981:8290   */\n    tag_17:\n        /* \"#utility.yul\":7434:7438   */\n      0x00\n        /* \"#utility.yul\":7472:7475   */\n      0x80\n        /* \"#utility.yul\":7461:7470   */\n      dup3\n        /* \"#utility.yul\":7457:7476   */\n      add\n        /* \"#utility.yul\":7449:7476   */\n      swap1\n      pop\n        /* \"#utility.yul\":7522:7531   */\n      dup2\n        /* \"#utility.yul\":7516:7520   */\n      dup2\n        /* \"#utility.yul\":7512:7532   */\n      sub\n        /* \"#utility.yul\":7508:7509   */\n      0x00\n        /* \"#utility.yul\":7497:7506   */\n      dup4\n        /* \"#utility.yul\":7493:7510   */\n      add\n        /* \"#utility.yul\":7486:7533   */\n      mstore\n        /* \"#utility.yul\":7550:7674   */\n      tag_206\n        /* \"#utility.yul\":7669:7673   */\n      dup2\n        /* \"#utility.yul\":7660:7666   */\n      dup8\n        /* \"#utility.yul\":7550:7674   */\n      tag_154\n      jump\t// in\n    tag_206:\n        /* \"#utility.yul\":7542:7674   */\n      swap1\n      pop\n        /* \"#utility.yul\":7721:7730   */\n      dup2\n        /* \"#utility.yul\":7715:7719   */\n      dup2\n        /* \"#utility.yul\":7711:7731   */\n      sub\n        /* \"#utility.yul\":7706:7708   */\n      0x20\n        /* \"#utility.yul\":7695:7704   */\n      dup4\n        /* \"#utility.yul\":7691:7709   */\n      add\n        /* \"#utility.yul\":7684:7732   */\n      mstore\n        /* \"#utility.yul\":7749:7877   */\n      tag_207\n        /* \"#utility.yul\":7872:7876   */\n      dup2\n        /* \"#utility.yul\":7863:7869   */\n      dup7\n        /* \"#utility.yul\":7749:7877   */\n      tag_168\n      jump\t// in\n    tag_207:\n        /* \"#utility.yul\":7741:7877   */\n      swap1\n      pop\n        /* \"#utility.yul\":7924:7933   */\n      dup2\n        /* \"#utility.yul\":7918:7922   */\n      dup2\n        /* \"#utility.yul\":7914:7934   */\n      sub\n        /* \"#utility.yul\":7909:7911   */\n      0x40\n        /* \"#utility.yul\":7898:7907   */\n      dup4\n        /* \"#utility.yul\":7894:7912   */\n      add\n        /* \"#utility.yul\":7887:7935   */\n      mstore\n        /* \"#utility.yul\":7952:8080   */\n      tag_208\n        /* \"#utility.yul\":8075:8079   */\n      dup2\n        /* \"#utility.yul\":8066:8072   */\n      dup6\n        /* \"#utility.yul\":7952:8080   */\n      tag_168\n      jump\t// in\n    tag_208:\n        /* \"#utility.yul\":7944:8080   */\n      swap1\n      pop\n        /* \"#utility.yul\":8127:8136   */\n      dup2\n        /* \"#utility.yul\":8121:8125   */\n      dup2\n        /* \"#utility.yul\":8117:8137   */\n      sub\n        /* \"#utility.yul\":8112:8114   */\n      0x60\n        /* \"#utility.yul\":8101:8110   */\n      dup4\n        /* \"#utility.yul\":8097:8115   */\n      add\n        /* \"#utility.yul\":8090:8138   */\n      mstore\n        /* \"#utility.yul\":8155:8283   */\n      tag_209\n        /* \"#utility.yul\":8278:8282   */\n      dup2\n        /* \"#utility.yul\":8269:8275   */\n      dup5\n        /* \"#utility.yul\":8155:8283   */\n      tag_168\n      jump\t// in\n    tag_209:\n        /* \"#utility.yul\":8147:8283   */\n      swap1\n      pop\n        /* \"#utility.yul\":7439:8290   */\n      swap6\n      swap5\n      pop\n      pop\n      pop\n      pop\n      pop\n      jump\t// out\n        /* \"#utility.yul\":8296:9122   */\n    tag_24:\n        /* \"#utility.yul\":8533:8537   */\n      0x00\n        /* \"#utility.yul\":8571:8574   */\n      0x80\n        /* \"#utility.yul\":8560:8569   */\n      dup3\n        /* \"#utility.yul\":8556:8575   */\n      add\n        /* \"#utility.yul\":8548:8575   */\n      swap1\n      pop\n        /* \"#utility.yul\":8621:8630   */\n      dup2\n        /* \"#utility.yul\":8615:8619   */\n      dup2\n        /* \"#utility.yul\":8611:8631   */\n      sub\n        /* \"#utility.yul\":8607:8608   */\n      0x00\n        /* \"#utility.yul\":8596:8605   */\n      dup4\n        /* \"#utility.yul\":8592:8609   */\n      add\n        /* \"#utility.yul\":8585:8632   */\n      mstore\n        /* \"#utility.yul\":8649:8727   */\n      tag_211\n        /* \"#utility.yul\":8722:8726   */\n      dup2\n        /* \"#utility.yul\":8713:8719   */\n      dup8\n        /* \"#utility.yul\":8649:8727   */\n      tag_194\n      jump\t// in\n    tag_211:\n        /* \"#utility.yul\":8641:8727   */\n      swap1\n      pop\n        /* \"#utility.yul\":8774:8783   */\n      dup2\n        /* \"#utility.yul\":8768:8772   */\n      dup2\n        /* \"#utility.yul\":8764:8784   */\n      sub\n        /* \"#utility.yul\":8759:8761   */\n      0x20\n        /* \"#utility.yul\":8748:8757   */\n      dup4\n        /* \"#utility.yul\":8744:8762   */\n      add\n        /* \"#utility.yul\":8737:8785   */\n      mstore\n        /* \"#utility.yul\":8802:8880   */\n      tag_212\n        /* \"#utility.yul\":8875:8879   */\n      dup2\n        /* \"#utility.yul\":8866:8872   */\n      dup7\n        /* \"#utility.yul\":8802:8880   */\n      tag_194\n      jump\t// in\n    tag_212:\n        /* \"#utility.yul\":8794:8880   */\n      swap1\n      pop\n        /* \"#utility.yul\":8927:8936   */\n      dup2\n        /* \"#utility.yul\":8921:8925   */\n      dup2\n        /* \"#utility.yul\":8917:8937   */\n      sub\n        /* \"#utility.yul\":8912:8914   */\n      0x40\n        /* \"#utility.yul\":8901:8910   */\n      dup4\n        /* \"#utility.yul\":8897:8915   */\n      add\n        /* \"#utility.yul\":8890:8938   */\n      mstore\n        /* \"#utility.yul\":8955:9033   */\n      tag_213\n        /* \"#utility.yul\":9028:9032   */\n      dup2\n        /* \"#utility.yul\":9019:9025   */\n      dup6\n        /* \"#utility.yul\":8955:9033   */\n      tag_194\n      jump\t// in\n    tag_213:\n        /* \"#utility.yul\":8947:9033   */\n      swap1\n      pop\n        /* \"#utility.yul\":9043:9115   */\n      tag_214\n        /* \"#utility.yul\":9111:9113   */\n      0x60\n        /* \"#utility.yul\":9100:9109   */\n      dup4\n        /* \"#utility.yul\":9096:9114   */\n      add\n        /* \"#utility.yul\":9087:9093   */\n      dup5\n        /* \"#utility.yul\":9043:9115   */\n      tag_150\n      jump\t// in\n    tag_214:\n        /* \"#utility.yul\":8538:9122   */\n      swap6\n      swap5\n      pop\n      pop\n      pop\n      pop\n      pop\n      jump\t// out\n        /* \"#utility.yul\":9128:10176   */\n    tag_45:\n        /* \"#utility.yul\":9421:9425   */\n      0x00\n        /* \"#utility.yul\":9459:9462   */\n      0xc0\n        /* \"#utility.yul\":9448:9457   */\n      dup3\n        /* \"#utility.yul\":9444:9463   */\n      add\n        /* \"#utility.yul\":9436:9463   */\n      swap1\n      pop\n        /* \"#utility.yul\":9473:9544   */\n      tag_216\n        /* \"#utility.yul\":9541:9542   */\n      0x00\n        /* \"#utility.yul\":9530:9539   */\n      dup4\n        /* \"#utility.yul\":9526:9543   */\n      add\n        /* \"#utility.yul\":9517:9523   */\n      dup10\n        /* \"#utility.yul\":9473:9544   */\n      tag_201\n      jump\t// in\n    tag_216:\n        /* \"#utility.yul\":9591:9600   */\n      dup2\n        /* \"#utility.yul\":9585:9589   */\n      dup2\n        /* \"#utility.yul\":9581:9601   */\n      sub\n        /* \"#utility.yul\":9576:9578   */\n      0x20\n        /* \"#utility.yul\":9565:9574   */\n      dup4\n        /* \"#utility.yul\":9561:9579   */\n      add\n        /* \"#utility.yul\":9554:9602   */\n      mstore\n        /* \"#utility.yul\":9619:9697   */\n      tag_217\n        /* \"#utility.yul\":9692:9696   */\n      dup2\n        /* \"#utility.yul\":9683:9689   */\n      dup9\n        /* \"#utility.yul\":9619:9697   */\n      tag_194\n      jump\t// in\n    tag_217:\n        /* \"#utility.yul\":9611:9697   */\n      swap1\n      pop\n        /* \"#utility.yul\":9744:9753   */\n      dup2\n        /* \"#utility.yul\":9738:9742   */\n      dup2\n        /* \"#utility.yul\":9734:9754   */\n      sub\n        /* \"#utility.yul\":9729:9731   */\n      0x40\n        /* \"#utility.yul\":9718:9727   */\n      dup4\n        /* \"#utility.yul\":9714:9732   */\n      add\n        /* \"#utility.yul\":9707:9755   */\n      mstore\n        /* \"#utility.yul\":9772:9850   */\n      tag_218\n        /* \"#utility.yul\":9845:9849   */\n      dup2\n        /* \"#utility.yul\":9836:9842   */\n      dup8\n        /* \"#utility.yul\":9772:9850   */\n      tag_194\n      jump\t// in\n    tag_218:\n        /* \"#utility.yul\":9764:9850   */\n      swap1\n      pop\n        /* \"#utility.yul\":9897:9906   */\n      dup2\n        /* \"#utility.yul\":9891:9895   */\n      dup2\n        /* \"#utility.yul\":9887:9907   */\n      sub\n        /* \"#utility.yul\":9882:9884   */\n      0x60\n        /* \"#utility.yul\":9871:9880   */\n      dup4\n        /* \"#utility.yul\":9867:9885   */\n      add\n        /* \"#utility.yul\":9860:9908   */\n      mstore\n        /* \"#utility.yul\":9925:10003   */\n      tag_219\n        /* \"#utility.yul\":9998:10002   */\n      dup2\n        /* \"#utility.yul\":9989:9995   */\n      dup7\n        /* \"#utility.yul\":9925:10003   */\n      tag_194\n      jump\t// in\n    tag_219:\n        /* \"#utility.yul\":9917:10003   */\n      swap1\n      pop\n        /* \"#utility.yul\":10013:10086   */\n      tag_220\n        /* \"#utility.yul\":10081:10084   */\n      0x80\n        /* \"#utility.yul\":10070:10079   */\n      dup4\n        /* \"#utility.yul\":10066:10085   */\n      add\n        /* \"#utility.yul\":10057:10063   */\n      dup6\n        /* \"#utility.yul\":10013:10086   */\n      tag_150\n      jump\t// in\n    tag_220:\n        /* \"#utility.yul\":10096:10169   */\n      tag_221\n        /* \"#utility.yul\":10164:10167   */\n      0xa0\n        /* \"#utility.yul\":10153:10162   */\n      dup4\n        /* \"#utility.yul\":10149:10168   */\n      add\n        /* \"#utility.yul\":10140:10146   */\n      dup5\n        /* \"#utility.yul\":10096:10169   */\n      tag_201\n      jump\t// in\n    tag_221:\n        /* \"#utility.yul\":9426:10176   */\n      swap8\n      swap7\n      pop\n      pop\n      pop\n      pop\n      pop\n      pop\n      pop\n      jump\t// out\n        /* \"#utility.yul\":10182:10311   */\n    tag_98:\n        /* \"#utility.yul\":10216:10222   */\n      0x00\n        /* \"#utility.yul\":10243:10263   */\n      tag_223\n      tag_224\n      jump\t// in\n    tag_223:\n        /* \"#utility.yul\":10233:10263   */\n      swap1\n      pop\n        /* \"#utility.yul\":10272:10305   */\n      tag_225\n        /* \"#utility.yul\":10300:10304   */\n      dup3\n        /* \"#utility.yul\":10292:10298   */\n      dup3\n        /* \"#utility.yul\":10272:10305   */\n      tag_226\n      jump\t// in\n    tag_225:\n        /* \"#utility.yul\":10223:10311   */\n      swap2\n      swap1\n      pop\n      jump\t// out\n        /* \"#utility.yul\":10317:10392   */\n    tag_224:\n        /* \"#utility.yul\":10350:10356   */\n      0x00\n        /* \"#utility.yul\":10383:10385   */\n      0x40\n        /* \"#utility.yul\":10377:10386   */\n      mload\n        /* \"#utility.yul\":10367:10386   */\n      swap1\n      pop\n        /* \"#utility.yul\":10357:10392   */\n      swap1\n      jump\t// out\n        /* \"#utility.yul\":10398:10706   */\n    tag_97:\n        /* \"#utility.yul\":10460:10464   */\n      0x00\n        /* \"#utility.yul\":10550:10568   */\n      0xffffffffffffffff\n        /* \"#utility.yul\":10542:10548   */\n      dup3\n        /* \"#utility.yul\":10539:10569   */\n      gt\n        /* \"#utility.yul\":10536:10538   */\n      iszero\n      tag_229\n      jumpi\n        /* \"#utility.yul\":10572:10590   */\n      tag_230\n      tag_231\n      jump\t// in\n    tag_230:\n        /* \"#utility.yul\":10536:10538   */\n    tag_229:\n        /* \"#utility.yul\":10610:10639   */\n      tag_232\n        /* \"#utility.yul\":10632:10638   */\n      dup3\n        /* \"#utility.yul\":10610:10639   */\n      tag_193\n      jump\t// in\n    tag_232:\n        /* \"#utility.yul\":10602:10639   */\n      swap1\n      pop\n        /* \"#utility.yul\":10694:10698   */\n      0x20\n        /* \"#utility.yul\":10688:10692   */\n      dup2\n        /* \"#utility.yul\":10684:10699   */\n      add\n        /* \"#utility.yul\":10676:10699   */\n      swap1\n      pop\n        /* \"#utility.yul\":10465:10706   */\n      swap2\n      swap1\n      pop\n      jump\t// out\n        /* \"#utility.yul\":10712:10860   */\n    tag_161:\n        /* \"#utility.yul\":10795:10799   */\n      0x00\n        /* \"#utility.yul\":10818:10821   */\n      dup2\n        /* \"#utility.yul\":10810:10821   */\n      swap1\n      pop\n        /* \"#utility.yul\":10848:10852   */\n      0x20\n        /* \"#utility.yul\":10843:10846   */\n      dup3\n        /* \"#utility.yul\":10839:10853   */\n      add\n        /* \"#utility.yul\":10831:10853   */\n      swap1\n      pop\n        /* \"#utility.yul\":10800:10860   */\n      swap2\n      swap1\n      pop\n      jump\t// out\n        /* \"#utility.yul\":10866:11008   */\n    tag_175:\n        /* \"#utility.yul\":10943:10947   */\n      0x00\n        /* \"#utility.yul\":10966:10969   */\n      dup2\n        /* \"#utility.yul\":10958:10969   */\n      swap1\n      pop\n        /* \"#utility.yul\":10996:11000   */\n      0x20\n        /* \"#utility.yul\":10991:10994   */\n      dup3\n        /* \"#utility.yul\":10987:11001   */\n      add\n        /* \"#utility.yul\":10979:11001   */\n      swap1\n      pop\n        /* \"#utility.yul\":10948:11008   */\n      swap2\n      swap1\n      pop\n      jump\t// out\n        /* \"#utility.yul\":11014:11144   */\n    tag_157:\n        /* \"#utility.yul\":11097:11103   */\n      0x00\n        /* \"#utility.yul\":11131:11136   */\n      dup2\n        /* \"#utility.yul\":11125:11137   */\n      mload\n        /* \"#utility.yul\":11115:11137   */\n      swap1\n      pop\n        /* \"#utility.yul\":11104:11144   */\n      swap2\n      swap1\n      pop\n      jump\t// out\n        /* \"#utility.yul\":11150:11274   */\n    tag_171:\n        /* \"#utility.yul\":11227:11233   */\n      0x00\n        /* \"#utility.yul\":11261:11266   */\n      dup2\n        /* \"#utility.yul\":11255:11267   */\n      mload\n        /* \"#utility.yul\":11245:11267   */\n      swap1\n      pop\n        /* \"#utility.yul\":11234:11274   */\n      swap2\n      swap1\n      pop\n      jump\t// out\n        /* \"#utility.yul\":11280:11379   */\n    tag_187:\n        /* \"#utility.yul\":11332:11338   */\n      0x00\n        /* \"#utility.yul\":11366:11371   */\n      dup2\n        /* \"#utility.yul\":11360:11372   */\n      mload\n        /* \"#utility.yul\":11350:11372   */\n      swap1\n      pop\n        /* \"#utility.yul\":11339:11379   */\n      swap2\n      swap1\n      pop\n      jump\t// out\n        /* \"#utility.yul\":11385:11514   */\n    tag_167:\n        /* \"#utility.yul\":11471:11475   */\n      0x00\n        /* \"#utility.yul\":11503:11507   */\n      0x20\n        /* \"#utility.yul\":11498:11501   */\n      dup3\n        /* \"#utility.yul\":11494:11508   */\n      add\n        /* \"#utility.yul\":11486:11508   */\n      swap1\n      pop\n        /* \"#utility.yul\":11476:11514   */\n      swap2\n      swap1\n      pop\n      jump\t// out\n        /* \"#utility.yul\":11520:11643   */\n    tag_181:\n        /* \"#utility.yul\":11600:11604   */\n      0x00\n        /* \"#utility.yul\":11632:11636   */\n      0x20\n        /* \"#utility.yul\":11627:11630   */\n      dup3\n        /* \"#utility.yul\":11623:11637   */\n      add\n        /* \"#utility.yul\":11615:11637   */\n      swap1\n      pop\n        /* \"#utility.yul\":11605:11643   */\n      swap2\n      swap1\n      pop\n      jump\t// out\n        /* \"#utility.yul\":11649:11833   */\n    tag_159:\n        /* \"#utility.yul\":11748:11759   */\n      0x00\n        /* \"#utility.yul\":11782:11788   */\n      dup3\n        /* \"#utility.yul\":11777:11780   */\n      dup3\n        /* \"#utility.yul\":11770:11789   */\n      mstore\n        /* \"#utility.yul\":11822:11826   */\n      0x20\n        /* \"#utility.yul\":11817:11820   */\n      dup3\n        /* \"#utility.yul\":11813:11827   */\n      add\n        /* \"#utility.yul\":11798:11827   */\n      swap1\n      pop\n        /* \"#utility.yul\":11760:11833   */\n      swap3\n      swap2\n      pop\n      pop\n      jump\t// out\n        /* \"#utility.yul\":11839:12033   */\n    tag_173:\n        /* \"#utility.yul\":11948:11959   */\n      0x00\n        /* \"#utility.yul\":11982:11988   */\n      dup3\n        /* \"#utility.yul\":11977:11980   */\n      dup3\n        /* \"#utility.yul\":11970:11989   */\n      mstore\n        /* \"#utility.yul\":12022:12026   */\n      0x20\n        /* \"#utility.yul\":12017:12020   */\n      dup3\n        /* \"#utility.yul\":12013:12027   */\n      add\n        /* \"#utility.yul\":11998:12027   */\n      swap1\n      pop\n        /* \"#utility.yul\":11960:12033   */\n      swap3\n      swap2\n      pop\n      pop\n      jump\t// out\n        /* \"#utility.yul\":12039:12198   */\n    tag_189:\n        /* \"#utility.yul\":12113:12124   */\n      0x00\n        /* \"#utility.yul\":12147:12153   */\n      dup3\n        /* \"#utility.yul\":12142:12145   */\n      dup3\n        /* \"#utility.yul\":12135:12154   */\n      mstore\n        /* \"#utility.yul\":12187:12191   */\n      0x20\n        /* \"#utility.yul\":12182:12185   */\n      dup3\n        /* \"#utility.yul\":12178:12192   */\n      add\n        /* \"#utility.yul\":12163:12192   */\n      swap1\n      pop\n        /* \"#utility.yul\":12125:12198   */\n      swap3\n      swap2\n      pop\n      pop\n      jump\t// out\n        /* \"#utility.yul\":12204:12373   */\n    tag_198:\n        /* \"#utility.yul\":12288:12299   */\n      0x00\n        /* \"#utility.yul\":12322:12328   */\n      dup3\n        /* \"#utility.yul\":12317:12320   */\n      dup3\n        /* \"#utility.yul\":12310:12329   */\n      mstore\n        /* \"#utility.yul\":12362:12366   */\n      0x20\n        /* \"#utility.yul\":12357:12360   */\n      dup3\n        /* \"#utility.yul\":12353:12367   */\n      add\n        /* \"#utility.yul\":12338:12367   */\n      swap1\n      pop\n        /* \"#utility.yul\":12300:12373   */\n      swap3\n      swap2\n      pop\n      pop\n      jump\t// out\n        /* \"#utility.yul\":12379:12475   */\n    tag_153:\n        /* \"#utility.yul\":12416:12423   */\n      0x00\n        /* \"#utility.yul\":12445:12469   */\n      tag_245\n        /* \"#utility.yul\":12463:12468   */\n      dup3\n        /* \"#utility.yul\":12445:12469   */\n      tag_246\n      jump\t// in\n    tag_245:\n        /* \"#utility.yul\":12434:12469   */\n      swap1\n      pop\n        /* \"#utility.yul\":12424:12475   */\n      swap2\n      swap1\n      pop\n      jump\t// out\n        /* \"#utility.yul\":12481:12607   */\n    tag_246:\n        /* \"#utility.yul\":12518:12525   */\n      0x00\n        /* \"#utility.yul\":12558:12600   */\n      0xffffffffffffffffffffffffffffffffffffffff\n        /* \"#utility.yul\":12551:12556   */\n      dup3\n        /* \"#utility.yul\":12547:12601   */\n      and\n        /* \"#utility.yul\":12536:12601   */\n      swap1\n      pop\n        /* \"#utility.yul\":12526:12607   */\n      swap2\n      swap1\n      pop\n      jump\t// out\n        /* \"#utility.yul\":12613:12690   */\n    tag_204:\n        /* \"#utility.yul\":12650:12657   */\n      0x00\n        /* \"#utility.yul\":12679:12684   */\n      dup2\n        /* \"#utility.yul\":12668:12684   */\n      swap1\n      pop\n        /* \"#utility.yul\":12658:12690   */\n      swap2\n      swap1\n      pop\n      jump\t// out\n        /* \"#utility.yul\":12696:12854   */\n    tag_184:\n        /* \"#utility.yul\":12762:12771   */\n      0x00\n        /* \"#utility.yul\":12795:12848   */\n      tag_250\n        /* \"#utility.yul\":12842:12847   */\n      dup3\n        /* \"#utility.yul\":12795:12848   */\n      tag_251\n      jump\t// in\n    tag_250:\n        /* \"#utility.yul\":12782:12848   */\n      swap1\n      pop\n        /* \"#utility.yul\":12772:12854   */\n      swap2\n      swap1\n      pop\n      jump\t// out\n        /* \"#utility.yul\":12860:12989   */\n    tag_251:\n        /* \"#utility.yul\":12926:12935   */\n      0x00\n        /* \"#utility.yul\":12959:12983   */\n      tag_253\n        /* \"#utility.yul\":12977:12982   */\n      dup3\n        /* \"#utility.yul\":12959:12983   */\n      tag_246\n      jump\t// in\n    tag_253:\n        /* \"#utility.yul\":12946:12983   */\n      swap1\n      pop\n        /* \"#utility.yul\":12936:12989   */\n      swap2\n      swap1\n      pop\n      jump\t// out\n        /* \"#utility.yul\":12995:13149   */\n    tag_103:\n        /* \"#utility.yul\":13079:13085   */\n      dup3\n        /* \"#utility.yul\":13074:13077   */\n      dup2\n        /* \"#utility.yul\":13069:13072   */\n      dup4\n        /* \"#utility.yul\":13056:13086   */\n      calldatacopy\n        /* \"#utility.yul\":13141:13142   */\n      0x00\n        /* \"#utility.yul\":13132:13138   */\n      dup4\n        /* \"#utility.yul\":13127:13130   */\n      dup4\n        /* \"#utility.yul\":13123:13139   */\n      add\n        /* \"#utility.yul\":13116:13143   */\n      mstore\n        /* \"#utility.yul\":13046:13149   */\n      pop\n      pop\n      pop\n      jump\t// out\n        /* \"#utility.yul\":13155:13462   */\n    tag_191:\n        /* \"#utility.yul\":13223:13224   */\n      0x00\n        /* \"#utility.yul\":13233:13346   */\n    tag_256:\n        /* \"#utility.yul\":13247:13253   */\n      dup4\n        /* \"#utility.yul\":13244:13245   */\n      dup2\n        /* \"#utility.yul\":13241:13254   */\n      lt\n        /* \"#utility.yul\":13233:13346   */\n      iszero\n      tag_258\n      jumpi\n        /* \"#utility.yul\":13332:13333   */\n      dup1\n        /* \"#utility.yul\":13327:13330   */\n      dup3\n        /* \"#utility.yul\":13323:13334   */\n      add\n        /* \"#utility.yul\":13317:13335   */\n      mload\n        /* \"#utility.yul\":13313:13314   */\n      dup2\n        /* \"#utility.yul\":13308:13311   */\n      dup5\n        /* \"#utility.yul\":13304:13315   */\n      add\n        /* \"#utility.yul\":13297:13336   */\n      mstore\n        /* \"#utility.yul\":13269:13271   */\n      0x20\n        /* \"#utility.yul\":13266:13267   */\n      dup2\n        /* \"#utility.yul\":13262:13272   */\n      add\n        /* \"#utility.yul\":13257:13272   */\n      swap1\n      pop\n        /* \"#utility.yul\":13233:13346   */\n      jump(tag_256)\n    tag_258:\n        /* \"#utility.yul\":13364:13370   */\n      dup4\n        /* \"#utility.yul\":13361:13362   */\n      dup2\n        /* \"#utility.yul\":13358:13371   */\n      gt\n        /* \"#utility.yul\":13355:13357   */\n      iszero\n      tag_259\n      jumpi\n        /* \"#utility.yul\":13444:13445   */\n      0x00\n        /* \"#utility.yul\":13435:13441   */\n      dup5\n        /* \"#utility.yul\":13430:13433   */\n      dup5\n        /* \"#utility.yul\":13426:13442   */\n      add\n        /* \"#utility.yul\":13419:13446   */\n      mstore\n        /* \"#utility.yul\":13355:13357   */\n    tag_259:\n        /* \"#utility.yul\":13204:13462   */\n      pop\n      pop\n      pop\n      pop\n      jump\t// out\n        /* \"#utility.yul\":13468:13788   */\n    tag_61:\n        /* \"#utility.yul\":13512:13518   */\n      0x00\n        /* \"#utility.yul\":13549:13550   */\n      0x02\n        /* \"#utility.yul\":13543:13547   */\n      dup3\n        /* \"#utility.yul\":13539:13551   */\n      div\n        /* \"#utility.yul\":13529:13551   */\n      swap1\n      pop\n        /* \"#utility.yul\":13596:13597   */\n      0x01\n        /* \"#utility.yul\":13590:13594   */\n      dup3\n        /* \"#utility.yul\":13586:13598   */\n      and\n        /* \"#utility.yul\":13617:13635   */\n      dup1\n        /* \"#utility.yul\":13607:13609   */\n      tag_261\n      jumpi\n        /* \"#utility.yul\":13673:13677   */\n      0x7f\n        /* \"#utility.yul\":13665:13671   */\n      dup3\n        /* \"#utility.yul\":13661:13678   */\n      and\n        /* \"#utility.yul\":13651:13678   */\n      swap2\n      pop\n        /* \"#utility.yul\":13607:13609   */\n    tag_261:\n        /* \"#utility.yul\":13735:13737   */\n      0x20\n        /* \"#utility.yul\":13727:13733   */\n      dup3\n        /* \"#utility.yul\":13724:13738   */\n      lt\n        /* \"#utility.yul\":13704:13722   */\n      dup2\n        /* \"#utility.yul\":13701:13739   */\n      eq\n        /* \"#utility.yul\":13698:13700   */\n      iszero\n      tag_262\n      jumpi\n        /* \"#utility.yul\":13754:13772   */\n      tag_263\n      tag_264\n      jump\t// in\n    tag_263:\n        /* \"#utility.yul\":13698:13700   */\n    tag_262:\n        /* \"#utility.yul\":13519:13788   */\n      pop\n      swap2\n      swap1\n      pop\n      jump\t// out\n        /* \"#utility.yul\":13794:14075   */\n    tag_226:\n        /* \"#utility.yul\":13877:13904   */\n      tag_266\n        /* \"#utility.yul\":13899:13903   */\n      dup3\n        /* \"#utility.yul\":13877:13904   */\n      tag_193\n      jump\t// in\n    tag_266:\n        /* \"#utility.yul\":13869:13875   */\n      dup2\n        /* \"#utility.yul\":13865:13905   */\n      add\n        /* \"#utility.yul\":14007:14013   */\n      dup2\n        /* \"#utility.yul\":13995:14005   */\n      dup2\n        /* \"#utility.yul\":13992:14014   */\n      lt\n        /* \"#utility.yul\":13971:13989   */\n      0xffffffffffffffff\n        /* \"#utility.yul\":13959:13969   */\n      dup3\n        /* \"#utility.yul\":13956:13990   */\n      gt\n        /* \"#utility.yul\":13953:14015   */\n      or\n        /* \"#utility.yul\":13950:13952   */\n      iszero\n      tag_267\n      jumpi\n        /* \"#utility.yul\":14018:14036   */\n      tag_268\n      tag_231\n      jump\t// in\n    tag_268:\n        /* \"#utility.yul\":13950:13952   */\n    tag_267:\n        /* \"#utility.yul\":14058:14068   */\n      dup1\n        /* \"#utility.yul\":14054:14056   */\n      0x40\n        /* \"#utility.yul\":14047:14069   */\n      mstore\n        /* \"#utility.yul\":13837:14075   */\n      pop\n      pop\n      pop\n      jump\t// out\n        /* \"#utility.yul\":14081:14261   */\n    tag_264:\n        /* \"#utility.yul\":14129:14206   */\n      0x4e487b7100000000000000000000000000000000000000000000000000000000\n        /* \"#utility.yul\":14126:14127   */\n      0x00\n        /* \"#utility.yul\":14119:14207   */\n      mstore\n        /* \"#utility.yul\":14226:14230   */\n      0x22\n        /* \"#utility.yul\":14223:14224   */\n      0x04\n        /* \"#utility.yul\":14216:14231   */\n      mstore\n        /* \"#utility.yul\":14250:14254   */\n      0x24\n        /* \"#utility.yul\":14247:14248   */\n      0x00\n        /* \"#utility.yul\":14240:14255   */\n      revert\n        /* \"#utility.yul\":14267:14447   */\n    tag_21:\n        /* \"#utility.yul\":14315:14392   */\n      0x4e487b7100000000000000000000000000000000000000000000000000000000\n        /* \"#utility.yul\":14312:14313   */\n      0x00\n        /* \"#utility.yul\":14305:14393   */\n      mstore\n        /* \"#utility.yul\":14412:14416   */\n      0x32\n        /* \"#utility.yul\":14409:14410   */\n      0x04\n        /* \"#utility.yul\":14402:14417   */\n      mstore\n        /* \"#utility.yul\":14436:14440   */\n      0x24\n        /* \"#utility.yul\":14433:14434   */\n      0x00\n        /* \"#utility.yul\":14426:14441   */\n      revert\n        /* \"#utility.yul\":14453:14633   */\n    tag_231:\n        /* \"#utility.yul\":14501:14578   */\n      0x4e487b7100000000000000000000000000000000000000000000000000000000\n        /* \"#utility.yul\":14498:14499   */\n      0x00\n        /* \"#utility.yul\":14491:14579   */\n      mstore\n        /* \"#utility.yul\":14598:14602   */\n      0x41\n        /* \"#utility.yul\":14595:14596   */\n      0x04\n        /* \"#utility.yul\":14588:14603   */\n      mstore\n        /* \"#utility.yul\":14622:14626   */\n      0x24\n        /* \"#utility.yul\":14619:14620   */\n      0x00\n        /* \"#utility.yul\":14612:14627   */\n      revert\n        /* \"#utility.yul\":14639:14756   */\n    tag_108:\n        /* \"#utility.yul\":14748:14749   */\n      0x00\n        /* \"#utility.yul\":14745:14746   */\n      dup1\n        /* \"#utility.yul\":14738:14750   */\n      revert\n        /* \"#utility.yul\":14762:14879   */\n    tag_101:\n        /* \"#utility.yul\":14871:14872   */\n      0x00\n        /* \"#utility.yul\":14868:14869   */\n      dup1\n        /* \"#utility.yul\":14861:14873   */\n      revert\n        /* \"#utility.yul\":14885:15002   */\n    tag_120:\n        /* \"#utility.yul\":14994:14995   */\n      0x00\n        /* \"#utility.yul\":14991:14992   */\n      dup1\n        /* \"#utility.yul\":14984:14996   */\n      revert\n        /* \"#utility.yul\":15008:15125   */\n    tag_117:\n        /* \"#utility.yul\":15117:15118   */\n      0x00\n        /* \"#utility.yul\":15114:15115   */\n      dup1\n        /* \"#utility.yul\":15107:15119   */\n      revert\n        /* \"#utility.yul\":15131:15233   */\n    tag_193:\n        /* \"#utility.yul\":15172:15178   */\n      0x00\n        /* \"#utility.yul\":15223:15225   */\n      0x1f\n        /* \"#utility.yul\":15219:15226   */\n      not\n        /* \"#utility.yul\":15214:15216   */\n      0x1f\n        /* \"#utility.yul\":15207:15212   */\n      dup4\n        /* \"#utility.yul\":15203:15217   */\n      add\n        /* \"#utility.yul\":15199:15227   */\n      and\n        /* \"#utility.yul\":15189:15227   */\n      swap1\n      pop\n        /* \"#utility.yul\":15179:15233   */\n      swap2\n      swap1\n      pop\n      jump\t// out\n        /* \"#utility.yul\":15239:15361   */\n    tag_113:\n        /* \"#utility.yul\":15312:15336   */\n      tag_278\n        /* \"#utility.yul\":15330:15335   */\n      dup2\n        /* \"#utility.yul\":15312:15336   */\n      tag_204\n      jump\t// in\n    tag_278:\n        /* \"#utility.yul\":15305:15310   */\n      dup2\n        /* \"#utility.yul\":15302:15337   */\n      eq\n        /* \"#utility.yul\":15292:15294   */\n      tag_279\n      jumpi\n        /* \"#utility.yul\":15351:15352   */\n      0x00\n        /* \"#utility.yul\":15348:15349   */\n      dup1\n        /* \"#utility.yul\":15341:15353   */\n      revert\n        /* \"#utility.yul\":15292:15294   */\n    tag_279:\n        /* \"#utility.yul\":15282:15361   */\n      pop\n      jump\t// out\n    stop\n\n    sub_0: assembly {\n            /* \"Campaign.sol\":80:3133  contract Campaign {... */\n          mstore(0x40, 0x80)\n            /* \"Campaign.sol\":394:799  constructor(... */\n          callvalue\n          dup1\n          iszero\n          tag_1\n          jumpi\n          0x00\n          dup1\n          revert\n        tag_1:\n          pop\n          mload(0x40)\n          sub(codesize, bytecodeSize)\n          dup1\n          bytecodeSize\n          dup4\n          codecopy\n          dup2\n          dup2\n          add\n          0x40\n          mstore\n          dup2\n          add\n          swap1\n          tag_2\n          swap2\n          swap1\n          tag_3\n          jump\t// in\n        tag_2:\n            /* \"Campaign.sol\":605:612  minimum */\n          dup6\n            /* \"Campaign.sol\":587:602  minContribution */\n          0x01\n            /* \"Campaign.sol\":587:612  minContribution = minimum */\n          dup2\n          swap1\n          sstore\n          pop\n            /* \"Campaign.sol\":630:636  _title */\n          dup5\n            /* \"Campaign.sol\":622:627  title */\n          0x03\n            /* \"Campaign.sol\":622:636  title = _title */\n          swap1\n          dup1\n          mload\n          swap1\n          0x20\n          add\n          swap1\n          tag_6\n          swap3\n          swap2\n          swap1\n          tag_7\n          jump\t// in\n        tag_6:\n          pop\n            /* \"Campaign.sol\":660:664  desc */\n          dup4\n            /* \"Campaign.sol\":646:657  description */\n          0x02\n            /* \"Campaign.sol\":646:664  description = desc */\n          swap1\n          dup1\n          mload\n          swap1\n          0x20\n          add\n          swap1\n          tag_8\n          swap3\n          swap2\n          swap1\n          tag_7\n          jump\t// in\n        tag_8:\n          pop\n            /* \"Campaign.sol\":682:688  _image */\n          dup3\n            /* \"Campaign.sol\":674:679  image */\n          0x04\n            /* \"Campaign.sol\":674:688  image = _image */\n          swap1\n          dup1\n          mload\n          swap1\n          0x20\n          add\n          swap1\n          tag_9\n          swap3\n          swap2\n          swap1\n          tag_7\n          jump\t// in\n        tag_9:\n          pop\n            /* \"Campaign.sol\":715:716  0 */\n          0x00\n            /* \"Campaign.sol\":698:712  approversCount */\n          0x08\n            /* \"Campaign.sol\":698:716  approversCount = 0 */\n          dup2\n          swap1\n          sstore\n          pop\n            /* \"Campaign.sol\":740:741  0 */\n          0x00\n            /* \"Campaign.sol\":726:737  numRequests */\n          0x06\n            /* \"Campaign.sol\":726:741  numRequests = 0 */\n          dup2\n          swap1\n          sstore\n          pop\n            /* \"Campaign.sol\":761:767  sender */\n          dup2\n            /* \"Campaign.sol\":751:758  manager */\n          0x00\n          dup1\n            /* \"Campaign.sol\":751:767  manager = sender */\n          0x0100\n          exp\n          dup2\n          sload\n          dup2\n          0xffffffffffffffffffffffffffffffffffffffff\n          mul\n          not\n          and\n          swap1\n          dup4\n          0xffffffffffffffffffffffffffffffffffffffff\n          and\n          mul\n          or\n          swap1\n          sstore\n          pop\n            /* \"Campaign.sol\":786:792  _index */\n          dup1\n            /* \"Campaign.sol\":777:783  cindex */\n          0x09\n            /* \"Campaign.sol\":777:792  cindex = _index */\n          dup2\n          swap1\n          sstore\n          pop\n            /* \"Campaign.sol\":394:799  constructor(... */\n          pop\n          pop\n          pop\n          pop\n          pop\n          pop\n            /* \"Campaign.sol\":80:3133  contract Campaign {... */\n          jump(tag_10)\n        tag_7:\n          dup3\n          dup1\n          sload\n          tag_11\n          swap1\n          tag_12\n          jump\t// in\n        tag_11:\n          swap1\n          0x00\n          mstore\n          keccak256(0x00, 0x20)\n          swap1\n          0x1f\n          add\n          0x20\n          swap1\n          div\n          dup2\n          add\n          swap3\n          dup3\n          tag_14\n          jumpi\n          0x00\n          dup6\n          sstore\n          jump(tag_13)\n        tag_14:\n          dup3\n          0x1f\n          lt\n          tag_15\n          jumpi\n          dup1\n          mload\n          not(0xff)\n          and\n          dup4\n          dup1\n          add\n          or\n          dup6\n          sstore\n          jump(tag_13)\n        tag_15:\n          dup3\n          dup1\n          add\n          0x01\n          add\n          dup6\n          sstore\n          dup3\n          iszero\n          tag_13\n          jumpi\n          swap2\n          dup3\n          add\n        tag_16:\n          dup3\n          dup2\n          gt\n          iszero\n          tag_17\n          jumpi\n          dup3\n          mload\n          dup3\n          sstore\n          swap2\n          0x20\n          add\n          swap2\n          swap1\n          0x01\n          add\n          swap1\n          jump(tag_16)\n        tag_17:\n        tag_13:\n          pop\n          swap1\n          pop\n          tag_18\n          swap2\n          swap1\n          tag_19\n          jump\t// in\n        tag_18:\n          pop\n          swap1\n          jump\t// out\n        tag_19:\n        tag_20:\n          dup1\n          dup3\n          gt\n          iszero\n          tag_21\n          jumpi\n          0x00\n          dup2\n          0x00\n          swap1\n          sstore\n          pop\n          0x01\n          add\n          jump(tag_20)\n        tag_21:\n          pop\n          swap1\n          jump\t// out\n            /* \"#utility.yul\":7:428   */\n        tag_23:\n            /* \"#utility.yul\":96:101   */\n          0x00\n            /* \"#utility.yul\":121:187   */\n          tag_25\n            /* \"#utility.yul\":137:186   */\n          tag_26\n            /* \"#utility.yul\":179:185   */\n          dup5\n            /* \"#utility.yul\":137:186   */\n          tag_27\n          jump\t// in\n        tag_26:\n            /* \"#utility.yul\":121:187   */\n          tag_28\n          jump\t// in\n        tag_25:\n            /* \"#utility.yul\":112:187   */\n          swap1\n          pop\n            /* \"#utility.yul\":210:216   */\n          dup3\n            /* \"#utility.yul\":203:208   */\n          dup2\n            /* \"#utility.yul\":196:217   */\n          mstore\n            /* \"#utility.yul\":248:252   */\n          0x20\n            /* \"#utility.yul\":241:246   */\n          dup2\n            /* \"#utility.yul\":237:253   */\n          add\n            /* \"#utility.yul\":286:289   */\n          dup5\n            /* \"#utility.yul\":277:283   */\n          dup5\n            /* \"#utility.yul\":272:275   */\n          dup5\n            /* \"#utility.yul\":268:284   */\n          add\n            /* \"#utility.yul\":265:290   */\n          gt\n            /* \"#utility.yul\":262:264   */\n          iszero\n          tag_29\n          jumpi\n            /* \"#utility.yul\":293:372   */\n          tag_30\n          tag_31\n          jump\t// in\n        tag_30:\n            /* \"#utility.yul\":262:264   */\n        tag_29:\n            /* \"#utility.yul\":383:422   */\n          tag_32\n            /* \"#utility.yul\":415:421   */\n          dup5\n            /* \"#utility.yul\":410:413   */\n          dup3\n            /* \"#utility.yul\":405:408   */\n          dup6\n            /* \"#utility.yul\":383:422   */\n          tag_33\n          jump\t// in\n        tag_32:\n            /* \"#utility.yul\":102:428   */\n          pop\n          swap4\n          swap3\n          pop\n          pop\n          pop\n          jump\t// out\n            /* \"#utility.yul\":434:577   */\n        tag_34:\n            /* \"#utility.yul\":491:496   */\n          0x00\n            /* \"#utility.yul\":522:528   */\n          dup2\n            /* \"#utility.yul\":516:529   */\n          mload\n            /* \"#utility.yul\":507:529   */\n          swap1\n          pop\n            /* \"#utility.yul\":538:571   */\n          tag_36\n            /* \"#utility.yul\":565:570   */\n          dup2\n            /* \"#utility.yul\":538:571   */\n          tag_37\n          jump\t// in\n        tag_36:\n            /* \"#utility.yul\":497:577   */\n          swap3\n          swap2\n          pop\n          pop\n          jump\t// out\n            /* \"#utility.yul\":597:952   */\n        tag_38:\n            /* \"#utility.yul\":664:669   */\n          0x00\n            /* \"#utility.yul\":713:716   */\n          dup3\n            /* \"#utility.yul\":706:710   */\n          0x1f\n            /* \"#utility.yul\":698:704   */\n          dup4\n            /* \"#utility.yul\":694:711   */\n          add\n            /* \"#utility.yul\":690:717   */\n          slt\n            /* \"#utility.yul\":680:682   */\n          tag_40\n          jumpi\n            /* \"#utility.yul\":721:800   */\n          tag_41\n          tag_42\n          jump\t// in\n        tag_41:\n            /* \"#utility.yul\":680:682   */\n        tag_40:\n            /* \"#utility.yul\":831:837   */\n          dup2\n            /* \"#utility.yul\":825:838   */\n          mload\n            /* \"#utility.yul\":856:946   */\n          tag_43\n            /* \"#utility.yul\":942:945   */\n          dup5\n            /* \"#utility.yul\":934:940   */\n          dup3\n            /* \"#utility.yul\":927:931   */\n          0x20\n            /* \"#utility.yul\":919:925   */\n          dup7\n            /* \"#utility.yul\":915:932   */\n          add\n            /* \"#utility.yul\":856:946   */\n          tag_23\n          jump\t// in\n        tag_43:\n            /* \"#utility.yul\":847:946   */\n          swap2\n          pop\n            /* \"#utility.yul\":670:952   */\n          pop\n          swap3\n          swap2\n          pop\n          pop\n          jump\t// out\n            /* \"#utility.yul\":958:1101   */\n        tag_44:\n            /* \"#utility.yul\":1015:1020   */\n          0x00\n            /* \"#utility.yul\":1046:1052   */\n          dup2\n            /* \"#utility.yul\":1040:1053   */\n          mload\n            /* \"#utility.yul\":1031:1053   */\n          swap1\n          pop\n            /* \"#utility.yul\":1062:1095   */\n          tag_46\n            /* \"#utility.yul\":1089:1094   */\n          dup2\n            /* \"#utility.yul\":1062:1095   */\n          tag_47\n          jump\t// in\n        tag_46:\n            /* \"#utility.yul\":1021:1101   */\n          swap3\n          swap2\n          pop\n          pop\n          jump\t// out\n            /* \"#utility.yul\":1107:2760   */\n        tag_3:\n            /* \"#utility.yul\":1252:1258   */\n          0x00\n            /* \"#utility.yul\":1260:1266   */\n          dup1\n            /* \"#utility.yul\":1268:1274   */\n          0x00\n            /* \"#utility.yul\":1276:1282   */\n          dup1\n            /* \"#utility.yul\":1284:1290   */\n          0x00\n            /* \"#utility.yul\":1292:1298   */\n          dup1\n            /* \"#utility.yul\":1341:1344   */\n          0xc0\n            /* \"#utility.yul\":1329:1338   */\n          dup8\n            /* \"#utility.yul\":1320:1327   */\n          dup10\n            /* \"#utility.yul\":1316:1339   */\n          sub\n            /* \"#utility.yul\":1312:1345   */\n          slt\n            /* \"#utility.yul\":1309:1311   */\n          iszero\n          tag_49\n          jumpi\n            /* \"#utility.yul\":1348:1427   */\n          tag_50\n          tag_51\n          jump\t// in\n        tag_50:\n            /* \"#utility.yul\":1309:1311   */\n        tag_49:\n            /* \"#utility.yul\":1468:1469   */\n          0x00\n            /* \"#utility.yul\":1493:1557   */\n          tag_52\n            /* \"#utility.yul\":1549:1556   */\n          dup10\n            /* \"#utility.yul\":1540:1546   */\n          dup3\n            /* \"#utility.yul\":1529:1538   */\n          dup11\n            /* \"#utility.yul\":1525:1547   */\n          add\n            /* \"#utility.yul\":1493:1557   */\n          tag_44\n          jump\t// in\n        tag_52:\n            /* \"#utility.yul\":1483:1557   */\n          swap7\n          pop\n            /* \"#utility.yul\":1439:1567   */\n          pop\n            /* \"#utility.yul\":1627:1629   */\n          0x20\n            /* \"#utility.yul\":1616:1625   */\n          dup8\n            /* \"#utility.yul\":1612:1630   */\n          add\n            /* \"#utility.yul\":1606:1631   */\n          mload\n            /* \"#utility.yul\":1658:1676   */\n          0xffffffffffffffff\n            /* \"#utility.yul\":1650:1656   */\n          dup2\n            /* \"#utility.yul\":1647:1677   */\n          gt\n            /* \"#utility.yul\":1644:1646   */\n          iszero\n          tag_53\n          jumpi\n            /* \"#utility.yul\":1680:1759   */\n          tag_54\n          tag_55\n          jump\t// in\n        tag_54:\n            /* \"#utility.yul\":1644:1646   */\n        tag_53:\n            /* \"#utility.yul\":1785:1859   */\n          tag_56\n            /* \"#utility.yul\":1851:1858   */\n          dup10\n            /* \"#utility.yul\":1842:1848   */\n          dup3\n            /* \"#utility.yul\":1831:1840   */\n          dup11\n            /* \"#utility.yul\":1827:1849   */\n          add\n            /* \"#utility.yul\":1785:1859   */\n          tag_38\n          jump\t// in\n        tag_56:\n            /* \"#utility.yul\":1775:1859   */\n          swap6\n          pop\n            /* \"#utility.yul\":1577:1869   */\n          pop\n            /* \"#utility.yul\":1929:1931   */\n          0x40\n            /* \"#utility.yul\":1918:1927   */\n          dup8\n            /* \"#utility.yul\":1914:1932   */\n          add\n            /* \"#utility.yul\":1908:1933   */\n          mload\n            /* \"#utility.yul\":1960:1978   */\n          0xffffffffffffffff\n            /* \"#utility.yul\":1952:1958   */\n          dup2\n            /* \"#utility.yul\":1949:1979   */\n          gt\n            /* \"#utility.yul\":1946:1948   */\n          iszero\n          tag_57\n          jumpi\n            /* \"#utility.yul\":1982:2061   */\n          tag_58\n          tag_55\n          jump\t// in\n        tag_58:\n            /* \"#utility.yul\":1946:1948   */\n        tag_57:\n            /* \"#utility.yul\":2087:2161   */\n          tag_59\n            /* \"#utility.yul\":2153:2160   */\n          dup10\n            /* \"#utility.yul\":2144:2150   */\n          dup3\n            /* \"#utility.yul\":2133:2142   */\n          dup11\n            /* \"#utility.yul\":2129:2151   */\n          add\n            /* \"#utility.yul\":2087:2161   */\n          tag_38\n          jump\t// in\n        tag_59:\n            /* \"#utility.yul\":2077:2161   */\n          swap5\n          pop\n            /* \"#utility.yul\":1879:2171   */\n          pop\n            /* \"#utility.yul\":2231:2233   */\n          0x60\n            /* \"#utility.yul\":2220:2229   */\n          dup8\n            /* \"#utility.yul\":2216:2234   */\n          add\n            /* \"#utility.yul\":2210:2235   */\n          mload\n            /* \"#utility.yul\":2262:2280   */\n          0xffffffffffffffff\n            /* \"#utility.yul\":2254:2260   */\n          dup2\n            /* \"#utility.yul\":2251:2281   */\n          gt\n            /* \"#utility.yul\":2248:2250   */\n          iszero\n          tag_60\n          jumpi\n            /* \"#utility.yul\":2284:2363   */\n          tag_61\n          tag_55\n          jump\t// in\n        tag_61:\n            /* \"#utility.yul\":2248:2250   */\n        tag_60:\n            /* \"#utility.yul\":2389:2463   */\n          tag_62\n            /* \"#utility.yul\":2455:2462   */\n          dup10\n            /* \"#utility.yul\":2446:2452   */\n          dup3\n            /* \"#utility.yul\":2435:2444   */\n          dup11\n            /* \"#utility.yul\":2431:2453   */\n          add\n            /* \"#utility.yul\":2389:2463   */\n          tag_38\n          jump\t// in\n        tag_62:\n            /* \"#utility.yul\":2379:2463   */\n          swap4\n          pop\n            /* \"#utility.yul\":2181:2473   */\n          pop\n            /* \"#utility.yul\":2512:2515   */\n          0x80\n            /* \"#utility.yul\":2539:2603   */\n          tag_63\n            /* \"#utility.yul\":2595:2602   */\n          dup10\n            /* \"#utility.yul\":2586:2592   */\n          dup3\n            /* \"#utility.yul\":2575:2584   */\n          dup11\n            /* \"#utility.yul\":2571:2593   */\n          add\n            /* \"#utility.yul\":2539:2603   */\n          tag_34\n          jump\t// in\n        tag_63:\n            /* \"#utility.yul\":2529:2603   */\n          swap3\n          pop\n            /* \"#utility.yul\":2483:2613   */\n          pop\n            /* \"#utility.yul\":2652:2655   */\n          0xa0\n            /* \"#utility.yul\":2679:2743   */\n          tag_64\n            /* \"#utility.yul\":2735:2742   */\n          dup10\n            /* \"#utility.yul\":2726:2732   */\n          dup3\n            /* \"#utility.yul\":2715:2724   */\n          dup11\n            /* \"#utility.yul\":2711:2733   */\n          add\n            /* \"#utility.yul\":2679:2743   */\n          tag_44\n          jump\t// in\n        tag_64:\n            /* \"#utility.yul\":2669:2743   */\n          swap2\n          pop\n            /* \"#utility.yul\":2623:2753   */\n          pop\n            /* \"#utility.yul\":1299:2760   */\n          swap3\n          swap6\n          pop\n          swap3\n          swap6\n          pop\n          swap3\n          swap6\n          jump\t// out\n            /* \"#utility.yul\":2766:2895   */\n        tag_28:\n            /* \"#utility.yul\":2800:2806   */\n          0x00\n            /* \"#utility.yul\":2827:2847   */\n          tag_66\n          tag_67\n          jump\t// in\n        tag_66:\n            /* \"#utility.yul\":2817:2847   */\n          swap1\n          pop\n            /* \"#utility.yul\":2856:2889   */\n          tag_68\n            /* \"#utility.yul\":2884:2888   */\n          dup3\n            /* \"#utility.yul\":2876:2882   */\n          dup3\n            /* \"#utility.yul\":2856:2889   */\n          tag_69\n          jump\t// in\n        tag_68:\n            /* \"#utility.yul\":2807:2895   */\n          swap2\n          swap1\n          pop\n          jump\t// out\n            /* \"#utility.yul\":2901:2976   */\n        tag_67:\n            /* \"#utility.yul\":2934:2940   */\n          0x00\n            /* \"#utility.yul\":2967:2969   */\n          0x40\n            /* \"#utility.yul\":2961:2970   */\n          mload\n            /* \"#utility.yul\":2951:2970   */\n          swap1\n          pop\n            /* \"#utility.yul\":2941:2976   */\n          swap1\n          jump\t// out\n            /* \"#utility.yul\":2982:3290   */\n        tag_27:\n            /* \"#utility.yul\":3044:3048   */\n          0x00\n            /* \"#utility.yul\":3134:3152   */\n          0xffffffffffffffff\n            /* \"#utility.yul\":3126:3132   */\n          dup3\n            /* \"#utility.yul\":3123:3153   */\n          gt\n            /* \"#utility.yul\":3120:3122   */\n          iszero\n          tag_72\n          jumpi\n            /* \"#utility.yul\":3156:3174   */\n          tag_73\n          tag_74\n          jump\t// in\n        tag_73:\n            /* \"#utility.yul\":3120:3122   */\n        tag_72:\n            /* \"#utility.yul\":3194:3223   */\n          tag_75\n            /* \"#utility.yul\":3216:3222   */\n          dup3\n            /* \"#utility.yul\":3194:3223   */\n          tag_76\n          jump\t// in\n        tag_75:\n            /* \"#utility.yul\":3186:3223   */\n          swap1\n          pop\n            /* \"#utility.yul\":3278:3282   */\n          0x20\n            /* \"#utility.yul\":3272:3276   */\n          dup2\n            /* \"#utility.yul\":3268:3283   */\n          add\n            /* \"#utility.yul\":3260:3283   */\n          swap1\n          pop\n            /* \"#utility.yul\":3049:3290   */\n          swap2\n          swap1\n          pop\n          jump\t// out\n            /* \"#utility.yul\":3296:3392   */\n        tag_77:\n            /* \"#utility.yul\":3333:3340   */\n          0x00\n            /* \"#utility.yul\":3362:3386   */\n          tag_79\n            /* \"#utility.yul\":3380:3385   */\n          dup3\n            /* \"#utility.yul\":3362:3386   */\n          tag_80\n          jump\t// in\n        tag_79:\n            /* \"#utility.yul\":3351:3386   */\n          swap1\n          pop\n            /* \"#utility.yul\":3341:3392   */\n          swap2\n          swap1\n          pop\n          jump\t// out\n            /* \"#utility.yul\":3398:3524   */\n        tag_80:\n            /* \"#utility.yul\":3435:3442   */\n          0x00\n            /* \"#utility.yul\":3475:3517   */\n          0xffffffffffffffffffffffffffffffffffffffff\n            /* \"#utility.yul\":3468:3473   */\n          dup3\n            /* \"#utility.yul\":3464:3518   */\n          and\n            /* \"#utility.yul\":3453:3518   */\n          swap1\n          pop\n            /* \"#utility.yul\":3443:3524   */\n          swap2\n          swap1\n          pop\n          jump\t// out\n            /* \"#utility.yul\":3530:3607   */\n        tag_82:\n            /* \"#utility.yul\":3567:3574   */\n          0x00\n            /* \"#utility.yul\":3596:3601   */\n          dup2\n            /* \"#utility.yul\":3585:3601   */\n          swap1\n          pop\n            /* \"#utility.yul\":3575:3607   */\n          swap2\n          swap1\n          pop\n          jump\t// out\n            /* \"#utility.yul\":3613:3920   */\n        tag_33:\n            /* \"#utility.yul\":3681:3682   */\n          0x00\n            /* \"#utility.yul\":3691:3804   */\n        tag_85:\n            /* \"#utility.yul\":3705:3711   */\n          dup4\n            /* \"#utility.yul\":3702:3703   */\n          dup2\n            /* \"#utility.yul\":3699:3712   */\n          lt\n            /* \"#utility.yul\":3691:3804   */\n          iszero\n          tag_87\n          jumpi\n            /* \"#utility.yul\":3790:3791   */\n          dup1\n            /* \"#utility.yul\":3785:3788   */\n          dup3\n            /* \"#utility.yul\":3781:3792   */\n          add\n            /* \"#utility.yul\":3775:3793   */\n          mload\n            /* \"#utility.yul\":3771:3772   */\n          dup2\n            /* \"#utility.yul\":3766:3769   */\n          dup5\n            /* \"#utility.yul\":3762:3773   */\n          add\n            /* \"#utility.yul\":3755:3794   */\n          mstore\n            /* \"#utility.yul\":3727:3729   */\n          0x20\n            /* \"#utility.yul\":3724:3725   */\n          dup2\n            /* \"#utility.yul\":3720:3730   */\n          add\n            /* \"#utility.yul\":3715:3730   */\n          swap1\n          pop\n            /* \"#utility.yul\":3691:3804   */\n          jump(tag_85)\n        tag_87:\n            /* \"#utility.yul\":3822:3828   */\n          dup4\n            /* \"#utility.yul\":3819:3820   */\n          dup2\n            /* \"#utility.yul\":3816:3829   */\n          gt\n            /* \"#utility.yul\":3813:3815   */\n          iszero\n          tag_88\n          jumpi\n            /* \"#utility.yul\":3902:3903   */\n          0x00\n            /* \"#utility.yul\":3893:3899   */\n          dup5\n            /* \"#utility.yul\":3888:3891   */\n          dup5\n            /* \"#utility.yul\":3884:3900   */\n          add\n            /* \"#utility.yul\":3877:3904   */\n          mstore\n            /* \"#utility.yul\":3813:3815   */\n        tag_88:\n            /* \"#utility.yul\":3662:3920   */\n          pop\n          pop\n          pop\n          pop\n          jump\t// out\n            /* \"#utility.yul\":3926:4246   */\n        tag_12:\n            /* \"#utility.yul\":3970:3976   */\n          0x00\n            /* \"#utility.yul\":4007:4008   */\n          0x02\n            /* \"#utility.yul\":4001:4005   */\n          dup3\n            /* \"#utility.yul\":3997:4009   */\n          div\n            /* \"#utility.yul\":3987:4009   */\n          swap1\n          pop\n            /* \"#utility.yul\":4054:4055   */\n          0x01\n            /* \"#utility.yul\":4048:4052   */\n          dup3\n            /* \"#utility.yul\":4044:4056   */\n          and\n            /* \"#utility.yul\":4075:4093   */\n          dup1\n            /* \"#utility.yul\":4065:4067   */\n          tag_90\n          jumpi\n            /* \"#utility.yul\":4131:4135   */\n          0x7f\n            /* \"#utility.yul\":4123:4129   */\n          dup3\n            /* \"#utility.yul\":4119:4136   */\n          and\n            /* \"#utility.yul\":4109:4136   */\n          swap2\n          pop\n            /* \"#utility.yul\":4065:4067   */\n        tag_90:\n            /* \"#utility.yul\":4193:4195   */\n          0x20\n            /* \"#utility.yul\":4185:4191   */\n          dup3\n            /* \"#utility.yul\":4182:4196   */\n          lt\n            /* \"#utility.yul\":4162:4180   */\n          dup2\n            /* \"#utility.yul\":4159:4197   */\n          eq\n            /* \"#utility.yul\":4156:4158   */\n          iszero\n          tag_91\n          jumpi\n            /* \"#utility.yul\":4212:4230   */\n          tag_92\n          tag_93\n          jump\t// in\n        tag_92:\n            /* \"#utility.yul\":4156:4158   */\n        tag_91:\n            /* \"#utility.yul\":3977:4246   */\n          pop\n          swap2\n          swap1\n          pop\n          jump\t// out\n            /* \"#utility.yul\":4252:4533   */\n        tag_69:\n            /* \"#utility.yul\":4335:4362   */\n          tag_95\n            /* \"#utility.yul\":4357:4361   */\n          dup3\n            /* \"#utility.yul\":4335:4362   */\n          tag_76\n          jump\t// in\n        tag_95:\n            /* \"#utility.yul\":4327:4333   */\n          dup2\n            /* \"#utility.yul\":4323:4363   */\n          add\n            /* \"#utility.yul\":4465:4471   */\n          dup2\n            /* \"#utility.yul\":4453:4463   */\n          dup2\n            /* \"#utility.yul\":4450:4472   */\n          lt\n            /* \"#utility.yul\":4429:4447   */\n          0xffffffffffffffff\n            /* \"#utility.yul\":4417:4427   */\n          dup3\n            /* \"#utility.yul\":4414:4448   */\n          gt\n            /* \"#utility.yul\":4411:4473   */\n          or\n            /* \"#utility.yul\":4408:4410   */\n          iszero\n          tag_96\n          jumpi\n            /* \"#utility.yul\":4476:4494   */\n          tag_97\n          tag_74\n          jump\t// in\n        tag_97:\n            /* \"#utility.yul\":4408:4410   */\n        tag_96:\n            /* \"#utility.yul\":4516:4526   */\n          dup1\n            /* \"#utility.yul\":4512:4514   */\n          0x40\n            /* \"#utility.yul\":4505:4527   */\n          mstore\n            /* \"#utility.yul\":4295:4533   */\n          pop\n          pop\n          pop\n          jump\t// out\n            /* \"#utility.yul\":4539:4719   */\n        tag_93:\n            /* \"#utility.yul\":4587:4664   */\n          0x4e487b7100000000000000000000000000000000000000000000000000000000\n            /* \"#utility.yul\":4584:4585   */\n          0x00\n            /* \"#utility.yul\":4577:4665   */\n          mstore\n            /* \"#utility.yul\":4684:4688   */\n          0x22\n            /* \"#utility.yul\":4681:4682   */\n          0x04\n            /* \"#utility.yul\":4674:4689   */\n          mstore\n            /* \"#utility.yul\":4708:4712   */\n          0x24\n            /* \"#utility.yul\":4705:4706   */\n          0x00\n            /* \"#utility.yul\":4698:4713   */\n          revert\n            /* \"#utility.yul\":4725:4905   */\n        tag_74:\n            /* \"#utility.yul\":4773:4850   */\n          0x4e487b7100000000000000000000000000000000000000000000000000000000\n            /* \"#utility.yul\":4770:4771   */\n          0x00\n            /* \"#utility.yul\":4763:4851   */\n          mstore\n            /* \"#utility.yul\":4870:4874   */\n          0x41\n            /* \"#utility.yul\":4867:4868   */\n          0x04\n            /* \"#utility.yul\":4860:4875   */\n          mstore\n            /* \"#utility.yul\":4894:4898   */\n          0x24\n            /* \"#utility.yul\":4891:4892   */\n          0x00\n            /* \"#utility.yul\":4884:4899   */\n          revert\n            /* \"#utility.yul\":4911:5028   */\n        tag_42:\n            /* \"#utility.yul\":5020:5021   */\n          0x00\n            /* \"#utility.yul\":5017:5018   */\n          dup1\n            /* \"#utility.yul\":5010:5022   */\n          revert\n            /* \"#utility.yul\":5034:5151   */\n        tag_31:\n            /* \"#utility.yul\":5143:5144   */\n          0x00\n            /* \"#utility.yul\":5140:5141   */\n          dup1\n            /* \"#utility.yul\":5133:5145   */\n          revert\n            /* \"#utility.yul\":5157:5274   */\n        tag_55:\n            /* \"#utility.yul\":5266:5267   */\n          0x00\n            /* \"#utility.yul\":5263:5264   */\n          dup1\n            /* \"#utility.yul\":5256:5268   */\n          revert\n            /* \"#utility.yul\":5280:5397   */\n        tag_51:\n            /* \"#utility.yul\":5389:5390   */\n          0x00\n            /* \"#utility.yul\":5386:5387   */\n          dup1\n            /* \"#utility.yul\":5379:5391   */\n          revert\n            /* \"#utility.yul\":5403:5505   */\n        tag_76:\n            /* \"#utility.yul\":5444:5450   */\n          0x00\n            /* \"#utility.yul\":5495:5497   */\n          0x1f\n            /* \"#utility.yul\":5491:5498   */\n          not\n            /* \"#utility.yul\":5486:5488   */\n          0x1f\n            /* \"#utility.yul\":5479:5484   */\n          dup4\n            /* \"#utility.yul\":5475:5489   */\n          add\n            /* \"#utility.yul\":5471:5499   */\n          and\n            /* \"#utility.yul\":5461:5499   */\n          swap1\n          pop\n            /* \"#utility.yul\":5451:5505   */\n          swap2\n          swap1\n          pop\n          jump\t// out\n            /* \"#utility.yul\":5511:5633   */\n        tag_37:\n            /* \"#utility.yul\":5584:5608   */\n          tag_106\n            /* \"#utility.yul\":5602:5607   */\n          dup2\n            /* \"#utility.yul\":5584:5608   */\n          tag_77\n          jump\t// in\n        tag_106:\n            /* \"#utility.yul\":5577:5582   */\n          dup2\n            /* \"#utility.yul\":5574:5609   */\n          eq\n            /* \"#utility.yul\":5564:5566   */\n          tag_107\n          jumpi\n            /* \"#utility.yul\":5623:5624   */\n          0x00\n            /* \"#utility.yul\":5620:5621   */\n          dup1\n            /* \"#utility.yul\":5613:5625   */\n          revert\n            /* \"#utility.yul\":5564:5566   */\n        tag_107:\n            /* \"#utility.yul\":5554:5633   */\n          pop\n          jump\t// out\n            /* \"#utility.yul\":5639:5761   */\n        tag_47:\n            /* \"#utility.yul\":5712:5736   */\n          tag_109\n            /* \"#utility.yul\":5730:5735   */\n          dup2\n            /* \"#utility.yul\":5712:5736   */\n          tag_82\n          jump\t// in\n        tag_109:\n            /* \"#utility.yul\":5705:5710   */\n          dup2\n            /* \"#utility.yul\":5702:5737   */\n          eq\n            /* \"#utility.yul\":5692:5694   */\n          tag_110\n          jumpi\n            /* \"#utility.yul\":5751:5752   */\n          0x00\n            /* \"#utility.yul\":5748:5749   */\n          dup1\n            /* \"#utility.yul\":5741:5753   */\n          revert\n            /* \"#utility.yul\":5692:5694   */\n        tag_110:\n            /* \"#utility.yul\":5682:5761   */\n          pop\n          jump\t// out\n            /* \"Campaign.sol\":80:3133  contract Campaign {... */\n        tag_10:\n          dataSize(sub_0)\n          dup1\n          dataOffset(sub_0)\n          0x00\n          codecopy\n          0x00\n          return\n        stop\n\n        sub_0: assembly {\n                /* \"Campaign.sol\":80:3133  contract Campaign {... */\n              mstore(0x40, 0x80)\n              jumpi(tag_1, lt(calldatasize, 0x04))\n              shr(0xe0, calldataload(0x00))\n              dup1\n              0x473fc933\n              gt\n              tag_12\n              jumpi\n              dup1\n              0x473fc933\n              eq\n              tag_7\n              jumpi\n              dup1\n              0x81d12c58\n              eq\n              tag_8\n              jumpi\n              dup1\n              0x82fde093\n              eq\n              tag_9\n              jumpi\n              dup1\n              0xd7bb99ba\n              eq\n              tag_10\n              jumpi\n              dup1\n              0xd7d1bbdb\n              eq\n              tag_11\n              jumpi\n              jump(tag_1)\n            tag_12:\n              dup1\n              0x03441006\n              eq\n              tag_2\n              jumpi\n              dup1\n              0x1b16bb5c\n              eq\n              tag_3\n              jumpi\n              dup1\n              0x1d0d35f5\n              eq\n              tag_4\n              jumpi\n              dup1\n              0x3fad1834\n              eq\n              tag_5\n              jumpi\n              dup1\n              0x4051ddac\n              eq\n              tag_6\n              jumpi\n            tag_1:\n              0x00\n              dup1\n              revert\n                /* \"Campaign.sol\":2522:2813  function finalizeRequest(uint256 index) public owner {... */\n            tag_2:\n              callvalue\n              dup1\n              iszero\n              tag_13\n              jumpi\n              0x00\n              dup1\n              revert\n            tag_13:\n              pop\n              tag_14\n              0x04\n              dup1\n              calldatasize\n              sub\n              dup2\n              add\n              swap1\n              tag_15\n              swap2\n              swap1\n              tag_16\n              jump\t// in\n            tag_15:\n              tag_17\n              jump\t// in\n            tag_14:\n              stop\n                /* \"Campaign.sol\":1889:2250  function createRequest(... */\n            tag_3:\n              callvalue\n              dup1\n              iszero\n              tag_18\n              jumpi\n              0x00\n              dup1\n              revert\n            tag_18:\n              pop\n              tag_19\n              0x04\n              dup1\n              calldatasize\n              sub\n              dup2\n              add\n              swap1\n              tag_20\n              swap2\n              swap1\n              tag_21\n              jump\t// in\n            tag_20:\n              tag_22\n              jump\t// in\n            tag_19:\n              stop\n                /* \"Campaign.sol\":1484:1588  function isContributor(address user) public view returns (bool) {... */\n            tag_4:\n              callvalue\n              dup1\n              iszero\n              tag_23\n              jumpi\n              0x00\n              dup1\n              revert\n            tag_23:\n              pop\n              tag_24\n              0x04\n              dup1\n              calldatasize\n              sub\n              dup2\n              add\n              swap1\n              tag_25\n              swap2\n              swap1\n              tag_26\n              jump\t// in\n            tag_25:\n              tag_27\n              jump\t// in\n            tag_24:\n              mload(0x40)\n              tag_28\n              swap2\n              swap1\n              tag_29\n              jump\t// in\n            tag_28:\n              mload(0x40)\n              dup1\n              swap2\n              sub\n              swap1\n              return\n                /* \"Campaign.sol\":1252:1344  function getRequestCount() public view returns (uint256) {... */\n            tag_5:\n              callvalue\n              dup1\n              iszero\n              tag_30\n              jumpi\n              0x00\n              dup1\n              revert\n            tag_30:\n              pop\n              tag_31\n              tag_32\n              jump\t// in\n            tag_31:\n              mload(0x40)\n              tag_33\n              swap2\n              swap1\n              tag_34\n              jump\t// in\n            tag_33:\n              mload(0x40)\n              dup1\n              swap2\n              sub\n              swap1\n              return\n                /* \"Campaign.sol\":809:1246  function getSummary() public view returns (... */\n            tag_6:\n              callvalue\n              dup1\n              iszero\n              tag_35\n              jumpi\n              0x00\n              dup1\n              revert\n            tag_35:\n              pop\n              tag_36\n              tag_37\n              jump\t// in\n            tag_36:\n              mload(0x40)\n              tag_38\n              swap10\n              swap9\n              swap8\n              swap7\n              swap6\n              swap5\n              swap4\n              swap3\n              swap2\n              swap1\n              tag_39\n              jump\t// in\n            tag_38:\n              mload(0x40)\n              dup1\n              swap2\n              sub\n              swap1\n              return\n                /* \"Campaign.sol\":1594:1879  function edit(... */\n            tag_7:\n              callvalue\n              dup1\n              iszero\n              tag_40\n              jumpi\n              0x00\n              dup1\n              revert\n            tag_40:\n              pop\n              tag_41\n              0x04\n              dup1\n              calldatasize\n              sub\n              dup2\n              add\n              swap1\n              tag_42\n              swap2\n              swap1\n              tag_43\n              jump\t// in\n            tag_42:\n              tag_44\n              jump\t// in\n            tag_41:\n              stop\n                /* \"Campaign.sol\":214:263  mapping(uint256 => Types.Request) public requests */\n            tag_8:\n              callvalue\n              dup1\n              iszero\n              tag_45\n              jumpi\n              0x00\n              dup1\n              revert\n            tag_45:\n              pop\n              tag_46\n              0x04\n              dup1\n              calldatasize\n              sub\n              dup2\n              add\n              swap1\n              tag_47\n              swap2\n              swap1\n              tag_16\n              jump\t// in\n            tag_47:\n              tag_48\n              jump\t// in\n            tag_46:\n              mload(0x40)\n              tag_49\n              swap6\n              swap5\n              swap4\n              swap3\n              swap2\n              swap1\n              tag_50\n              jump\t// in\n            tag_49:\n              mload(0x40)\n              dup1\n              swap2\n              sub\n              swap1\n              return\n                /* \"Campaign.sol\":334:363  uint256 public approversCount */\n            tag_9:\n              callvalue\n              dup1\n              iszero\n              tag_51\n              jumpi\n              0x00\n              dup1\n              revert\n            tag_51:\n              pop\n              tag_52\n              tag_53\n              jump\t// in\n            tag_52:\n              mload(0x40)\n              tag_54\n              swap2\n              swap1\n              tag_34\n              jump\t// in\n            tag_54:\n              mload(0x40)\n              dup1\n              swap2\n              sub\n              swap1\n              return\n                /* \"Campaign.sol\":1355:1478  function contribute() public payable newContributor {... */\n            tag_10:\n              tag_55\n              tag_56\n              jump\t// in\n            tag_55:\n              stop\n                /* \"Campaign.sol\":2260:2512  function approveRequest(uint256 index) public contributor {... */\n            tag_11:\n              callvalue\n              dup1\n              iszero\n              tag_57\n              jumpi\n              0x00\n              dup1\n              revert\n            tag_57:\n              pop\n              tag_58\n              0x04\n              dup1\n              calldatasize\n              sub\n              dup2\n              add\n              swap1\n              tag_59\n              swap2\n              swap1\n              tag_16\n              jump\t// in\n            tag_59:\n              tag_60\n              jump\t// in\n            tag_58:\n              stop\n                /* \"Campaign.sol\":2522:2813  function finalizeRequest(uint256 index) public owner {... */\n            tag_17:\n                /* \"Campaign.sol\":2872:2879  manager */\n              0x00\n              dup1\n              sload\n              swap1\n              0x0100\n              exp\n              swap1\n              div\n              0xffffffffffffffffffffffffffffffffffffffff\n              and\n                /* \"Campaign.sol\":2858:2879  msg.sender == manager */\n              0xffffffffffffffffffffffffffffffffffffffff\n              and\n                /* \"Campaign.sol\":2858:2868  msg.sender */\n              caller\n                /* \"Campaign.sol\":2858:2879  msg.sender == manager */\n              0xffffffffffffffffffffffffffffffffffffffff\n              and\n              eq\n                /* \"Campaign.sol\":2850:2880  require(msg.sender == manager) */\n              tag_62\n              jumpi\n              0x00\n              dup1\n              revert\n            tag_62:\n                /* \"Campaign.sol\":2585:2610  Types.Request storage req */\n              0x00\n                /* \"Campaign.sol\":2613:2621  requests */\n              0x05\n                /* \"Campaign.sol\":2613:2628  requests[index] */\n              0x00\n                /* \"Campaign.sol\":2622:2627  index */\n              dup4\n                /* \"Campaign.sol\":2613:2628  requests[index] */\n              dup2\n              mstore\n              0x20\n              add\n              swap1\n              dup2\n              mstore\n              0x20\n              add\n              0x00\n              keccak256\n                /* \"Campaign.sol\":2585:2628  Types.Request storage req = requests[index] */\n              swap1\n              pop\n                /* \"Campaign.sol\":2691:2692  2 */\n              0x02\n                /* \"Campaign.sol\":2676:2690  approversCount */\n              sload(0x08)\n                /* \"Campaign.sol\":2676:2692  approversCount/2 */\n              tag_64\n              swap2\n              swap1\n              tag_65\n              jump\t// in\n            tag_64:\n                /* \"Campaign.sol\":2655:2658  req */\n              dup2\n                /* \"Campaign.sol\":2655:2672  req.approvalCount */\n              0x04\n              add\n              sload\n                /* \"Campaign.sol\":2655:2692  req.approvalCount >= approversCount/2 */\n              lt\n              iszero\n                /* \"Campaign.sol\":2647:2693  require(req.approvalCount >= approversCount/2) */\n              tag_66\n              jumpi\n              0x00\n              dup1\n              revert\n            tag_66:\n                /* \"Campaign.sol\":2712:2715  req */\n              dup1\n                /* \"Campaign.sol\":2712:2724  req.complete */\n              0x05\n              add\n              0x00\n              swap1\n              sload\n              swap1\n              0x0100\n              exp\n              swap1\n              div\n              0xff\n              and\n                /* \"Campaign.sol\":2711:2724  !req.complete */\n              iszero\n                /* \"Campaign.sol\":2703:2725  require(!req.complete) */\n              tag_67\n              jumpi\n              0x00\n              dup1\n              revert\n            tag_67:\n                /* \"Campaign.sol\":2744:2747  req */\n              dup1\n                /* \"Campaign.sol\":2744:2757  req.recipient */\n              0x02\n              add\n              0x00\n              swap1\n              sload\n              swap1\n              0x0100\n              exp\n              swap1\n              div\n              0xffffffffffffffffffffffffffffffffffffffff\n              and\n                /* \"Campaign.sol\":2744:2766  req.recipient.transfer */\n              0xffffffffffffffffffffffffffffffffffffffff\n              and\n                /* \"Campaign.sol\":2744:2777  req.recipient.transfer(req.value) */\n              0x08fc\n                /* \"Campaign.sol\":2767:2770  req */\n              dup3\n                /* \"Campaign.sol\":2767:2776  req.value */\n              0x01\n              add\n              sload\n                /* \"Campaign.sol\":2744:2777  req.recipient.transfer(req.value) */\n              swap1\n              dup2\n              iszero\n              mul\n              swap1\n              mload(0x40)\n              0x00\n              mload(0x40)\n              dup1\n              dup4\n              sub\n              dup2\n              dup6\n              dup9\n              dup9\n              call\n              swap4\n              pop\n              pop\n              pop\n              pop\n              iszero\n              dup1\n              iszero\n              tag_69\n              jumpi\n              returndatasize\n              0x00\n              dup1\n              returndatacopy\n              revert(0x00, returndatasize)\n            tag_69:\n              pop\n                /* \"Campaign.sol\":2802:2806  true */\n              0x01\n                /* \"Campaign.sol\":2787:2790  req */\n              dup2\n                /* \"Campaign.sol\":2787:2799  req.complete */\n              0x05\n              add\n              0x00\n                /* \"Campaign.sol\":2787:2806  req.complete = true */\n              0x0100\n              exp\n              dup2\n              sload\n              dup2\n              0xff\n              mul\n              not\n              and\n              swap1\n              dup4\n              iszero\n              iszero\n              mul\n              or\n              swap1\n              sstore\n              pop\n                /* \"Campaign.sol\":2575:2813  {... */\n              pop\n                /* \"Campaign.sol\":2522:2813  function finalizeRequest(uint256 index) public owner {... */\n              pop\n              jump\t// out\n                /* \"Campaign.sol\":1889:2250  function createRequest(... */\n            tag_22:\n                /* \"Campaign.sol\":2872:2879  manager */\n              0x00\n              dup1\n              sload\n              swap1\n              0x0100\n              exp\n              swap1\n              div\n              0xffffffffffffffffffffffffffffffffffffffff\n              and\n                /* \"Campaign.sol\":2858:2879  msg.sender == manager */\n              0xffffffffffffffffffffffffffffffffffffffff\n              and\n                /* \"Campaign.sol\":2858:2868  msg.sender */\n              caller\n                /* \"Campaign.sol\":2858:2879  msg.sender == manager */\n              0xffffffffffffffffffffffffffffffffffffffff\n              and\n              eq\n                /* \"Campaign.sol\":2850:2880  require(msg.sender == manager) */\n              tag_71\n              jumpi\n              0x00\n              dup1\n              revert\n            tag_71:\n                /* \"Campaign.sol\":2028:2053  Types.Request storage req */\n              0x00\n                /* \"Campaign.sol\":2056:2064  requests */\n              0x05\n                /* \"Campaign.sol\":2056:2079  requests[numRequests++] */\n              0x00\n                /* \"Campaign.sol\":2065:2076  numRequests */\n              0x06\n              0x00\n                /* \"Campaign.sol\":2065:2078  numRequests++ */\n              dup2\n              sload\n              dup1\n              swap3\n              swap2\n              swap1\n              tag_73\n              swap1\n              tag_74\n              jump\t// in\n            tag_73:\n              swap2\n              swap1\n              pop\n              sstore\n                /* \"Campaign.sol\":2056:2079  requests[numRequests++] */\n              dup2\n              mstore\n              0x20\n              add\n              swap1\n              dup2\n              mstore\n              0x20\n              add\n              0x00\n              keccak256\n                /* \"Campaign.sol\":2028:2079  Types.Request storage req = requests[numRequests++] */\n              swap1\n              pop\n                /* \"Campaign.sol\":2116:2120  desc */\n              dup4\n                /* \"Campaign.sol\":2098:2101  req */\n              dup2\n                /* \"Campaign.sol\":2098:2113  req.description */\n              0x00\n              add\n                /* \"Campaign.sol\":2098:2120  req.description = desc */\n              swap1\n              dup1\n              mload\n              swap1\n              0x20\n              add\n              swap1\n              tag_75\n              swap3\n              swap2\n              swap1\n              tag_76\n              jump\t// in\n            tag_75:\n              pop\n                /* \"Campaign.sol\":2146:2155  recipient */\n              dup3\n                /* \"Campaign.sol\":2130:2133  req */\n              dup2\n                /* \"Campaign.sol\":2130:2143  req.recipient */\n              0x02\n              add\n              0x00\n                /* \"Campaign.sol\":2130:2155  req.recipient = recipient */\n              0x0100\n              exp\n              dup2\n              sload\n              dup2\n              0xffffffffffffffffffffffffffffffffffffffff\n              mul\n              not\n              and\n              swap1\n              dup4\n              0xffffffffffffffffffffffffffffffffffffffff\n              and\n              mul\n              or\n              swap1\n              sstore\n              pop\n                /* \"Campaign.sol\":2177:2182  value */\n              dup2\n                /* \"Campaign.sol\":2165:2168  req */\n              dup2\n                /* \"Campaign.sol\":2165:2174  req.value */\n              0x01\n              add\n                /* \"Campaign.sol\":2165:2182  req.value = value */\n              dup2\n              swap1\n              sstore\n              pop\n                /* \"Campaign.sol\":2212:2213  0 */\n              0x00\n                /* \"Campaign.sol\":2192:2195  req */\n              dup2\n                /* \"Campaign.sol\":2192:2209  req.approvalCount */\n              0x04\n              add\n                /* \"Campaign.sol\":2192:2213  req.approvalCount = 0 */\n              dup2\n              swap1\n              sstore\n              pop\n                /* \"Campaign.sol\":2238:2243  false */\n              0x00\n                /* \"Campaign.sol\":2223:2226  req */\n              dup2\n                /* \"Campaign.sol\":2223:2235  req.complete */\n              0x05\n              add\n              0x00\n                /* \"Campaign.sol\":2223:2243  req.complete = false */\n              0x0100\n              exp\n              dup2\n              sload\n              dup2\n              0xff\n              mul\n              not\n              and\n              swap1\n              dup4\n              iszero\n              iszero\n              mul\n              or\n              swap1\n              sstore\n              pop\n                /* \"Campaign.sol\":2018:2250  {... */\n              pop\n                /* \"Campaign.sol\":1889:2250  function createRequest(... */\n              pop\n              pop\n              pop\n              jump\t// out\n                /* \"Campaign.sol\":1484:1588  function isContributor(address user) public view returns (bool) {... */\n            tag_27:\n                /* \"Campaign.sol\":1542:1546  bool */\n              0x00\n                /* \"Campaign.sol\":1565:1574  approvers */\n              0x07\n                /* \"Campaign.sol\":1565:1580  approvers[user] */\n              0x00\n                /* \"Campaign.sol\":1575:1579  user */\n              dup4\n                /* \"Campaign.sol\":1565:1580  approvers[user] */\n              0xffffffffffffffffffffffffffffffffffffffff\n              and\n              0xffffffffffffffffffffffffffffffffffffffff\n              and\n              dup2\n              mstore\n              0x20\n              add\n              swap1\n              dup2\n              mstore\n              0x20\n              add\n              0x00\n              keccak256\n              0x00\n              swap1\n              sload\n              swap1\n              0x0100\n              exp\n              swap1\n              div\n              0xff\n              and\n                /* \"Campaign.sol\":1558:1580  return approvers[user] */\n              swap1\n              pop\n                /* \"Campaign.sol\":1484:1588  function isContributor(address user) public view returns (bool) {... */\n              swap2\n              swap1\n              pop\n              jump\t// out\n                /* \"Campaign.sol\":1252:1344  function getRequestCount() public view returns (uint256) {... */\n            tag_32:\n                /* \"Campaign.sol\":1300:1307  uint256 */\n              0x00\n                /* \"Campaign.sol\":1326:1337  numRequests */\n              sload(0x06)\n                /* \"Campaign.sol\":1319:1337  return numRequests */\n              swap1\n              pop\n                /* \"Campaign.sol\":1252:1344  function getRequestCount() public view returns (uint256) {... */\n              swap1\n              jump\t// out\n                /* \"Campaign.sol\":809:1246  function getSummary() public view returns (... */\n            tag_37:\n                /* \"Campaign.sol\":861:868  uint256 */\n              0x00\n                /* \"Campaign.sol\":870:877  uint256 */\n              dup1\n                /* \"Campaign.sol\":879:886  uint256 */\n              0x00\n                /* \"Campaign.sol\":888:895  uint256 */\n              dup1\n                /* \"Campaign.sol\":906:919  string memory */\n              0x60\n                /* \"Campaign.sol\":921:934  string memory */\n              dup1\n                /* \"Campaign.sol\":936:949  string memory */\n              0x60\n                /* \"Campaign.sol\":960:967  address */\n              0x00\n                /* \"Campaign.sol\":977:984  uint256 */\n              dup1\n                /* \"Campaign.sol\":1022:1037  minContribution */\n              sload(0x01)\n                /* \"Campaign.sol\":1051:1062  numRequests */\n              sload(0x06)\n                /* \"Campaign.sol\":1076:1090  approversCount */\n              sload(0x08)\n                /* \"Campaign.sol\":1104:1125  address(this).balance */\n              selfbalance\n                /* \"Campaign.sol\":1139:1144  title */\n              0x03\n                /* \"Campaign.sol\":1158:1169  description */\n              0x02\n                /* \"Campaign.sol\":1183:1188  image */\n              0x04\n                /* \"Campaign.sol\":1202:1209  manager */\n              0x00\n              dup1\n              sload\n              swap1\n              0x0100\n              exp\n              swap1\n              div\n              0xffffffffffffffffffffffffffffffffffffffff\n              and\n                /* \"Campaign.sol\":1223:1229  cindex */\n              sload(0x09)\n                /* \"Campaign.sol\":1001:1239  return (... */\n              dup5\n              dup1\n              sload\n              tag_80\n              swap1\n              tag_81\n              jump\t// in\n            tag_80:\n              dup1\n              0x1f\n              add\n              0x20\n              dup1\n              swap2\n              div\n              mul\n              0x20\n              add\n              mload(0x40)\n              swap1\n              dup2\n              add\n              0x40\n              mstore\n              dup1\n              swap3\n              swap2\n              swap1\n              dup2\n              dup2\n              mstore\n              0x20\n              add\n              dup3\n              dup1\n              sload\n              tag_82\n              swap1\n              tag_81\n              jump\t// in\n            tag_82:\n              dup1\n              iszero\n              tag_83\n              jumpi\n              dup1\n              0x1f\n              lt\n              tag_84\n              jumpi\n              0x0100\n              dup1\n              dup4\n              sload\n              div\n              mul\n              dup4\n              mstore\n              swap2\n              0x20\n              add\n              swap2\n              jump(tag_83)\n            tag_84:\n              dup3\n              add\n              swap2\n              swap1\n              0x00\n              mstore\n              keccak256(0x00, 0x20)\n              swap1\n            tag_85:\n              dup2\n              sload\n              dup2\n              mstore\n              swap1\n              0x01\n              add\n              swap1\n              0x20\n              add\n              dup1\n              dup4\n              gt\n              tag_85\n              jumpi\n              dup3\n              swap1\n              sub\n              0x1f\n              and\n              dup3\n              add\n              swap2\n            tag_83:\n              pop\n              pop\n              pop\n              pop\n              pop\n              swap5\n              pop\n              dup4\n              dup1\n              sload\n              tag_86\n              swap1\n              tag_81\n              jump\t// in\n            tag_86:\n              dup1\n              0x1f\n              add\n              0x20\n              dup1\n              swap2\n              div\n              mul\n              0x20\n              add\n              mload(0x40)\n              swap1\n              dup2\n              add\n              0x40\n              mstore\n              dup1\n              swap3\n              swap2\n              swap1\n              dup2\n              dup2\n              mstore\n              0x20\n              add\n              dup3\n              dup1\n              sload\n              tag_87\n              swap1\n              tag_81\n              jump\t// in\n            tag_87:\n              dup1\n              iszero\n              tag_88\n              jumpi\n              dup1\n              0x1f\n              lt\n              tag_89\n              jumpi\n              0x0100\n              dup1\n              dup4\n              sload\n              div\n              mul\n              dup4\n              mstore\n              swap2\n              0x20\n              add\n              swap2\n              jump(tag_88)\n            tag_89:\n              dup3\n              add\n              swap2\n              swap1\n              0x00\n              mstore\n              keccak256(0x00, 0x20)\n              swap1\n            tag_90:\n              dup2\n              sload\n              dup2\n              mstore\n              swap1\n              0x01\n              add\n              swap1\n              0x20\n              add\n              dup1\n              dup4\n              gt\n              tag_90\n              jumpi\n              dup3\n              swap1\n              sub\n              0x1f\n              and\n              dup3\n              add\n              swap2\n            tag_88:\n              pop\n              pop\n              pop\n              pop\n              pop\n              swap4\n              pop\n              dup3\n              dup1\n              sload\n              tag_91\n              swap1\n              tag_81\n              jump\t// in\n            tag_91:\n              dup1\n              0x1f\n              add\n              0x20\n              dup1\n              swap2\n              div\n              mul\n              0x20\n              add\n              mload(0x40)\n              swap1\n              dup2\n              add\n              0x40\n              mstore\n              dup1\n              swap3\n              swap2\n              swap1\n              dup2\n              dup2\n              mstore\n              0x20\n              add\n              dup3\n              dup1\n              sload\n              tag_92\n              swap1\n              tag_81\n              jump\t// in\n            tag_92:\n              dup1\n              iszero\n              tag_93\n              jumpi\n              dup1\n              0x1f\n              lt\n              tag_94\n              jumpi\n              0x0100\n              dup1\n              dup4\n              sload\n              div\n              mul\n              dup4\n              mstore\n              swap2\n              0x20\n              add\n              swap2\n              jump(tag_93)\n            tag_94:\n              dup3\n              add\n              swap2\n              swap1\n              0x00\n              mstore\n              keccak256(0x00, 0x20)\n              swap1\n            tag_95:\n              dup2\n              sload\n              dup2\n              mstore\n              swap1\n              0x01\n              add\n              swap1\n              0x20\n              add\n              dup1\n              dup4\n              gt\n              tag_95\n              jumpi\n              dup3\n              swap1\n              sub\n              0x1f\n              and\n              dup3\n              add\n              swap2\n            tag_93:\n              pop\n              pop\n              pop\n              pop\n              pop\n              swap3\n              pop\n              swap9\n              pop\n              swap9\n              pop\n              swap9\n              pop\n              swap9\n              pop\n              swap9\n              pop\n              swap9\n              pop\n              swap9\n              pop\n              swap9\n              pop\n              swap9\n              pop\n                /* \"Campaign.sol\":809:1246  function getSummary() public view returns (... */\n              swap1\n              swap2\n              swap3\n              swap4\n              swap5\n              swap6\n              swap7\n              swap8\n              swap9\n              jump\t// out\n                /* \"Campaign.sol\":1594:1879  function edit(... */\n            tag_44:\n                /* \"Campaign.sol\":1771:1778  manager */\n              0x00\n              dup1\n              sload\n              swap1\n              0x0100\n              exp\n              swap1\n              div\n              0xffffffffffffffffffffffffffffffffffffffff\n              and\n                /* \"Campaign.sol\":1761:1778  sender == manager */\n              0xffffffffffffffffffffffffffffffffffffffff\n              and\n                /* \"Campaign.sol\":1761:1767  sender */\n              dup2\n                /* \"Campaign.sol\":1761:1778  sender == manager */\n              0xffffffffffffffffffffffffffffffffffffffff\n              and\n              eq\n                /* \"Campaign.sol\":1753:1779  require(sender == manager) */\n              tag_97\n              jumpi\n              0x00\n              dup1\n              revert\n            tag_97:\n                /* \"Campaign.sol\":1806:1812  _title */\n              dup4\n                /* \"Campaign.sol\":1798:1803  title */\n              0x03\n                /* \"Campaign.sol\":1798:1812  title = _title */\n              swap1\n              dup1\n              mload\n              swap1\n              0x20\n              add\n              swap1\n              tag_98\n              swap3\n              swap2\n              swap1\n              tag_76\n              jump\t// in\n            tag_98:\n              pop\n                /* \"Campaign.sol\":1836:1848  _description */\n              dup3\n                /* \"Campaign.sol\":1822:1833  description */\n              0x02\n                /* \"Campaign.sol\":1822:1848  description = _description */\n              swap1\n              dup1\n              mload\n              swap1\n              0x20\n              add\n              swap1\n              tag_99\n              swap3\n              swap2\n              swap1\n              tag_76\n              jump\t// in\n            tag_99:\n              pop\n                /* \"Campaign.sol\":1866:1872  _image */\n              dup2\n                /* \"Campaign.sol\":1858:1863  image */\n              0x04\n                /* \"Campaign.sol\":1858:1872  image = _image */\n              swap1\n              dup1\n              mload\n              swap1\n              0x20\n              add\n              swap1\n              tag_100\n              swap3\n              swap2\n              swap1\n              tag_76\n              jump\t// in\n            tag_100:\n              pop\n                /* \"Campaign.sol\":1594:1879  function edit(... */\n              pop\n              pop\n              pop\n              pop\n              jump\t// out\n                /* \"Campaign.sol\":214:263  mapping(uint256 => Types.Request) public requests */\n            tag_48:\n              mstore(0x20, 0x05)\n              dup1\n              0x00\n              mstore\n              keccak256(0x00, 0x40)\n              0x00\n              swap2\n              pop\n              swap1\n              pop\n              dup1\n              0x00\n              add\n              dup1\n              sload\n              tag_101\n              swap1\n              tag_81\n              jump\t// in\n            tag_101:\n              dup1\n              0x1f\n              add\n              0x20\n              dup1\n              swap2\n              div\n              mul\n              0x20\n              add\n              mload(0x40)\n              swap1\n              dup2\n              add\n              0x40\n              mstore\n              dup1\n              swap3\n              swap2\n              swap1\n              dup2\n              dup2\n              mstore\n              0x20\n              add\n              dup3\n              dup1\n              sload\n              tag_102\n              swap1\n              tag_81\n              jump\t// in\n            tag_102:\n              dup1\n              iszero\n              tag_103\n              jumpi\n              dup1\n              0x1f\n              lt\n              tag_104\n              jumpi\n              0x0100\n              dup1\n              dup4\n              sload\n              div\n              mul\n              dup4\n              mstore\n              swap2\n              0x20\n              add\n              swap2\n              jump(tag_103)\n            tag_104:\n              dup3\n              add\n              swap2\n              swap1\n              0x00\n              mstore\n              keccak256(0x00, 0x20)\n              swap1\n            tag_105:\n              dup2\n              sload\n              dup2\n              mstore\n              swap1\n              0x01\n              add\n              swap1\n              0x20\n              add\n              dup1\n              dup4\n              gt\n              tag_105\n              jumpi\n              dup3\n              swap1\n              sub\n              0x1f\n              and\n              dup3\n              add\n              swap2\n            tag_103:\n              pop\n              pop\n              pop\n              pop\n              pop\n              swap1\n              dup1\n              0x01\n              add\n              sload\n              swap1\n              dup1\n              0x02\n              add\n              0x00\n              swap1\n              sload\n              swap1\n              0x0100\n              exp\n              swap1\n              div\n              0xffffffffffffffffffffffffffffffffffffffff\n              and\n              swap1\n              dup1\n              0x04\n              add\n              sload\n              swap1\n              dup1\n              0x05\n              add\n              0x00\n              swap1\n              sload\n              swap1\n              0x0100\n              exp\n              swap1\n              div\n              0xff\n              and\n              swap1\n              pop\n              dup6\n              jump\t// out\n                /* \"Campaign.sol\":334:363  uint256 public approversCount */\n            tag_53:\n              sload(0x08)\n              dup2\n              jump\t// out\n                /* \"Campaign.sol\":1355:1478  function contribute() public payable newContributor {... */\n            tag_56:\n                /* \"Campaign.sol\":2965:2980  minContribution */\n              sload(0x01)\n                /* \"Campaign.sol\":2952:2961  msg.value */\n              callvalue\n                /* \"Campaign.sol\":2952:2980  msg.value >= minContribution */\n              lt\n              iszero\n                /* \"Campaign.sol\":2944:2981  require(msg.value >= minContribution) */\n              tag_107\n              jumpi\n              0x00\n              dup1\n              revert\n            tag_107:\n                /* \"Campaign.sol\":3000:3009  approvers */\n              0x07\n                /* \"Campaign.sol\":3000:3021  approvers[msg.sender] */\n              0x00\n                /* \"Campaign.sol\":3010:3020  msg.sender */\n              caller\n                /* \"Campaign.sol\":3000:3021  approvers[msg.sender] */\n              0xffffffffffffffffffffffffffffffffffffffff\n              and\n              0xffffffffffffffffffffffffffffffffffffffff\n              and\n              dup2\n              mstore\n              0x20\n              add\n              swap1\n              dup2\n              mstore\n              0x20\n              add\n              0x00\n              keccak256\n              0x00\n              swap1\n              sload\n              swap1\n              0x0100\n              exp\n              swap1\n              div\n              0xff\n              and\n                /* \"Campaign.sol\":2999:3021  !approvers[msg.sender] */\n              iszero\n                /* \"Campaign.sol\":2991:3022  require(!approvers[msg.sender]) */\n              tag_108\n              jumpi\n              0x00\n              dup1\n              revert\n            tag_108:\n                /* \"Campaign.sol\":1441:1445  true */\n              0x01\n                /* \"Campaign.sol\":1417:1426  approvers */\n              0x07\n                /* \"Campaign.sol\":1417:1438  approvers[msg.sender] */\n              0x00\n                /* \"Campaign.sol\":1427:1437  msg.sender */\n              caller\n                /* \"Campaign.sol\":1417:1438  approvers[msg.sender] */\n              0xffffffffffffffffffffffffffffffffffffffff\n              and\n              0xffffffffffffffffffffffffffffffffffffffff\n              and\n              dup2\n              mstore\n              0x20\n              add\n              swap1\n              dup2\n              mstore\n              0x20\n              add\n              0x00\n              keccak256\n              0x00\n                /* \"Campaign.sol\":1417:1445  approvers[msg.sender] = true */\n              0x0100\n              exp\n              dup2\n              sload\n              dup2\n              0xff\n              mul\n              not\n              and\n              swap1\n              dup4\n              iszero\n              iszero\n              mul\n              or\n              swap1\n              sstore\n              pop\n                /* \"Campaign.sol\":1455:1469  approversCount */\n              0x08\n              0x00\n                /* \"Campaign.sol\":1455:1471  approversCount++ */\n              dup2\n              sload\n              dup1\n              swap3\n              swap2\n              swap1\n              tag_110\n              swap1\n              tag_74\n              jump\t// in\n            tag_110:\n              swap2\n              swap1\n              pop\n              sstore\n              pop\n                /* \"Campaign.sol\":1355:1478  function contribute() public payable newContributor {... */\n              jump\t// out\n                /* \"Campaign.sol\":2260:2512  function approveRequest(uint256 index) public contributor {... */\n            tag_60:\n                /* \"Campaign.sol\":3091:3100  approvers */\n              0x07\n                /* \"Campaign.sol\":3091:3112  approvers[msg.sender] */\n              0x00\n                /* \"Campaign.sol\":3101:3111  msg.sender */\n              caller\n                /* \"Campaign.sol\":3091:3112  approvers[msg.sender] */\n              0xffffffffffffffffffffffffffffffffffffffff\n              and\n              0xffffffffffffffffffffffffffffffffffffffff\n              and\n              dup2\n              mstore\n              0x20\n              add\n              swap1\n              dup2\n              mstore\n              0x20\n              add\n              0x00\n              keccak256\n              0x00\n              swap1\n              sload\n              swap1\n              0x0100\n              exp\n              swap1\n              div\n              0xff\n              and\n                /* \"Campaign.sol\":3083:3113  require(approvers[msg.sender]) */\n              tag_112\n              jumpi\n              0x00\n              dup1\n              revert\n            tag_112:\n                /* \"Campaign.sol\":2328:2353  Types.Request storage req */\n              0x00\n                /* \"Campaign.sol\":2356:2364  requests */\n              0x05\n                /* \"Campaign.sol\":2356:2371  requests[index] */\n              0x00\n                /* \"Campaign.sol\":2365:2370  index */\n              dup4\n                /* \"Campaign.sol\":2356:2371  requests[index] */\n              dup2\n              mstore\n              0x20\n              add\n              swap1\n              dup2\n              mstore\n              0x20\n              add\n              0x00\n              keccak256\n                /* \"Campaign.sol\":2328:2371  Types.Request storage req = requests[index] */\n              swap1\n              pop\n                /* \"Campaign.sol\":2399:2402  req */\n              dup1\n                /* \"Campaign.sol\":2399:2412  req.approvals */\n              0x03\n              add\n                /* \"Campaign.sol\":2399:2424  req.approvals[msg.sender] */\n              0x00\n                /* \"Campaign.sol\":2413:2423  msg.sender */\n              caller\n                /* \"Campaign.sol\":2399:2424  req.approvals[msg.sender] */\n              0xffffffffffffffffffffffffffffffffffffffff\n              and\n              0xffffffffffffffffffffffffffffffffffffffff\n              and\n              dup2\n              mstore\n              0x20\n              add\n              swap1\n              dup2\n              mstore\n              0x20\n              add\n              0x00\n              keccak256\n              0x00\n              swap1\n              sload\n              swap1\n              0x0100\n              exp\n              swap1\n              div\n              0xff\n              and\n                /* \"Campaign.sol\":2398:2424  !req.approvals[msg.sender] */\n              iszero\n                /* \"Campaign.sol\":2390:2425  require(!req.approvals[msg.sender]) */\n              tag_114\n              jumpi\n              0x00\n              dup1\n              revert\n            tag_114:\n                /* \"Campaign.sol\":2472:2476  true */\n              0x01\n                /* \"Campaign.sol\":2444:2447  req */\n              dup2\n                /* \"Campaign.sol\":2444:2457  req.approvals */\n              0x03\n              add\n                /* \"Campaign.sol\":2444:2469  req.approvals[msg.sender] */\n              0x00\n                /* \"Campaign.sol\":2458:2468  msg.sender */\n              caller\n                /* \"Campaign.sol\":2444:2469  req.approvals[msg.sender] */\n              0xffffffffffffffffffffffffffffffffffffffff\n              and\n              0xffffffffffffffffffffffffffffffffffffffff\n              and\n              dup2\n              mstore\n              0x20\n              add\n              swap1\n              dup2\n              mstore\n              0x20\n              add\n              0x00\n              keccak256\n              0x00\n                /* \"Campaign.sol\":2444:2476  req.approvals[msg.sender] = true */\n              0x0100\n              exp\n              dup2\n              sload\n              dup2\n              0xff\n              mul\n              not\n              and\n              swap1\n              dup4\n              iszero\n              iszero\n              mul\n              or\n              swap1\n              sstore\n              pop\n                /* \"Campaign.sol\":2486:2489  req */\n              dup1\n                /* \"Campaign.sol\":2486:2503  req.approvalCount */\n              0x04\n              add\n              0x00\n                /* \"Campaign.sol\":2486:2505  req.approvalCount++ */\n              dup2\n              sload\n              dup1\n              swap3\n              swap2\n              swap1\n              tag_115\n              swap1\n              tag_74\n              jump\t// in\n            tag_115:\n              swap2\n              swap1\n              pop\n              sstore\n              pop\n                /* \"Campaign.sol\":2318:2512  {... */\n              pop\n                /* \"Campaign.sol\":2260:2512  function approveRequest(uint256 index) public contributor {... */\n              pop\n              jump\t// out\n            tag_76:\n              dup3\n              dup1\n              sload\n              tag_116\n              swap1\n              tag_81\n              jump\t// in\n            tag_116:\n              swap1\n              0x00\n              mstore\n              keccak256(0x00, 0x20)\n              swap1\n              0x1f\n              add\n              0x20\n              swap1\n              div\n              dup2\n              add\n              swap3\n              dup3\n              tag_118\n              jumpi\n              0x00\n              dup6\n              sstore\n              jump(tag_117)\n            tag_118:\n              dup3\n              0x1f\n              lt\n              tag_119\n              jumpi\n              dup1\n              mload\n              not(0xff)\n              and\n              dup4\n              dup1\n              add\n              or\n              dup6\n              sstore\n              jump(tag_117)\n            tag_119:\n              dup3\n              dup1\n              add\n              0x01\n              add\n              dup6\n              sstore\n              dup3\n              iszero\n              tag_117\n              jumpi\n              swap2\n              dup3\n              add\n            tag_120:\n              dup3\n              dup2\n              gt\n              iszero\n              tag_121\n              jumpi\n              dup3\n              mload\n              dup3\n              sstore\n              swap2\n              0x20\n              add\n              swap2\n              swap1\n              0x01\n              add\n              swap1\n              jump(tag_120)\n            tag_121:\n            tag_117:\n              pop\n              swap1\n              pop\n              tag_122\n              swap2\n              swap1\n              tag_123\n              jump\t// in\n            tag_122:\n              pop\n              swap1\n              jump\t// out\n            tag_123:\n            tag_124:\n              dup1\n              dup3\n              gt\n              iszero\n              tag_125\n              jumpi\n              0x00\n              dup2\n              0x00\n              swap1\n              sstore\n              pop\n              0x01\n              add\n              jump(tag_124)\n            tag_125:\n              pop\n              swap1\n              jump\t// out\n                /* \"#utility.yul\":7:419   */\n            tag_127:\n                /* \"#utility.yul\":85:90   */\n              0x00\n                /* \"#utility.yul\":110:176   */\n              tag_129\n                /* \"#utility.yul\":126:175   */\n              tag_130\n                /* \"#utility.yul\":168:174   */\n              dup5\n                /* \"#utility.yul\":126:175   */\n              tag_131\n              jump\t// in\n            tag_130:\n                /* \"#utility.yul\":110:176   */\n              tag_132\n              jump\t// in\n            tag_129:\n                /* \"#utility.yul\":101:176   */\n              swap1\n              pop\n                /* \"#utility.yul\":199:205   */\n              dup3\n                /* \"#utility.yul\":192:197   */\n              dup2\n                /* \"#utility.yul\":185:206   */\n              mstore\n                /* \"#utility.yul\":237:241   */\n              0x20\n                /* \"#utility.yul\":230:235   */\n              dup2\n                /* \"#utility.yul\":226:242   */\n              add\n                /* \"#utility.yul\":275:278   */\n              dup5\n                /* \"#utility.yul\":266:272   */\n              dup5\n                /* \"#utility.yul\":261:264   */\n              dup5\n                /* \"#utility.yul\":257:273   */\n              add\n                /* \"#utility.yul\":254:279   */\n              gt\n                /* \"#utility.yul\":251:253   */\n              iszero\n              tag_133\n              jumpi\n                /* \"#utility.yul\":282:361   */\n              tag_134\n              tag_135\n              jump\t// in\n            tag_134:\n                /* \"#utility.yul\":251:253   */\n            tag_133:\n                /* \"#utility.yul\":372:413   */\n              tag_136\n                /* \"#utility.yul\":406:412   */\n              dup5\n                /* \"#utility.yul\":401:404   */\n              dup3\n                /* \"#utility.yul\":396:399   */\n              dup6\n                /* \"#utility.yul\":372:413   */\n              tag_137\n              jump\t// in\n            tag_136:\n                /* \"#utility.yul\":91:419   */\n              pop\n              swap4\n              swap3\n              pop\n              pop\n              pop\n              jump\t// out\n                /* \"#utility.yul\":425:564   */\n            tag_138:\n                /* \"#utility.yul\":471:476   */\n              0x00\n                /* \"#utility.yul\":509:515   */\n              dup2\n                /* \"#utility.yul\":496:516   */\n              calldataload\n                /* \"#utility.yul\":487:516   */\n              swap1\n              pop\n                /* \"#utility.yul\":525:558   */\n              tag_140\n                /* \"#utility.yul\":552:557   */\n              dup2\n                /* \"#utility.yul\":525:558   */\n              tag_141\n              jump\t// in\n            tag_140:\n                /* \"#utility.yul\":477:564   */\n              swap3\n              swap2\n              pop\n              pop\n              jump\t// out\n                /* \"#utility.yul\":570:725   */\n            tag_142:\n                /* \"#utility.yul\":624:629   */\n              0x00\n                /* \"#utility.yul\":662:668   */\n              dup2\n                /* \"#utility.yul\":649:669   */\n              calldataload\n                /* \"#utility.yul\":640:669   */\n              swap1\n              pop\n                /* \"#utility.yul\":678:719   */\n              tag_144\n                /* \"#utility.yul\":713:718   */\n              dup2\n                /* \"#utility.yul\":678:719   */\n              tag_145\n              jump\t// in\n            tag_144:\n                /* \"#utility.yul\":630:725   */\n              swap3\n              swap2\n              pop\n              pop\n              jump\t// out\n                /* \"#utility.yul\":745:1085   */\n            tag_146:\n                /* \"#utility.yul\":801:806   */\n              0x00\n                /* \"#utility.yul\":850:853   */\n              dup3\n                /* \"#utility.yul\":843:847   */\n              0x1f\n                /* \"#utility.yul\":835:841   */\n              dup4\n                /* \"#utility.yul\":831:848   */\n              add\n                /* \"#utility.yul\":827:854   */\n              slt\n                /* \"#utility.yul\":817:819   */\n              tag_148\n              jumpi\n                /* \"#utility.yul\":858:937   */\n              tag_149\n              tag_150\n              jump\t// in\n            tag_149:\n                /* \"#utility.yul\":817:819   */\n            tag_148:\n                /* \"#utility.yul\":975:981   */\n              dup2\n                /* \"#utility.yul\":962:982   */\n              calldataload\n                /* \"#utility.yul\":1000:1079   */\n              tag_151\n                /* \"#utility.yul\":1075:1078   */\n              dup5\n                /* \"#utility.yul\":1067:1073   */\n              dup3\n                /* \"#utility.yul\":1060:1064   */\n              0x20\n                /* \"#utility.yul\":1052:1058   */\n              dup7\n                /* \"#utility.yul\":1048:1065   */\n              add\n                /* \"#utility.yul\":1000:1079   */\n              tag_127\n              jump\t// in\n            tag_151:\n                /* \"#utility.yul\":991:1079   */\n              swap2\n              pop\n                /* \"#utility.yul\":807:1085   */\n              pop\n              swap3\n              swap2\n              pop\n              pop\n              jump\t// out\n                /* \"#utility.yul\":1091:1230   */\n            tag_152:\n                /* \"#utility.yul\":1137:1142   */\n              0x00\n                /* \"#utility.yul\":1175:1181   */\n              dup2\n                /* \"#utility.yul\":1162:1182   */\n              calldataload\n                /* \"#utility.yul\":1153:1182   */\n              swap1\n              pop\n                /* \"#utility.yul\":1191:1224   */\n              tag_154\n                /* \"#utility.yul\":1218:1223   */\n              dup2\n                /* \"#utility.yul\":1191:1224   */\n              tag_155\n              jump\t// in\n            tag_154:\n                /* \"#utility.yul\":1143:1230   */\n              swap3\n              swap2\n              pop\n              pop\n              jump\t// out\n                /* \"#utility.yul\":1236:1565   */\n            tag_26:\n                /* \"#utility.yul\":1295:1301   */\n              0x00\n                /* \"#utility.yul\":1344:1346   */\n              0x20\n                /* \"#utility.yul\":1332:1341   */\n              dup3\n                /* \"#utility.yul\":1323:1330   */\n              dup5\n                /* \"#utility.yul\":1319:1342   */\n              sub\n                /* \"#utility.yul\":1315:1347   */\n              slt\n                /* \"#utility.yul\":1312:1314   */\n              iszero\n              tag_157\n              jumpi\n                /* \"#utility.yul\":1350:1429   */\n              tag_158\n              tag_159\n              jump\t// in\n            tag_158:\n                /* \"#utility.yul\":1312:1314   */\n            tag_157:\n                /* \"#utility.yul\":1470:1471   */\n              0x00\n                /* \"#utility.yul\":1495:1548   */\n              tag_160\n                /* \"#utility.yul\":1540:1547   */\n              dup5\n                /* \"#utility.yul\":1531:1537   */\n              dup3\n                /* \"#utility.yul\":1520:1529   */\n              dup6\n                /* \"#utility.yul\":1516:1538   */\n              add\n                /* \"#utility.yul\":1495:1548   */\n              tag_138\n              jump\t// in\n            tag_160:\n                /* \"#utility.yul\":1485:1548   */\n              swap2\n              pop\n                /* \"#utility.yul\":1441:1558   */\n              pop\n                /* \"#utility.yul\":1302:1565   */\n              swap3\n              swap2\n              pop\n              pop\n              jump\t// out\n                /* \"#utility.yul\":1571:2386   */\n            tag_21:\n                /* \"#utility.yul\":1666:1672   */\n              0x00\n                /* \"#utility.yul\":1674:1680   */\n              dup1\n                /* \"#utility.yul\":1682:1688   */\n              0x00\n                /* \"#utility.yul\":1731:1733   */\n              0x60\n                /* \"#utility.yul\":1719:1728   */\n              dup5\n                /* \"#utility.yul\":1710:1717   */\n              dup7\n                /* \"#utility.yul\":1706:1729   */\n              sub\n                /* \"#utility.yul\":1702:1734   */\n              slt\n                /* \"#utility.yul\":1699:1701   */\n              iszero\n              tag_162\n              jumpi\n                /* \"#utility.yul\":1737:1816   */\n              tag_163\n              tag_159\n              jump\t// in\n            tag_163:\n                /* \"#utility.yul\":1699:1701   */\n            tag_162:\n                /* \"#utility.yul\":1885:1886   */\n              0x00\n                /* \"#utility.yul\":1874:1883   */\n              dup5\n                /* \"#utility.yul\":1870:1887   */\n              add\n                /* \"#utility.yul\":1857:1888   */\n              calldataload\n                /* \"#utility.yul\":1915:1933   */\n              0xffffffffffffffff\n                /* \"#utility.yul\":1907:1913   */\n              dup2\n                /* \"#utility.yul\":1904:1934   */\n              gt\n                /* \"#utility.yul\":1901:1903   */\n              iszero\n              tag_164\n              jumpi\n                /* \"#utility.yul\":1937:2016   */\n              tag_165\n              tag_166\n              jump\t// in\n            tag_165:\n                /* \"#utility.yul\":1901:1903   */\n            tag_164:\n                /* \"#utility.yul\":2042:2105   */\n              tag_167\n                /* \"#utility.yul\":2097:2104   */\n              dup7\n                /* \"#utility.yul\":2088:2094   */\n              dup3\n                /* \"#utility.yul\":2077:2086   */\n              dup8\n                /* \"#utility.yul\":2073:2095   */\n              add\n                /* \"#utility.yul\":2042:2105   */\n              tag_146\n              jump\t// in\n            tag_167:\n                /* \"#utility.yul\":2032:2105   */\n              swap4\n              pop\n                /* \"#utility.yul\":1828:2115   */\n              pop\n                /* \"#utility.yul\":2154:2156   */\n              0x20\n                /* \"#utility.yul\":2180:2241   */\n              tag_168\n                /* \"#utility.yul\":2233:2240   */\n              dup7\n                /* \"#utility.yul\":2224:2230   */\n              dup3\n                /* \"#utility.yul\":2213:2222   */\n              dup8\n                /* \"#utility.yul\":2209:2231   */\n              add\n                /* \"#utility.yul\":2180:2241   */\n              tag_142\n              jump\t// in\n            tag_168:\n                /* \"#utility.yul\":2170:2241   */\n              swap3\n              pop\n                /* \"#utility.yul\":2125:2251   */\n              pop\n                /* \"#utility.yul\":2290:2292   */\n              0x40\n                /* \"#utility.yul\":2316:2369   */\n              tag_169\n                /* \"#utility.yul\":2361:2368   */\n              dup7\n                /* \"#utility.yul\":2352:2358   */\n              dup3\n                /* \"#utility.yul\":2341:2350   */\n              dup8\n                /* \"#utility.yul\":2337:2359   */\n              add\n                /* \"#utility.yul\":2316:2369   */\n              tag_152\n              jump\t// in\n            tag_169:\n                /* \"#utility.yul\":2306:2369   */\n              swap2\n              pop\n                /* \"#utility.yul\":2261:2379   */\n              pop\n                /* \"#utility.yul\":1689:2386   */\n              swap3\n              pop\n              swap3\n              pop\n              swap3\n              jump\t// out\n                /* \"#utility.yul\":2392:3697   */\n            tag_43:\n                /* \"#utility.yul\":2508:2514   */\n              0x00\n                /* \"#utility.yul\":2516:2522   */\n              dup1\n                /* \"#utility.yul\":2524:2530   */\n              0x00\n                /* \"#utility.yul\":2532:2538   */\n              dup1\n                /* \"#utility.yul\":2581:2584   */\n              0x80\n                /* \"#utility.yul\":2569:2578   */\n              dup6\n                /* \"#utility.yul\":2560:2567   */\n              dup8\n                /* \"#utility.yul\":2556:2579   */\n              sub\n                /* \"#utility.yul\":2552:2585   */\n              slt\n                /* \"#utility.yul\":2549:2551   */\n              iszero\n              tag_171\n              jumpi\n                /* \"#utility.yul\":2588:2667   */\n              tag_172\n              tag_159\n              jump\t// in\n            tag_172:\n                /* \"#utility.yul\":2549:2551   */\n            tag_171:\n                /* \"#utility.yul\":2736:2737   */\n              0x00\n                /* \"#utility.yul\":2725:2734   */\n              dup6\n                /* \"#utility.yul\":2721:2738   */\n              add\n                /* \"#utility.yul\":2708:2739   */\n              calldataload\n                /* \"#utility.yul\":2766:2784   */\n              0xffffffffffffffff\n                /* \"#utility.yul\":2758:2764   */\n              dup2\n                /* \"#utility.yul\":2755:2785   */\n              gt\n                /* \"#utility.yul\":2752:2754   */\n              iszero\n              tag_173\n              jumpi\n                /* \"#utility.yul\":2788:2867   */\n              tag_174\n              tag_166\n              jump\t// in\n            tag_174:\n                /* \"#utility.yul\":2752:2754   */\n            tag_173:\n                /* \"#utility.yul\":2893:2956   */\n              tag_175\n                /* \"#utility.yul\":2948:2955   */\n              dup8\n                /* \"#utility.yul\":2939:2945   */\n              dup3\n                /* \"#utility.yul\":2928:2937   */\n              dup9\n                /* \"#utility.yul\":2924:2946   */\n              add\n                /* \"#utility.yul\":2893:2956   */\n              tag_146\n              jump\t// in\n            tag_175:\n                /* \"#utility.yul\":2883:2956   */\n              swap5\n              pop\n                /* \"#utility.yul\":2679:2966   */\n              pop\n                /* \"#utility.yul\":3033:3035   */\n              0x20\n                /* \"#utility.yul\":3022:3031   */\n              dup6\n                /* \"#utility.yul\":3018:3036   */\n              add\n                /* \"#utility.yul\":3005:3037   */\n              calldataload\n                /* \"#utility.yul\":3064:3082   */\n              0xffffffffffffffff\n                /* \"#utility.yul\":3056:3062   */\n              dup2\n                /* \"#utility.yul\":3053:3083   */\n              gt\n                /* \"#utility.yul\":3050:3052   */\n              iszero\n              tag_176\n              jumpi\n                /* \"#utility.yul\":3086:3165   */\n              tag_177\n              tag_166\n              jump\t// in\n            tag_177:\n                /* \"#utility.yul\":3050:3052   */\n            tag_176:\n                /* \"#utility.yul\":3191:3254   */\n              tag_178\n                /* \"#utility.yul\":3246:3253   */\n              dup8\n                /* \"#utility.yul\":3237:3243   */\n              dup3\n                /* \"#utility.yul\":3226:3235   */\n              dup9\n                /* \"#utility.yul\":3222:3244   */\n              add\n                /* \"#utility.yul\":3191:3254   */\n              tag_146\n              jump\t// in\n            tag_178:\n                /* \"#utility.yul\":3181:3254   */\n              swap4\n              pop\n                /* \"#utility.yul\":2976:3264   */\n              pop\n                /* \"#utility.yul\":3331:3333   */\n              0x40\n                /* \"#utility.yul\":3320:3329   */\n              dup6\n                /* \"#utility.yul\":3316:3334   */\n              add\n                /* \"#utility.yul\":3303:3335   */\n              calldataload\n                /* \"#utility.yul\":3362:3380   */\n              0xffffffffffffffff\n                /* \"#utility.yul\":3354:3360   */\n              dup2\n                /* \"#utility.yul\":3351:3381   */\n              gt\n                /* \"#utility.yul\":3348:3350   */\n              iszero\n              tag_179\n              jumpi\n                /* \"#utility.yul\":3384:3463   */\n              tag_180\n              tag_166\n              jump\t// in\n            tag_180:\n                /* \"#utility.yul\":3348:3350   */\n            tag_179:\n                /* \"#utility.yul\":3489:3552   */\n              tag_181\n                /* \"#utility.yul\":3544:3551   */\n              dup8\n                /* \"#utility.yul\":3535:3541   */\n              dup3\n                /* \"#utility.yul\":3524:3533   */\n              dup9\n                /* \"#utility.yul\":3520:3542   */\n              add\n                /* \"#utility.yul\":3489:3552   */\n              tag_146\n              jump\t// in\n            tag_181:\n                /* \"#utility.yul\":3479:3552   */\n              swap3\n              pop\n                /* \"#utility.yul\":3274:3562   */\n              pop\n                /* \"#utility.yul\":3601:3603   */\n              0x60\n                /* \"#utility.yul\":3627:3680   */\n              tag_182\n                /* \"#utility.yul\":3672:3679   */\n              dup8\n                /* \"#utility.yul\":3663:3669   */\n              dup3\n                /* \"#utility.yul\":3652:3661   */\n              dup9\n                /* \"#utility.yul\":3648:3670   */\n              add\n                /* \"#utility.yul\":3627:3680   */\n              tag_138\n              jump\t// in\n            tag_182:\n                /* \"#utility.yul\":3617:3680   */\n              swap2\n              pop\n                /* \"#utility.yul\":3572:3690   */\n              pop\n                /* \"#utility.yul\":2539:3697   */\n              swap3\n              swap6\n              swap2\n              swap5\n              pop\n              swap3\n              pop\n              jump\t// out\n                /* \"#utility.yul\":3703:4032   */\n            tag_16:\n                /* \"#utility.yul\":3762:3768   */\n              0x00\n                /* \"#utility.yul\":3811:3813   */\n              0x20\n                /* \"#utility.yul\":3799:3808   */\n              dup3\n                /* \"#utility.yul\":3790:3797   */\n              dup5\n                /* \"#utility.yul\":3786:3809   */\n              sub\n                /* \"#utility.yul\":3782:3814   */\n              slt\n                /* \"#utility.yul\":3779:3781   */\n              iszero\n              tag_184\n              jumpi\n                /* \"#utility.yul\":3817:3896   */\n              tag_185\n              tag_159\n              jump\t// in\n            tag_185:\n                /* \"#utility.yul\":3779:3781   */\n            tag_184:\n                /* \"#utility.yul\":3937:3938   */\n              0x00\n                /* \"#utility.yul\":3962:4015   */\n              tag_186\n                /* \"#utility.yul\":4007:4014   */\n              dup5\n                /* \"#utility.yul\":3998:4004   */\n              dup3\n                /* \"#utility.yul\":3987:3996   */\n              dup6\n                /* \"#utility.yul\":3983:4005   */\n              add\n                /* \"#utility.yul\":3962:4015   */\n              tag_152\n              jump\t// in\n            tag_186:\n                /* \"#utility.yul\":3952:4015   */\n              swap2\n              pop\n                /* \"#utility.yul\":3908:4025   */\n              pop\n                /* \"#utility.yul\":3769:4032   */\n              swap3\n              swap2\n              pop\n              pop\n              jump\t// out\n                /* \"#utility.yul\":4038:4180   */\n            tag_187:\n                /* \"#utility.yul\":4141:4173   */\n              tag_189\n                /* \"#utility.yul\":4167:4172   */\n              dup2\n                /* \"#utility.yul\":4141:4173   */\n              tag_190\n              jump\t// in\n            tag_189:\n                /* \"#utility.yul\":4136:4139   */\n              dup3\n                /* \"#utility.yul\":4129:4174   */\n              mstore\n                /* \"#utility.yul\":4119:4180   */\n              pop\n              pop\n              jump\t// out\n                /* \"#utility.yul\":4186:4304   */\n            tag_191:\n                /* \"#utility.yul\":4273:4297   */\n              tag_193\n                /* \"#utility.yul\":4291:4296   */\n              dup2\n                /* \"#utility.yul\":4273:4297   */\n              tag_194\n              jump\t// in\n            tag_193:\n                /* \"#utility.yul\":4268:4271   */\n              dup3\n                /* \"#utility.yul\":4261:4298   */\n              mstore\n                /* \"#utility.yul\":4251:4304   */\n              pop\n              pop\n              jump\t// out\n                /* \"#utility.yul\":4310:4419   */\n            tag_195:\n                /* \"#utility.yul\":4391:4412   */\n              tag_197\n                /* \"#utility.yul\":4406:4411   */\n              dup2\n                /* \"#utility.yul\":4391:4412   */\n              tag_198\n              jump\t// in\n            tag_197:\n                /* \"#utility.yul\":4386:4389   */\n              dup3\n                /* \"#utility.yul\":4379:4413   */\n              mstore\n                /* \"#utility.yul\":4369:4419   */\n              pop\n              pop\n              jump\t// out\n                /* \"#utility.yul\":4425:4789   */\n            tag_199:\n                /* \"#utility.yul\":4513:4516   */\n              0x00\n                /* \"#utility.yul\":4541:4580   */\n              tag_201\n                /* \"#utility.yul\":4574:4579   */\n              dup3\n                /* \"#utility.yul\":4541:4580   */\n              tag_202\n              jump\t// in\n            tag_201:\n                /* \"#utility.yul\":4596:4667   */\n              tag_203\n                /* \"#utility.yul\":4660:4666   */\n              dup2\n                /* \"#utility.yul\":4655:4658   */\n              dup6\n                /* \"#utility.yul\":4596:4667   */\n              tag_204\n              jump\t// in\n            tag_203:\n                /* \"#utility.yul\":4589:4667   */\n              swap4\n              pop\n                /* \"#utility.yul\":4676:4728   */\n              tag_205\n                /* \"#utility.yul\":4721:4727   */\n              dup2\n                /* \"#utility.yul\":4716:4719   */\n              dup6\n                /* \"#utility.yul\":4709:4713   */\n              0x20\n                /* \"#utility.yul\":4702:4707   */\n              dup7\n                /* \"#utility.yul\":4698:4714   */\n              add\n                /* \"#utility.yul\":4676:4728   */\n              tag_206\n              jump\t// in\n            tag_205:\n                /* \"#utility.yul\":4753:4782   */\n              tag_207\n                /* \"#utility.yul\":4775:4781   */\n              dup2\n                /* \"#utility.yul\":4753:4782   */\n              tag_208\n              jump\t// in\n            tag_207:\n                /* \"#utility.yul\":4748:4751   */\n              dup5\n                /* \"#utility.yul\":4744:4783   */\n              add\n                /* \"#utility.yul\":4737:4783   */\n              swap2\n              pop\n                /* \"#utility.yul\":4517:4789   */\n              pop\n              swap3\n              swap2\n              pop\n              pop\n              jump\t// out\n                /* \"#utility.yul\":4795:4913   */\n            tag_209:\n                /* \"#utility.yul\":4882:4906   */\n              tag_211\n                /* \"#utility.yul\":4900:4905   */\n              dup2\n                /* \"#utility.yul\":4882:4906   */\n              tag_212\n              jump\t// in\n            tag_211:\n                /* \"#utility.yul\":4877:4880   */\n              dup3\n                /* \"#utility.yul\":4870:4907   */\n              mstore\n                /* \"#utility.yul\":4860:4913   */\n              pop\n              pop\n              jump\t// out\n                /* \"#utility.yul\":4919:5129   */\n            tag_29:\n                /* \"#utility.yul\":5006:5010   */\n              0x00\n                /* \"#utility.yul\":5044:5046   */\n              0x20\n                /* \"#utility.yul\":5033:5042   */\n              dup3\n                /* \"#utility.yul\":5029:5047   */\n              add\n                /* \"#utility.yul\":5021:5047   */\n              swap1\n              pop\n                /* \"#utility.yul\":5057:5122   */\n              tag_214\n                /* \"#utility.yul\":5119:5120   */\n              0x00\n                /* \"#utility.yul\":5108:5117   */\n              dup4\n                /* \"#utility.yul\":5104:5121   */\n              add\n                /* \"#utility.yul\":5095:5101   */\n              dup5\n                /* \"#utility.yul\":5057:5122   */\n              tag_195\n              jump\t// in\n            tag_214:\n                /* \"#utility.yul\":5011:5129   */\n              swap3\n              swap2\n              pop\n              pop\n              jump\t// out\n                /* \"#utility.yul\":5135:5910   */\n            tag_50:\n                /* \"#utility.yul\":5370:5374   */\n              0x00\n                /* \"#utility.yul\":5408:5411   */\n              0xa0\n                /* \"#utility.yul\":5397:5406   */\n              dup3\n                /* \"#utility.yul\":5393:5412   */\n              add\n                /* \"#utility.yul\":5385:5412   */\n              swap1\n              pop\n                /* \"#utility.yul\":5458:5467   */\n              dup2\n                /* \"#utility.yul\":5452:5456   */\n              dup2\n                /* \"#utility.yul\":5448:5468   */\n              sub\n                /* \"#utility.yul\":5444:5445   */\n              0x00\n                /* \"#utility.yul\":5433:5442   */\n              dup4\n                /* \"#utility.yul\":5429:5446   */\n              add\n                /* \"#utility.yul\":5422:5469   */\n              mstore\n                /* \"#utility.yul\":5486:5564   */\n              tag_216\n                /* \"#utility.yul\":5559:5563   */\n              dup2\n                /* \"#utility.yul\":5550:5556   */\n              dup9\n                /* \"#utility.yul\":5486:5564   */\n              tag_199\n              jump\t// in\n            tag_216:\n                /* \"#utility.yul\":5478:5564   */\n              swap1\n              pop\n                /* \"#utility.yul\":5574:5646   */\n              tag_217\n                /* \"#utility.yul\":5642:5644   */\n              0x20\n                /* \"#utility.yul\":5631:5640   */\n              dup4\n                /* \"#utility.yul\":5627:5645   */\n              add\n                /* \"#utility.yul\":5618:5624   */\n              dup8\n                /* \"#utility.yul\":5574:5646   */\n              tag_209\n              jump\t// in\n            tag_217:\n                /* \"#utility.yul\":5656:5744   */\n              tag_218\n                /* \"#utility.yul\":5740:5742   */\n              0x40\n                /* \"#utility.yul\":5729:5738   */\n              dup4\n                /* \"#utility.yul\":5725:5743   */\n              add\n                /* \"#utility.yul\":5716:5722   */\n              dup7\n                /* \"#utility.yul\":5656:5744   */\n              tag_187\n              jump\t// in\n            tag_218:\n                /* \"#utility.yul\":5754:5826   */\n              tag_219\n                /* \"#utility.yul\":5822:5824   */\n              0x60\n                /* \"#utility.yul\":5811:5820   */\n              dup4\n                /* \"#utility.yul\":5807:5825   */\n              add\n                /* \"#utility.yul\":5798:5804   */\n              dup6\n                /* \"#utility.yul\":5754:5826   */\n              tag_209\n              jump\t// in\n            tag_219:\n                /* \"#utility.yul\":5836:5903   */\n              tag_220\n                /* \"#utility.yul\":5898:5901   */\n              0x80\n                /* \"#utility.yul\":5887:5896   */\n              dup4\n                /* \"#utility.yul\":5883:5902   */\n              add\n                /* \"#utility.yul\":5874:5880   */\n              dup5\n                /* \"#utility.yul\":5836:5903   */\n              tag_195\n              jump\t// in\n            tag_220:\n                /* \"#utility.yul\":5375:5910   */\n              swap7\n              swap6\n              pop\n              pop\n              pop\n              pop\n              pop\n              pop\n              jump\t// out\n                /* \"#utility.yul\":5916:6138   */\n            tag_34:\n                /* \"#utility.yul\":6009:6013   */\n              0x00\n                /* \"#utility.yul\":6047:6049   */\n              0x20\n                /* \"#utility.yul\":6036:6045   */\n              dup3\n                /* \"#utility.yul\":6032:6050   */\n              add\n                /* \"#utility.yul\":6024:6050   */\n              swap1\n              pop\n                /* \"#utility.yul\":6060:6131   */\n              tag_222\n                /* \"#utility.yul\":6128:6129   */\n              0x00\n                /* \"#utility.yul\":6117:6126   */\n              dup4\n                /* \"#utility.yul\":6113:6130   */\n              add\n                /* \"#utility.yul\":6104:6110   */\n              dup5\n                /* \"#utility.yul\":6060:6131   */\n              tag_209\n              jump\t// in\n            tag_222:\n                /* \"#utility.yul\":6014:6138   */\n              swap3\n              swap2\n              pop\n              pop\n              jump\t// out\n                /* \"#utility.yul\":6144:7525   */\n            tag_39:\n                /* \"#utility.yul\":6521:6525   */\n              0x00\n                /* \"#utility.yul\":6559:6562   */\n              0x0120\n                /* \"#utility.yul\":6548:6557   */\n              dup3\n                /* \"#utility.yul\":6544:6563   */\n              add\n                /* \"#utility.yul\":6536:6563   */\n              swap1\n              pop\n                /* \"#utility.yul\":6573:6644   */\n              tag_224\n                /* \"#utility.yul\":6641:6642   */\n              0x00\n                /* \"#utility.yul\":6630:6639   */\n              dup4\n                /* \"#utility.yul\":6626:6643   */\n              add\n                /* \"#utility.yul\":6617:6623   */\n              dup13\n                /* \"#utility.yul\":6573:6644   */\n              tag_209\n              jump\t// in\n            tag_224:\n                /* \"#utility.yul\":6654:6726   */\n              tag_225\n                /* \"#utility.yul\":6722:6724   */\n              0x20\n                /* \"#utility.yul\":6711:6720   */\n              dup4\n                /* \"#utility.yul\":6707:6725   */\n              add\n                /* \"#utility.yul\":6698:6704   */\n              dup12\n                /* \"#utility.yul\":6654:6726   */\n              tag_209\n              jump\t// in\n            tag_225:\n                /* \"#utility.yul\":6736:6808   */\n              tag_226\n                /* \"#utility.yul\":6804:6806   */\n              0x40\n                /* \"#utility.yul\":6793:6802   */\n              dup4\n                /* \"#utility.yul\":6789:6807   */\n              add\n                /* \"#utility.yul\":6780:6786   */\n              dup11\n                /* \"#utility.yul\":6736:6808   */\n              tag_209\n              jump\t// in\n            tag_226:\n                /* \"#utility.yul\":6818:6890   */\n              tag_227\n                /* \"#utility.yul\":6886:6888   */\n              0x60\n                /* \"#utility.yul\":6875:6884   */\n              dup4\n                /* \"#utility.yul\":6871:6889   */\n              add\n                /* \"#utility.yul\":6862:6868   */\n              dup10\n                /* \"#utility.yul\":6818:6890   */\n              tag_209\n              jump\t// in\n            tag_227:\n                /* \"#utility.yul\":6938:6947   */\n              dup2\n                /* \"#utility.yul\":6932:6936   */\n              dup2\n                /* \"#utility.yul\":6928:6948   */\n              sub\n                /* \"#utility.yul\":6922:6925   */\n              0x80\n                /* \"#utility.yul\":6911:6920   */\n              dup4\n                /* \"#utility.yul\":6907:6926   */\n              add\n                /* \"#utility.yul\":6900:6949   */\n              mstore\n                /* \"#utility.yul\":6966:7044   */\n              tag_228\n                /* \"#utility.yul\":7039:7043   */\n              dup2\n                /* \"#utility.yul\":7030:7036   */\n              dup9\n                /* \"#utility.yul\":6966:7044   */\n              tag_199\n              jump\t// in\n            tag_228:\n                /* \"#utility.yul\":6958:7044   */\n              swap1\n              pop\n                /* \"#utility.yul\":7092:7101   */\n              dup2\n                /* \"#utility.yul\":7086:7090   */\n              dup2\n                /* \"#utility.yul\":7082:7102   */\n              sub\n                /* \"#utility.yul\":7076:7079   */\n              0xa0\n                /* \"#utility.yul\":7065:7074   */\n              dup4\n                /* \"#utility.yul\":7061:7080   */\n              add\n                /* \"#utility.yul\":7054:7103   */\n              mstore\n                /* \"#utility.yul\":7120:7198   */\n              tag_229\n                /* \"#utility.yul\":7193:7197   */\n              dup2\n                /* \"#utility.yul\":7184:7190   */\n              dup8\n                /* \"#utility.yul\":7120:7198   */\n              tag_199\n              jump\t// in\n            tag_229:\n                /* \"#utility.yul\":7112:7198   */\n              swap1\n              pop\n                /* \"#utility.yul\":7246:7255   */\n              dup2\n                /* \"#utility.yul\":7240:7244   */\n              dup2\n                /* \"#utility.yul\":7236:7256   */\n              sub\n                /* \"#utility.yul\":7230:7233   */\n              0xc0\n                /* \"#utility.yul\":7219:7228   */\n              dup4\n                /* \"#utility.yul\":7215:7234   */\n              add\n                /* \"#utility.yul\":7208:7257   */\n              mstore\n                /* \"#utility.yul\":7274:7352   */\n              tag_230\n                /* \"#utility.yul\":7347:7351   */\n              dup2\n                /* \"#utility.yul\":7338:7344   */\n              dup7\n                /* \"#utility.yul\":7274:7352   */\n              tag_199\n              jump\t// in\n            tag_230:\n                /* \"#utility.yul\":7266:7352   */\n              swap1\n              pop\n                /* \"#utility.yul\":7362:7435   */\n              tag_231\n                /* \"#utility.yul\":7430:7433   */\n              0xe0\n                /* \"#utility.yul\":7419:7428   */\n              dup4\n                /* \"#utility.yul\":7415:7434   */\n              add\n                /* \"#utility.yul\":7406:7412   */\n              dup6\n                /* \"#utility.yul\":7362:7435   */\n              tag_191\n              jump\t// in\n            tag_231:\n                /* \"#utility.yul\":7445:7518   */\n              tag_232\n                /* \"#utility.yul\":7513:7516   */\n              0x0100\n                /* \"#utility.yul\":7502:7511   */\n              dup4\n                /* \"#utility.yul\":7498:7517   */\n              add\n                /* \"#utility.yul\":7489:7495   */\n              dup5\n                /* \"#utility.yul\":7445:7518   */\n              tag_209\n              jump\t// in\n            tag_232:\n                /* \"#utility.yul\":6526:7525   */\n              swap11\n              swap10\n              pop\n              pop\n              pop\n              pop\n              pop\n              pop\n              pop\n              pop\n              pop\n              pop\n              jump\t// out\n                /* \"#utility.yul\":7531:7660   */\n            tag_132:\n                /* \"#utility.yul\":7565:7571   */\n              0x00\n                /* \"#utility.yul\":7592:7612   */\n              tag_234\n              tag_235\n              jump\t// in\n            tag_234:\n                /* \"#utility.yul\":7582:7612   */\n              swap1\n              pop\n                /* \"#utility.yul\":7621:7654   */\n              tag_236\n                /* \"#utility.yul\":7649:7653   */\n              dup3\n                /* \"#utility.yul\":7641:7647   */\n              dup3\n                /* \"#utility.yul\":7621:7654   */\n              tag_237\n              jump\t// in\n            tag_236:\n                /* \"#utility.yul\":7572:7660   */\n              swap2\n              swap1\n              pop\n              jump\t// out\n                /* \"#utility.yul\":7666:7741   */\n            tag_235:\n                /* \"#utility.yul\":7699:7705   */\n              0x00\n                /* \"#utility.yul\":7732:7734   */\n              0x40\n                /* \"#utility.yul\":7726:7735   */\n              mload\n                /* \"#utility.yul\":7716:7735   */\n              swap1\n              pop\n                /* \"#utility.yul\":7706:7741   */\n              swap1\n              jump\t// out\n                /* \"#utility.yul\":7747:8055   */\n            tag_131:\n                /* \"#utility.yul\":7809:7813   */\n              0x00\n                /* \"#utility.yul\":7899:7917   */\n              0xffffffffffffffff\n                /* \"#utility.yul\":7891:7897   */\n              dup3\n                /* \"#utility.yul\":7888:7918   */\n              gt\n                /* \"#utility.yul\":7885:7887   */\n              iszero\n              tag_240\n              jumpi\n                /* \"#utility.yul\":7921:7939   */\n              tag_241\n              tag_242\n              jump\t// in\n            tag_241:\n                /* \"#utility.yul\":7885:7887   */\n            tag_240:\n                /* \"#utility.yul\":7959:7988   */\n              tag_243\n                /* \"#utility.yul\":7981:7987   */\n              dup3\n                /* \"#utility.yul\":7959:7988   */\n              tag_208\n              jump\t// in\n            tag_243:\n                /* \"#utility.yul\":7951:7988   */\n              swap1\n              pop\n                /* \"#utility.yul\":8043:8047   */\n              0x20\n                /* \"#utility.yul\":8037:8041   */\n              dup2\n                /* \"#utility.yul\":8033:8048   */\n              add\n                /* \"#utility.yul\":8025:8048   */\n              swap1\n              pop\n                /* \"#utility.yul\":7814:8055   */\n              swap2\n              swap1\n              pop\n              jump\t// out\n                /* \"#utility.yul\":8061:8160   */\n            tag_202:\n                /* \"#utility.yul\":8113:8119   */\n              0x00\n                /* \"#utility.yul\":8147:8152   */\n              dup2\n                /* \"#utility.yul\":8141:8153   */\n              mload\n                /* \"#utility.yul\":8131:8153   */\n              swap1\n              pop\n                /* \"#utility.yul\":8120:8160   */\n              swap2\n              swap1\n              pop\n              jump\t// out\n                /* \"#utility.yul\":8166:8335   */\n            tag_204:\n                /* \"#utility.yul\":8250:8261   */\n              0x00\n                /* \"#utility.yul\":8284:8290   */\n              dup3\n                /* \"#utility.yul\":8279:8282   */\n              dup3\n                /* \"#utility.yul\":8272:8291   */\n              mstore\n                /* \"#utility.yul\":8324:8328   */\n              0x20\n                /* \"#utility.yul\":8319:8322   */\n              dup3\n                /* \"#utility.yul\":8315:8329   */\n              add\n                /* \"#utility.yul\":8300:8329   */\n              swap1\n              pop\n                /* \"#utility.yul\":8262:8335   */\n              swap3\n              swap2\n              pop\n              pop\n              jump\t// out\n                /* \"#utility.yul\":8341:8526   */\n            tag_65:\n                /* \"#utility.yul\":8381:8382   */\n              0x00\n                /* \"#utility.yul\":8398:8418   */\n              tag_247\n                /* \"#utility.yul\":8416:8417   */\n              dup3\n                /* \"#utility.yul\":8398:8418   */\n              tag_212\n              jump\t// in\n            tag_247:\n                /* \"#utility.yul\":8393:8418   */\n              swap2\n              pop\n                /* \"#utility.yul\":8432:8452   */\n              tag_248\n                /* \"#utility.yul\":8450:8451   */\n              dup4\n                /* \"#utility.yul\":8432:8452   */\n              tag_212\n              jump\t// in\n            tag_248:\n                /* \"#utility.yul\":8427:8452   */\n              swap3\n              pop\n                /* \"#utility.yul\":8471:8472   */\n              dup3\n                /* \"#utility.yul\":8461:8463   */\n              tag_249\n              jumpi\n                /* \"#utility.yul\":8476:8494   */\n              tag_250\n              tag_251\n              jump\t// in\n            tag_250:\n                /* \"#utility.yul\":8461:8463   */\n            tag_249:\n                /* \"#utility.yul\":8518:8519   */\n              dup3\n                /* \"#utility.yul\":8515:8516   */\n              dup3\n                /* \"#utility.yul\":8511:8520   */\n              div\n                /* \"#utility.yul\":8506:8520   */\n              swap1\n              pop\n                /* \"#utility.yul\":8383:8526   */\n              swap3\n              swap2\n              pop\n              pop\n              jump\t// out\n                /* \"#utility.yul\":8532:8628   */\n            tag_194:\n                /* \"#utility.yul\":8569:8576   */\n              0x00\n                /* \"#utility.yul\":8598:8622   */\n              tag_253\n                /* \"#utility.yul\":8616:8621   */\n              dup3\n                /* \"#utility.yul\":8598:8622   */\n              tag_254\n              jump\t// in\n            tag_253:\n                /* \"#utility.yul\":8587:8622   */\n              swap1\n              pop\n                /* \"#utility.yul\":8577:8628   */\n              swap2\n              swap1\n              pop\n              jump\t// out\n                /* \"#utility.yul\":8634:8738   */\n            tag_190:\n                /* \"#utility.yul\":8679:8686   */\n              0x00\n                /* \"#utility.yul\":8708:8732   */\n              tag_256\n                /* \"#utility.yul\":8726:8731   */\n              dup3\n                /* \"#utility.yul\":8708:8732   */\n              tag_254\n              jump\t// in\n            tag_256:\n                /* \"#utility.yul\":8697:8732   */\n              swap1\n              pop\n                /* \"#utility.yul\":8687:8738   */\n              swap2\n              swap1\n              pop\n              jump\t// out\n                /* \"#utility.yul\":8744:8834   */\n            tag_198:\n                /* \"#utility.yul\":8778:8785   */\n              0x00\n                /* \"#utility.yul\":8821:8826   */\n              dup2\n                /* \"#utility.yul\":8814:8827   */\n              iszero\n                /* \"#utility.yul\":8807:8828   */\n              iszero\n                /* \"#utility.yul\":8796:8828   */\n              swap1\n              pop\n                /* \"#utility.yul\":8786:8834   */\n              swap2\n              swap1\n              pop\n              jump\t// out\n                /* \"#utility.yul\":8840:8966   */\n            tag_254:\n                /* \"#utility.yul\":8877:8884   */\n              0x00\n                /* \"#utility.yul\":8917:8959   */\n              0xffffffffffffffffffffffffffffffffffffffff\n                /* \"#utility.yul\":8910:8915   */\n              dup3\n                /* \"#utility.yul\":8906:8960   */\n              and\n                /* \"#utility.yul\":8895:8960   */\n              swap1\n              pop\n                /* \"#utility.yul\":8885:8966   */\n              swap2\n              swap1\n              pop\n              jump\t// out\n                /* \"#utility.yul\":8972:9049   */\n            tag_212:\n                /* \"#utility.yul\":9009:9016   */\n              0x00\n                /* \"#utility.yul\":9038:9043   */\n              dup2\n                /* \"#utility.yul\":9027:9043   */\n              swap1\n              pop\n                /* \"#utility.yul\":9017:9049   */\n              swap2\n              swap1\n              pop\n              jump\t// out\n                /* \"#utility.yul\":9055:9209   */\n            tag_137:\n                /* \"#utility.yul\":9139:9145   */\n              dup3\n                /* \"#utility.yul\":9134:9137   */\n              dup2\n                /* \"#utility.yul\":9129:9132   */\n              dup4\n                /* \"#utility.yul\":9116:9146   */\n              calldatacopy\n                /* \"#utility.yul\":9201:9202   */\n              0x00\n                /* \"#utility.yul\":9192:9198   */\n              dup4\n                /* \"#utility.yul\":9187:9190   */\n              dup4\n                /* \"#utility.yul\":9183:9199   */\n              add\n                /* \"#utility.yul\":9176:9203   */\n              mstore\n                /* \"#utility.yul\":9106:9209   */\n              pop\n              pop\n              pop\n              jump\t// out\n                /* \"#utility.yul\":9215:9522   */\n            tag_206:\n                /* \"#utility.yul\":9283:9284   */\n              0x00\n                /* \"#utility.yul\":9293:9406   */\n            tag_262:\n                /* \"#utility.yul\":9307:9313   */\n              dup4\n                /* \"#utility.yul\":9304:9305   */\n              dup2\n                /* \"#utility.yul\":9301:9314   */\n              lt\n                /* \"#utility.yul\":9293:9406   */\n              iszero\n              tag_264\n              jumpi\n                /* \"#utility.yul\":9392:9393   */\n              dup1\n                /* \"#utility.yul\":9387:9390   */\n              dup3\n                /* \"#utility.yul\":9383:9394   */\n              add\n                /* \"#utility.yul\":9377:9395   */\n              mload\n                /* \"#utility.yul\":9373:9374   */\n              dup2\n                /* \"#utility.yul\":9368:9371   */\n              dup5\n                /* \"#utility.yul\":9364:9375   */\n              add\n                /* \"#utility.yul\":9357:9396   */\n              mstore\n                /* \"#utility.yul\":9329:9331   */\n              0x20\n                /* \"#utility.yul\":9326:9327   */\n              dup2\n                /* \"#utility.yul\":9322:9332   */\n              add\n                /* \"#utility.yul\":9317:9332   */\n              swap1\n              pop\n                /* \"#utility.yul\":9293:9406   */\n              jump(tag_262)\n            tag_264:\n                /* \"#utility.yul\":9424:9430   */\n              dup4\n                /* \"#utility.yul\":9421:9422   */\n              dup2\n                /* \"#utility.yul\":9418:9431   */\n              gt\n                /* \"#utility.yul\":9415:9417   */\n              iszero\n              tag_265\n              jumpi\n                /* \"#utility.yul\":9504:9505   */\n              0x00\n                /* \"#utility.yul\":9495:9501   */\n              dup5\n                /* \"#utility.yul\":9490:9493   */\n              dup5\n                /* \"#utility.yul\":9486:9502   */\n              add\n                /* \"#utility.yul\":9479:9506   */\n              mstore\n                /* \"#utility.yul\":9415:9417   */\n            tag_265:\n                /* \"#utility.yul\":9264:9522   */\n              pop\n              pop\n              pop\n              pop\n              jump\t// out\n                /* \"#utility.yul\":9528:9848   */\n            tag_81:\n                /* \"#utility.yul\":9572:9578   */\n              0x00\n                /* \"#utility.yul\":9609:9610   */\n              0x02\n                /* \"#utility.yul\":9603:9607   */\n              dup3\n                /* \"#utility.yul\":9599:9611   */\n              div\n                /* \"#utility.yul\":9589:9611   */\n              swap1\n              pop\n                /* \"#utility.yul\":9656:9657   */\n              0x01\n                /* \"#utility.yul\":9650:9654   */\n              dup3\n                /* \"#utility.yul\":9646:9658   */\n              and\n                /* \"#utility.yul\":9677:9695   */\n              dup1\n                /* \"#utility.yul\":9667:9669   */\n              tag_267\n              jumpi\n                /* \"#utility.yul\":9733:9737   */\n              0x7f\n                /* \"#utility.yul\":9725:9731   */\n              dup3\n                /* \"#utility.yul\":9721:9738   */\n              and\n                /* \"#utility.yul\":9711:9738   */\n              swap2\n              pop\n                /* \"#utility.yul\":9667:9669   */\n            tag_267:\n                /* \"#utility.yul\":9795:9797   */\n              0x20\n                /* \"#utility.yul\":9787:9793   */\n              dup3\n                /* \"#utility.yul\":9784:9798   */\n              lt\n                /* \"#utility.yul\":9764:9782   */\n              dup2\n                /* \"#utility.yul\":9761:9799   */\n              eq\n                /* \"#utility.yul\":9758:9760   */\n              iszero\n              tag_268\n              jumpi\n                /* \"#utility.yul\":9814:9832   */\n              tag_269\n              tag_270\n              jump\t// in\n            tag_269:\n                /* \"#utility.yul\":9758:9760   */\n            tag_268:\n                /* \"#utility.yul\":9579:9848   */\n              pop\n              swap2\n              swap1\n              pop\n              jump\t// out\n                /* \"#utility.yul\":9854:10135   */\n            tag_237:\n                /* \"#utility.yul\":9937:9964   */\n              tag_272\n                /* \"#utility.yul\":9959:9963   */\n              dup3\n                /* \"#utility.yul\":9937:9964   */\n              tag_208\n              jump\t// in\n            tag_272:\n                /* \"#utility.yul\":9929:9935   */\n              dup2\n                /* \"#utility.yul\":9925:9965   */\n              add\n                /* \"#utility.yul\":10067:10073   */\n              dup2\n                /* \"#utility.yul\":10055:10065   */\n              dup2\n                /* \"#utility.yul\":10052:10074   */\n              lt\n                /* \"#utility.yul\":10031:10049   */\n              0xffffffffffffffff\n                /* \"#utility.yul\":10019:10029   */\n              dup3\n                /* \"#utility.yul\":10016:10050   */\n              gt\n                /* \"#utility.yul\":10013:10075   */\n              or\n                /* \"#utility.yul\":10010:10012   */\n              iszero\n              tag_273\n              jumpi\n                /* \"#utility.yul\":10078:10096   */\n              tag_274\n              tag_242\n              jump\t// in\n            tag_274:\n                /* \"#utility.yul\":10010:10012   */\n            tag_273:\n                /* \"#utility.yul\":10118:10128   */\n              dup1\n                /* \"#utility.yul\":10114:10116   */\n              0x40\n                /* \"#utility.yul\":10107:10129   */\n              mstore\n                /* \"#utility.yul\":9897:10135   */\n              pop\n              pop\n              pop\n              jump\t// out\n                /* \"#utility.yul\":10141:10374   */\n            tag_74:\n                /* \"#utility.yul\":10180:10183   */\n              0x00\n                /* \"#utility.yul\":10203:10227   */\n              tag_276\n                /* \"#utility.yul\":10221:10226   */\n              dup3\n                /* \"#utility.yul\":10203:10227   */\n              tag_212\n              jump\t// in\n            tag_276:\n                /* \"#utility.yul\":10194:10227   */\n              swap2\n              pop\n                /* \"#utility.yul\":10249:10315   */\n              0xffffffffffffffffffffffffffffffffffffffffffffffffffffffffffffffff\n                /* \"#utility.yul\":10242:10247   */\n              dup3\n                /* \"#utility.yul\":10239:10316   */\n              eq\n                /* \"#utility.yul\":10236:10238   */\n              iszero\n              tag_277\n              jumpi\n                /* \"#utility.yul\":10319:10337   */\n              tag_278\n              tag_279\n              jump\t// in\n            tag_278:\n                /* \"#utility.yul\":10236:10238   */\n            tag_277:\n                /* \"#utility.yul\":10366:10367   */\n              0x01\n                /* \"#utility.yul\":10359:10364   */\n              dup3\n                /* \"#utility.yul\":10355:10368   */\n              add\n                /* \"#utility.yul\":10348:10368   */\n              swap1\n              pop\n                /* \"#utility.yul\":10184:10374   */\n              swap2\n              swap1\n              pop\n              jump\t// out\n                /* \"#utility.yul\":10380:10560   */\n            tag_279:\n                /* \"#utility.yul\":10428:10505   */\n              0x4e487b7100000000000000000000000000000000000000000000000000000000\n                /* \"#utility.yul\":10425:10426   */\n              0x00\n                /* \"#utility.yul\":10418:10506   */\n              mstore\n                /* \"#utility.yul\":10525:10529   */\n              0x11\n                /* \"#utility.yul\":10522:10523   */\n              0x04\n                /* \"#utility.yul\":10515:10530   */\n              mstore\n                /* \"#utility.yul\":10549:10553   */\n              0x24\n                /* \"#utility.yul\":10546:10547   */\n              0x00\n                /* \"#utility.yul\":10539:10554   */\n              revert\n                /* \"#utility.yul\":10566:10746   */\n            tag_251:\n                /* \"#utility.yul\":10614:10691   */\n              0x4e487b7100000000000000000000000000000000000000000000000000000000\n                /* \"#utility.yul\":10611:10612   */\n              0x00\n                /* \"#utility.yul\":10604:10692   */\n              mstore\n                /* \"#utility.yul\":10711:10715   */\n              0x12\n                /* \"#utility.yul\":10708:10709   */\n              0x04\n                /* \"#utility.yul\":10701:10716   */\n              mstore\n                /* \"#utility.yul\":10735:10739   */\n              0x24\n                /* \"#utility.yul\":10732:10733   */\n              0x00\n                /* \"#utility.yul\":10725:10740   */\n              revert\n                /* \"#utility.yul\":10752:10932   */\n            tag_270:\n                /* \"#utility.yul\":10800:10877   */\n              0x4e487b7100000000000000000000000000000000000000000000000000000000\n                /* \"#utility.yul\":10797:10798   */\n              0x00\n                /* \"#utility.yul\":10790:10878   */\n              mstore\n                /* \"#utility.yul\":10897:10901   */\n              0x22\n                /* \"#utility.yul\":10894:10895   */\n              0x04\n                /* \"#utility.yul\":10887:10902   */\n              mstore\n                /* \"#utility.yul\":10921:10925   */\n              0x24\n                /* \"#utility.yul\":10918:10919   */\n              0x00\n                /* \"#utility.yul\":10911:10926   */\n              revert\n                /* \"#utility.yul\":10938:11118   */\n            tag_242:\n                /* \"#utility.yul\":10986:11063   */\n              0x4e487b7100000000000000000000000000000000000000000000000000000000\n                /* \"#utility.yul\":10983:10984   */\n              0x00\n                /* \"#utility.yul\":10976:11064   */\n              mstore\n                /* \"#utility.yul\":11083:11087   */\n              0x41\n                /* \"#utility.yul\":11080:11081   */\n              0x04\n                /* \"#utility.yul\":11073:11088   */\n              mstore\n                /* \"#utility.yul\":11107:11111   */\n              0x24\n                /* \"#utility.yul\":11104:11105   */\n              0x00\n                /* \"#utility.yul\":11097:11112   */\n              revert\n                /* \"#utility.yul\":11124:11241   */\n            tag_150:\n                /* \"#utility.yul\":11233:11234   */\n              0x00\n                /* \"#utility.yul\":11230:11231   */\n              dup1\n                /* \"#utility.yul\":11223:11235   */\n              revert\n                /* \"#utility.yul\":11247:11364   */\n            tag_135:\n                /* \"#utility.yul\":11356:11357   */\n              0x00\n                /* \"#utility.yul\":11353:11354   */\n              dup1\n                /* \"#utility.yul\":11346:11358   */\n              revert\n                /* \"#utility.yul\":11370:11487   */\n            tag_166:\n                /* \"#utility.yul\":11479:11480   */\n              0x00\n                /* \"#utility.yul\":11476:11477   */\n              dup1\n                /* \"#utility.yul\":11469:11481   */\n              revert\n                /* \"#utility.yul\":11493:11610   */\n            tag_159:\n                /* \"#utility.yul\":11602:11603   */\n              0x00\n                /* \"#utility.yul\":11599:11600   */\n              dup1\n                /* \"#utility.yul\":11592:11604   */\n              revert\n                /* \"#utility.yul\":11616:11718   */\n            tag_208:\n                /* \"#utility.yul\":11657:11663   */\n              0x00\n                /* \"#utility.yul\":11708:11710   */\n              0x1f\n                /* \"#utility.yul\":11704:11711   */\n              not\n                /* \"#utility.yul\":11699:11701   */\n              0x1f\n                /* \"#utility.yul\":11692:11697   */\n              dup4\n                /* \"#utility.yul\":11688:11702   */\n              add\n                /* \"#utility.yul\":11684:11712   */\n              and\n                /* \"#utility.yul\":11674:11712   */\n              swap1\n              pop\n                /* \"#utility.yul\":11664:11718   */\n              swap2\n              swap1\n              pop\n              jump\t// out\n                /* \"#utility.yul\":11724:11846   */\n            tag_141:\n                /* \"#utility.yul\":11797:11821   */\n              tag_290\n                /* \"#utility.yul\":11815:11820   */\n              dup2\n                /* \"#utility.yul\":11797:11821   */\n              tag_194\n              jump\t// in\n            tag_290:\n                /* \"#utility.yul\":11790:11795   */\n              dup2\n                /* \"#utility.yul\":11787:11822   */\n              eq\n                /* \"#utility.yul\":11777:11779   */\n              tag_291\n              jumpi\n                /* \"#utility.yul\":11836:11837   */\n              0x00\n                /* \"#utility.yul\":11833:11834   */\n              dup1\n                /* \"#utility.yul\":11826:11838   */\n              revert\n                /* \"#utility.yul\":11777:11779   */\n            tag_291:\n                /* \"#utility.yul\":11767:11846   */\n              pop\n              jump\t// out\n                /* \"#utility.yul\":11852:11990   */\n            tag_145:\n                /* \"#utility.yul\":11933:11965   */\n              tag_293\n                /* \"#utility.yul\":11959:11964   */\n              dup2\n                /* \"#utility.yul\":11933:11965   */\n              tag_190\n              jump\t// in\n            tag_293:\n                /* \"#utility.yul\":11926:11931   */\n              dup2\n                /* \"#utility.yul\":11923:11966   */\n              eq\n                /* \"#utility.yul\":11913:11915   */\n              tag_294\n              jumpi\n                /* \"#utility.yul\":11980:11981   */\n              0x00\n                /* \"#utility.yul\":11977:11978   */\n              dup1\n                /* \"#utility.yul\":11970:11982   */\n              revert\n                /* \"#utility.yul\":11913:11915   */\n            tag_294:\n                /* \"#utility.yul\":11903:11990   */\n              pop\n              jump\t// out\n                /* \"#utility.yul\":11996:12118   */\n            tag_155:\n                /* \"#utility.yul\":12069:12093   */\n              tag_296\n                /* \"#utility.yul\":12087:12092   */\n              dup2\n                /* \"#utility.yul\":12069:12093   */\n              tag_212\n              jump\t// in\n            tag_296:\n                /* \"#utility.yul\":12062:12067   */\n              dup2\n                /* \"#utility.yul\":12059:12094   */\n              eq\n                /* \"#utility.yul\":12049:12051   */\n              tag_297\n              jumpi\n                /* \"#utility.yul\":12108:12109   */\n              0x00\n                /* \"#utility.yul\":12105:12106   */\n              dup1\n                /* \"#utility.yul\":12098:12110   */\n              revert\n                /* \"#utility.yul\":12049:12051   */\n            tag_297:\n                /* \"#utility.yul\":12039:12118   */\n              pop\n              jump\t// out\n\n            auxdata: 0xa264697066735822122021b7ac3a0c2e29ec1e10acd660c9caeececfcccd69f2359782280c5f2e51812464736f6c63430008050033\n        }\n    }\n\n    auxdata: 0xa2646970667358221220d3b01e79b3472852e82032f15b0613d4f813214ea673a374eb7a192b24e99d9364736f6c63430008050033\n}\n","bytecode":{"linkReferences":{},"object":"608060405234801561001057600080fd5b5061279a806100206000396000f3fe60806040523480156200001157600080fd5b5060043610620000465760003560e01c806348bc4063146200004b5780638ef03928146200006b578063a6b03633146200008b575b600080fd5b62000069600480360381019062000063919062000814565b620000b0565b005b620000896004803603810190620000839190620008e3565b62000214565b005b6200009562000384565b604051620000a7949392919062000b82565b60405180910390f35b60008181548110620000c757620000c662000f13565b5b9060005260206000200160009054906101000a900473ffffffffffffffffffffffffffffffffffffffff1673ffffffffffffffffffffffffffffffffffffffff1663473fc933858585336040518563ffffffff1660e01b815260040162000132949392919062000beb565b600060405180830381600087803b1580156200014d57600080fd5b505af115801562000162573d6000803e3d6000fd5b5050505083600182815481106200017e576200017d62000f13565b5b9060005260206000200190805190602001906200019d929190620006c1565b508260028281548110620001b657620001b562000f13565b5b906000526020600020019080519060200190620001d5929190620006c1565b508160038281548110620001ee57620001ed62000f13565b5b9060005260206000200190805190602001906200020d929190620006c1565b5050505050565b600084848484336000805490506040516200022f9062000752565b620002409695949392919062000c4d565b604051809103906000f0801580156200025d573d6000803e3d6000fd5b5090506000819080600181540180825580915050600190039060005260206000200160009091909190916101000a81548173ffffffffffffffffffffffffffffffffffffffff021916908373ffffffffffffffffffffffffffffffffffffffff16021790555060018490806001815401808255809150506001900390600052602060002001600090919091909150908051906020019062000300929190620006c1565b506002839080600181540180825580915050600190039060005260206000200160009091909190915090805190602001906200033e929190620006c1565b506003829080600181540180825580915050600190039060005260206000200160009091909190915090805190602001906200037c929190620006c1565b505050505050565b6060806060806000600160026003838054806020026020016040519081016040528092919081815260200182805480156200041557602002820191906000526020600020905b8160009054906101000a900473ffffffffffffffffffffffffffffffffffffffff1673ffffffffffffffffffffffffffffffffffffffff1681526020019060010190808311620003ca575b5050505050935082805480602002602001604051908101604052809291908181526020016000905b82821015620004f35783829060005260206000200180546200045f9062000e78565b80601f01602080910402602001604051908101604052809291908181526020018280546200048d9062000e78565b8015620004de5780601f10620004b257610100808354040283529160200191620004de565b820191906000526020600020905b815481529060010190602001808311620004c057829003601f168201915b5050505050815260200190600101906200043d565b50505050925081805480602002602001604051908101604052809291908181526020016000905b82821015620005d05783829060005260206000200180546200053c9062000e78565b80601f01602080910402602001604051908101604052809291908181526020018280546200056a9062000e78565b8015620005bb5780601f106200058f57610100808354040283529160200191620005bb565b820191906000526020600020905b8154815290600101906020018083116200059d57829003601f168201915b5050505050815260200190600101906200051a565b50505050915080805480602002602001604051908101604052809291908181526020016000905b82821015620006ad578382906000526020600020018054620006199062000e78565b80601f0160208091040260200160405190810160405280929190818152602001828054620006479062000e78565b8015620006985780601f106200066c5761010080835404028352916020019162000698565b820191906000526020600020905b8154815290600101906020018083116200067a57829003601f168201915b505050505081526020019060010190620005f7565b505050509050935093509350935090919293565b828054620006cf9062000e78565b90600052602060002090601f016020900481019282620006f357600085556200073f565b82601f106200070e57805160ff19168380011785556200073f565b828001600101855582156200073f579182015b828111156200073e57825182559160200191906001019062000721565b5b5090506200074e919062000760565b5090565b6117b48062000fb183390190565b5b808211156200077b57600081600090555060010162000761565b5090565b600062000796620007908462000cf8565b62000ccf565b905082815260208101848484011115620007b557620007b462000f76565b5b620007c284828562000e33565b509392505050565b600082601f830112620007e257620007e162000f71565b5b8135620007f48482602086016200077f565b91505092915050565b6000813590506200080e8162000f96565b92915050565b6000806000806080858703121562000831576200083062000f80565b5b600085013567ffffffffffffffff81111562000852576200085162000f7b565b5b6200086087828801620007ca565b945050602085013567ffffffffffffffff81111562000884576200088362000f7b565b5b6200089287828801620007ca565b935050604085013567ffffffffffffffff811115620008b657620008b562000f7b565b5b620008c487828801620007ca565b9250506060620008d787828801620007fd565b91505092959194509250565b600080600080608085870312156200090057620008ff62000f80565b5b60006200091087828801620007fd565b945050602085013567ffffffffffffffff81111562000934576200093362000f7b565b5b6200094287828801620007ca565b935050604085013567ffffffffffffffff81111562000966576200096562000f7b565b5b6200097487828801620007ca565b925050606085013567ffffffffffffffff81111562000998576200099762000f7b565b5b620009a687828801620007ca565b91505092959194509250565b6000620009c0838362000ade565b60208301905092915050565b6000620009da838362000aef565b905092915050565b620009ed8162000dcd565b82525050565b600062000a008262000d4e565b62000a0c818562000d89565b935062000a198362000d2e565b8060005b8381101562000a5057815162000a348882620009b2565b975062000a418362000d6f565b92505060018101905062000a1d565b5085935050505092915050565b600062000a6a8262000d59565b62000a76818562000d9a565b93508360208202850162000a8a8562000d3e565b8060005b8581101562000acc578484038952815162000aaa8582620009cc565b945062000ab78362000d7c565b925060208a0199505060018101905062000a8e565b50829750879550505050505092915050565b62000ae98162000e0b565b82525050565b600062000afc8262000d64565b62000b08818562000dab565b935062000b1a81856020860162000e42565b62000b258162000f85565b840191505092915050565b600062000b3d8262000d64565b62000b49818562000dbc565b935062000b5b81856020860162000e42565b62000b668162000f85565b840191505092915050565b62000b7c8162000e01565b82525050565b6000608082019050818103600083015262000b9e8187620009f3565b9050818103602083015262000bb4818662000a5d565b9050818103604083015262000bca818562000a5d565b9050818103606083015262000be0818462000a5d565b905095945050505050565b6000608082019050818103600083015262000c07818762000b30565b9050818103602083015262000c1d818662000b30565b9050818103604083015262000c33818562000b30565b905062000c446060830184620009e2565b95945050505050565b600060c08201905062000c64600083018962000b71565b818103602083015262000c78818862000b30565b9050818103604083015262000c8e818762000b30565b9050818103606083015262000ca4818662000b30565b905062000cb56080830185620009e2565b62000cc460a083018462000b71565b979650505050505050565b600062000cdb62000cee565b905062000ce9828262000eae565b919050565b6000604051905090565b600067ffffffffffffffff82111562000d165762000d1562000f42565b5b62000d218262000f85565b9050602081019050919050565b6000819050602082019050919050565b6000819050602082019050919050565b600081519050919050565b600081519050919050565b600081519050919050565b6000602082019050919050565b6000602082019050919050565b600082825260208201905092915050565b600082825260208201905092915050565b600082825260208201905092915050565b600082825260208201905092915050565b600062000dda8262000de1565b9050919050565b600073ffffffffffffffffffffffffffffffffffffffff82169050919050565b6000819050919050565b600062000e188262000e1f565b9050919050565b600062000e2c8262000de1565b9050919050565b82818337600083830152505050565b60005b8381101562000e6257808201518184015260208101905062000e45565b8381111562000e72576000848401525b50505050565b6000600282049050600182168062000e9157607f821691505b6020821081141562000ea85762000ea762000ee4565b5b50919050565b62000eb98262000f85565b810181811067ffffffffffffffff8211171562000edb5762000eda62000f42565b5b80604052505050565b7f4e487b7100000000000000000000000000000000000000000000000000000000600052602260045260246000fd5b7f4e487b7100000000000000000000000000000000000000000000000000000000600052603260045260246000fd5b7f4e487b7100000000000000000000000000000000000000000000000000000000600052604160045260246000fd5b600080fd5b600080fd5b600080fd5b600080fd5b6000601f19601f8301169050919050565b62000fa18162000e01565b811462000fad57600080fd5b5056fe60806040523480156200001157600080fd5b50604051620017b4380380620017b4833981810160405281019062000037919062000248565b85600181905550846003908051906020019062000056929190620000ec565b5083600290805190602001906200006f929190620000ec565b50826004908051906020019062000088929190620000ec565b5060006008819055506000600681905550816000806101000a81548173ffffffffffffffffffffffffffffffffffffffff021916908373ffffffffffffffffffffffffffffffffffffffff1602179055508060098190555050505050505062000537565b828054620000fa9062000414565b90600052602060002090601f0160209004810192826200011e57600085556200016a565b82601f106200013957805160ff19168380011785556200016a565b828001600101855582156200016a579182015b82811115620001695782518255916020019190600101906200014c565b5b5090506200017991906200017d565b5090565b5b80821115620001985760008160009055506001016200017e565b5090565b6000620001b3620001ad846200036a565b62000341565b905082815260208101848484011115620001d257620001d1620004e3565b5b620001df848285620003de565b509392505050565b600081519050620001f88162000503565b92915050565b600082601f830112620002165762000215620004de565b5b8151620002288482602086016200019c565b91505092915050565b60008151905062000242816200051d565b92915050565b60008060008060008060c08789031215620002685762000267620004ed565b5b60006200027889828a0162000231565b965050602087015167ffffffffffffffff8111156200029c576200029b620004e8565b5b620002aa89828a01620001fe565b955050604087015167ffffffffffffffff811115620002ce57620002cd620004e8565b5b620002dc89828a01620001fe565b945050606087015167ffffffffffffffff8111156200030057620002ff620004e8565b5b6200030e89828a01620001fe565b93505060806200032189828a01620001e7565b92505060a06200033489828a0162000231565b9150509295509295509295565b60006200034d62000360565b90506200035b82826200044a565b919050565b6000604051905090565b600067ffffffffffffffff821115620003885762000387620004af565b5b6200039382620004f2565b9050602081019050919050565b6000620003ad82620003b4565b9050919050565b600073ffffffffffffffffffffffffffffffffffffffff82169050919050565b6000819050919050565b60005b83811015620003fe578082015181840152602081019050620003e1565b838111156200040e576000848401525b50505050565b600060028204905060018216806200042d57607f821691505b6020821081141562000444576200044362000480565b5b50919050565b6200045582620004f2565b810181811067ffffffffffffffff82111715620004775762000476620004af565b5b80604052505050565b7f4e487b7100000000000000000000000000000000000000000000000000000000600052602260045260246000fd5b7f4e487b7100000000000000000000000000000000000000000000000000000000600052604160045260246000fd5b600080fd5b600080fd5b600080fd5b600080fd5b6000601f19601f8301169050919050565b6200050e81620003a0565b81146200051a57600080fd5b50565b6200052881620003d4565b81146200053457600080fd5b50565b61126d80620005476000396000f3fe6080604052600436106100915760003560e01c8063473fc93311610059578063473fc9331461018357806381d12c58146101ac57806382fde093146101ed578063d7bb99ba14610218578063d7d1bbdb1461022257610091565b806303441006146100965780631b16bb5c146100bf5780631d0d35f5146100e85780633fad1834146101255780634051ddac14610150575b600080fd5b3480156100a257600080fd5b506100bd60048036038101906100b89190610d52565b61024b565b005b3480156100cb57600080fd5b506100e660048036038101906100e19190610c28565b610385565b005b3480156100f457600080fd5b5061010f600480360381019061010a9190610bfb565b61049c565b60405161011c9190610df4565b60405180910390f35b34801561013157600080fd5b5061013a6104f2565b6040516101479190610e69565b60405180910390f35b34801561015c57600080fd5b506101656104fc565b60405161017a99989796959493929190610e84565b60405180910390f35b34801561018f57600080fd5b506101aa60048036038101906101a59190610c97565b6106ff565b005b3480156101b857600080fd5b506101d360048036038101906101ce9190610d52565b6107a2565b6040516101e4959493929190610e0f565b60405180910390f35b3480156101f957600080fd5b5061020261088d565b60405161020f9190610e69565b60405180910390f35b610220610893565b005b34801561022e57600080fd5b5061024960048036038101906102449190610d52565b61096b565b005b60008054906101000a900473ffffffffffffffffffffffffffffffffffffffff1673ffffffffffffffffffffffffffffffffffffffff163373ffffffffffffffffffffffffffffffffffffffff16146102a357600080fd5b600060056000838152602001908152602001600020905060026008546102c99190610f98565b816004015410156102d957600080fd5b8060050160009054906101000a900460ff16156102f557600080fd5b8060020160009054906101000a900473ffffffffffffffffffffffffffffffffffffffff1673ffffffffffffffffffffffffffffffffffffffff166108fc82600101549081150290604051600060405180830381858888f19350505050158015610363573d6000803e3d6000fd5b5060018160050160006101000a81548160ff0219169083151502179055505050565b60008054906101000a900473ffffffffffffffffffffffffffffffffffffffff1673ffffffffffffffffffffffffffffffffffffffff163373ffffffffffffffffffffffffffffffffffffffff16146103dd57600080fd5b600060056000600660008154809291906103f6906110c8565b919050558152602001908152602001600020905083816000019080519060200190610422929190610aa9565b50828160020160006101000a81548173ffffffffffffffffffffffffffffffffffffffff021916908373ffffffffffffffffffffffffffffffffffffffff1602179055508181600101819055506000816004018190555060008160050160006101000a81548160ff02191690831515021790555050505050565b6000600760008373ffffffffffffffffffffffffffffffffffffffff1673ffffffffffffffffffffffffffffffffffffffff16815260200190815260200160002060009054906101000a900460ff169050919050565b6000600654905090565b60008060008060608060606000806001546006546008544760036002600460008054906101000a900473ffffffffffffffffffffffffffffffffffffffff1660095484805461054a90611065565b80601f016020809104026020016040519081016040528092919081815260200182805461057690611065565b80156105c35780601f10610598576101008083540402835291602001916105c3565b820191906000526020600020905b8154815290600101906020018083116105a657829003601f168201915b505050505094508380546105d690611065565b80601f016020809104026020016040519081016040528092919081815260200182805461060290611065565b801561064f5780601f106106245761010080835404028352916020019161064f565b820191906000526020600020905b81548152906001019060200180831161063257829003601f168201915b5050505050935082805461066290611065565b80601f016020809104026020016040519081016040528092919081815260200182805461068e90611065565b80156106db5780601f106106b0576101008083540402835291602001916106db565b820191906000526020600020905b8154815290600101906020018083116106be57829003601f168201915b50505050509250985098509850985098509850985098509850909192939495969798565b60008054906101000a900473ffffffffffffffffffffffffffffffffffffffff1673ffffffffffffffffffffffffffffffffffffffff168173ffffffffffffffffffffffffffffffffffffffff161461075757600080fd5b836003908051906020019061076d929190610aa9565b508260029080519060200190610784929190610aa9565b50816004908051906020019061079b929190610aa9565b5050505050565b60056020528060005260406000206000915090508060000180546107c590611065565b80601f01602080910402602001604051908101604052809291908181526020018280546107f190611065565b801561083e5780601f106108135761010080835404028352916020019161083e565b820191906000526020600020905b81548152906001019060200180831161082157829003601f168201915b5050505050908060010154908060020160009054906101000a900473ffffffffffffffffffffffffffffffffffffffff16908060040154908060050160009054906101000a900460ff16905085565b60085481565b6001543410156108a257600080fd5b600760003373ffffffffffffffffffffffffffffffffffffffff1673ffffffffffffffffffffffffffffffffffffffff16815260200190815260200160002060009054906101000a900460ff16156108f957600080fd5b6001600760003373ffffffffffffffffffffffffffffffffffffffff1673ffffffffffffffffffffffffffffffffffffffff16815260200190815260200160002060006101000a81548160ff02191690831515021790555060086000815480929190610964906110c8565b9190505550565b600760003373ffffffffffffffffffffffffffffffffffffffff1673ffffffffffffffffffffffffffffffffffffffff16815260200190815260200160002060009054906101000a900460ff166109c157600080fd5b60006005600083815260200190815260200160002090508060030160003373ffffffffffffffffffffffffffffffffffffffff1673ffffffffffffffffffffffffffffffffffffffff16815260200190815260200160002060009054906101000a900460ff1615610a3157600080fd5b60018160030160003373ffffffffffffffffffffffffffffffffffffffff1673ffffffffffffffffffffffffffffffffffffffff16815260200190815260200160002060006101000a81548160ff021916908315150217905550806004016000815480929190610aa0906110c8565b91905055505050565b828054610ab590611065565b90600052602060002090601f016020900481019282610ad75760008555610b1e565b82601f10610af057805160ff1916838001178555610b1e565b82800160010185558215610b1e579182015b82811115610b1d578251825591602001919060010190610b02565b5b509050610b2b9190610b2f565b5090565b5b80821115610b48576000816000905550600101610b30565b5090565b6000610b5f610b5a84610f4b565b610f26565b905082815260208101848484011115610b7b57610b7a6111d2565b5b610b86848285611023565b509392505050565b600081359050610b9d816111f2565b92915050565b600081359050610bb281611209565b92915050565b600082601f830112610bcd57610bcc6111cd565b5b8135610bdd848260208601610b4c565b91505092915050565b600081359050610bf581611220565b92915050565b600060208284031215610c1157610c106111dc565b5b6000610c1f84828501610b8e565b91505092915050565b600080600060608486031215610c4157610c406111dc565b5b600084013567ffffffffffffffff811115610c5f57610c5e6111d7565b5b610c6b86828701610bb8565b9350506020610c7c86828701610ba3565b9250506040610c8d86828701610be6565b9150509250925092565b60008060008060808587031215610cb157610cb06111dc565b5b600085013567ffffffffffffffff811115610ccf57610cce6111d7565b5b610cdb87828801610bb8565b945050602085013567ffffffffffffffff811115610cfc57610cfb6111d7565b5b610d0887828801610bb8565b935050604085013567ffffffffffffffff811115610d2957610d286111d7565b5b610d3587828801610bb8565b9250506060610d4687828801610b8e565b91505092959194509250565b600060208284031215610d6857610d676111dc565b5b6000610d7684828501610be6565b91505092915050565b610d8881610fdb565b82525050565b610d9781610fc9565b82525050565b610da681610fed565b82525050565b6000610db782610f7c565b610dc18185610f87565b9350610dd1818560208601611032565b610dda816111e1565b840191505092915050565b610dee81611019565b82525050565b6000602082019050610e096000830184610d9d565b92915050565b600060a0820190508181036000830152610e298188610dac565b9050610e386020830187610de5565b610e456040830186610d7f565b610e526060830185610de5565b610e5f6080830184610d9d565b9695505050505050565b6000602082019050610e7e6000830184610de5565b92915050565b600061012082019050610e9a600083018c610de5565b610ea7602083018b610de5565b610eb4604083018a610de5565b610ec16060830189610de5565b8181036080830152610ed38188610dac565b905081810360a0830152610ee78187610dac565b905081810360c0830152610efb8186610dac565b9050610f0a60e0830185610d8e565b610f18610100830184610de5565b9a9950505050505050505050565b6000610f30610f41565b9050610f3c8282611097565b919050565b6000604051905090565b600067ffffffffffffffff821115610f6657610f6561119e565b5b610f6f826111e1565b9050602081019050919050565b600081519050919050565b600082825260208201905092915050565b6000610fa382611019565b9150610fae83611019565b925082610fbe57610fbd611140565b5b828204905092915050565b6000610fd482610ff9565b9050919050565b6000610fe682610ff9565b9050919050565b60008115159050919050565b600073ffffffffffffffffffffffffffffffffffffffff82169050919050565b6000819050919050565b82818337600083830152505050565b60005b83811015611050578082015181840152602081019050611035565b8381111561105f576000848401525b50505050565b6000600282049050600182168061107d57607f821691505b602082108114156110915761109061116f565b5b50919050565b6110a0826111e1565b810181811067ffffffffffffffff821117156110bf576110be61119e565b5b80604052505050565b60006110d382611019565b91507fffffffffffffffffffffffffffffffffffffffffffffffffffffffffffffffff82141561110657611105611111565b5b600182019050919050565b7f4e487b7100000000000000000000000000000000000000000000000000000000600052601160045260246000fd5b7f4e487b7100000000000000000000000000000000000000000000000000000000600052601260045260246000fd5b7f4e487b7100000000000000000000000000000000000000000000000000000000600052602260045260246000fd5b7f4e487b7100000000000000000000000000000000000000000000000000000000600052604160045260246000fd5b600080fd5b600080fd5b600080fd5b600080fd5b6000601f19601f8301169050919050565b6111fb81610fc9565b811461120657600080fd5b50565b61121281610fdb565b811461121d57600080fd5b50565b61122981611019565b811461123457600080fd5b5056fea264697066735822122021b7ac3a0c2e29ec1e10acd660c9caeececfcccd69f2359782280c5f2e51812464736f6c63430008050033a2646970667358221220d3b01e79b3472852e82032f15b0613d4f813214ea673a374eb7a192b24e99d9364736f6c63430008050033","opcodes":"PUSH1 0x80 PUSH1 0x40 MSTORE CALLVALUE DUP1 ISZERO PUSH2 0x10 JUMPI PUSH1 0x0 DUP1 REVERT JUMPDEST POP PUSH2 0x279A DUP1 PUSH2 0x20 PUSH1 0x0 CODECOPY PUSH1 0x0 RETURN INVALID PUSH1 0x80 PUSH1 0x40 MSTORE CALLVALUE DUP1 ISZERO PUSH3 0x11 JUMPI PUSH1 0x0 DUP1 REVERT JUMPDEST POP PUSH1 0x4 CALLDATASIZE LT PUSH3 0x46 JUMPI PUSH1 0x0 CALLDATALOAD PUSH1 0xE0 SHR DUP1 PUSH4 0x48BC4063 EQ PUSH3 0x4B JUMPI DUP1 PUSH4 0x8EF03928 EQ PUSH3 0x6B JUMPI DUP1 PUSH4 0xA6B03633 EQ PUSH3 0x8B JUMPI JUMPDEST PUSH1 0x0 DUP1 REVERT JUMPDEST PUSH3 0x69 PUSH1 0x4 DUP1 CALLDATASIZE SUB DUP2 ADD SWAP1 PUSH3 0x63 SWAP2 SWAP1 PUSH3 0x814 JUMP JUMPDEST PUSH3 0xB0 JUMP JUMPDEST STOP JUMPDEST PUSH3 0x89 PUSH1 0x4 DUP1 CALLDATASIZE SUB DUP2 ADD SWAP1 PUSH3 0x83 SWAP2 SWAP1 PUSH3 0x8E3 JUMP JUMPDEST PUSH3 0x214 JUMP JUMPDEST STOP JUMPDEST PUSH3 0x95 PUSH3 0x384 JUMP JUMPDEST PUSH1 0x40 MLOAD PUSH3 0xA7 SWAP5 SWAP4 SWAP3 SWAP2 SWAP1 PUSH3 0xB82 JUMP JUMPDEST PUSH1 0x40 MLOAD DUP1 SWAP2 SUB SWAP1 RETURN JUMPDEST PUSH1 0x0 DUP2 DUP2 SLOAD DUP2 LT PUSH3 0xC7 JUMPI PUSH3 0xC6 PUSH3 0xF13 JUMP JUMPDEST JUMPDEST SWAP1 PUSH1 0x0 MSTORE PUSH1 0x20 PUSH1 0x0 KECCAK256 ADD PUSH1 0x0 SWAP1 SLOAD SWAP1 PUSH2 0x100 EXP SWAP1 DIV PUSH20 0xFFFFFFFFFFFFFFFFFFFFFFFFFFFFFFFFFFFFFFFF AND PUSH20 0xFFFFFFFFFFFFFFFFFFFFFFFFFFFFFFFFFFFFFFFF AND PUSH4 0x473FC933 DUP6 DUP6 DUP6 CALLER PUSH1 0x40 MLOAD DUP6 PUSH4 0xFFFFFFFF AND PUSH1 0xE0 SHL DUP2 MSTORE PUSH1 0x4 ADD PUSH3 0x132 SWAP5 SWAP4 SWAP3 SWAP2 SWAP1 PUSH3 0xBEB JUMP JUMPDEST PUSH1 0x0 PUSH1 0x40 MLOAD DUP1 DUP4 SUB DUP2 PUSH1 0x0 DUP8 DUP1 EXTCODESIZE ISZERO DUP1 ISZERO PUSH3 0x14D JUMPI PUSH1 0x0 DUP1 REVERT JUMPDEST POP GAS CALL ISZERO DUP1 ISZERO PUSH3 0x162 JUMPI RETURNDATASIZE PUSH1 0x0 DUP1 RETURNDATACOPY RETURNDATASIZE PUSH1 0x0 REVERT JUMPDEST POP POP POP POP DUP4 PUSH1 0x1 DUP3 DUP2 SLOAD DUP2 LT PUSH3 0x17E JUMPI PUSH3 0x17D PUSH3 0xF13 JUMP JUMPDEST JUMPDEST SWAP1 PUSH1 0x0 MSTORE PUSH1 0x20 PUSH1 0x0 KECCAK256 ADD SWAP1 DUP1 MLOAD SWAP1 PUSH1 0x20 ADD SWAP1 PUSH3 0x19D SWAP3 SWAP2 SWAP1 PUSH3 0x6C1 JUMP JUMPDEST POP DUP3 PUSH1 0x2 DUP3 DUP2 SLOAD DUP2 LT PUSH3 0x1B6 JUMPI PUSH3 0x1B5 PUSH3 0xF13 JUMP JUMPDEST JUMPDEST SWAP1 PUSH1 0x0 MSTORE PUSH1 0x20 PUSH1 0x0 KECCAK256 ADD SWAP1 DUP1 MLOAD SWAP1 PUSH1 0x20 ADD SWAP1 PUSH3 0x1D5 SWAP3 SWAP2 SWAP1 PUSH3 0x6C1 JUMP JUMPDEST POP DUP2 PUSH1 0x3 DUP3 DUP2 SLOAD DUP2 LT PUSH3 0x1EE JUMPI PUSH3 0x1ED PUSH3 0xF13 JUMP JUMPDEST JUMPDEST SWAP1 PUSH1 0x0 MSTORE PUSH1 0x20 PUSH1 0x0 KECCAK256 ADD SWAP1 DUP1 MLOAD SWAP1 PUSH1 0x20 ADD SWAP1 PUSH3 0x20D SWAP3 SWAP2 SWAP1 PUSH3 0x6C1 JUMP JUMPDEST POP POP POP POP POP JUMP JUMPDEST PUSH1 0x0 DUP5 DUP5 DUP5 DUP5 CALLER PUSH1 0x0 DUP1 SLOAD SWAP1 POP PUSH1 0x40 MLOAD PUSH3 0x22F SWAP1 PUSH3 0x752 JUMP JUMPDEST PUSH3 0x240 SWAP7 SWAP6 SWAP5 SWAP4 SWAP3 SWAP2 SWAP1 PUSH3 0xC4D JUMP JUMPDEST PUSH1 0x40 MLOAD DUP1 SWAP2 SUB SWAP1 PUSH1 0x0 CREATE DUP1 ISZERO DUP1 ISZERO PUSH3 0x25D JUMPI RETURNDATASIZE PUSH1 0x0 DUP1 RETURNDATACOPY RETURNDATASIZE PUSH1 0x0 REVERT JUMPDEST POP SWAP1 POP PUSH1 0x0 DUP2 SWAP1 DUP1 PUSH1 0x1 DUP2 SLOAD ADD DUP1 DUP3 SSTORE DUP1 SWAP2 POP POP PUSH1 0x1 SWAP1 SUB SWAP1 PUSH1 0x0 MSTORE PUSH1 0x20 PUSH1 0x0 KECCAK256 ADD PUSH1 0x0 SWAP1 SWAP2 SWAP1 SWAP2 SWAP1 SWAP2 PUSH2 0x100 EXP DUP2 SLOAD DUP2 PUSH20 0xFFFFFFFFFFFFFFFFFFFFFFFFFFFFFFFFFFFFFFFF MUL NOT AND SWAP1 DUP4 PUSH20 0xFFFFFFFFFFFFFFFFFFFFFFFFFFFFFFFFFFFFFFFF AND MUL OR SWAP1 SSTORE POP PUSH1 0x1 DUP5 SWAP1 DUP1 PUSH1 0x1 DUP2 SLOAD ADD DUP1 DUP3 SSTORE DUP1 SWAP2 POP POP PUSH1 0x1 SWAP1 SUB SWAP1 PUSH1 0x0 MSTORE PUSH1 0x20 PUSH1 0x0 KECCAK256 ADD PUSH1 0x0 SWAP1 SWAP2 SWAP1 SWAP2 SWAP1 SWAP2 POP SWAP1 DUP1 MLOAD SWAP1 PUSH1 0x20 ADD SWAP1 PUSH3 0x300 SWAP3 SWAP2 SWAP1 PUSH3 0x6C1 JUMP JUMPDEST POP PUSH1 0x2 DUP4 SWAP1 DUP1 PUSH1 0x1 DUP2 SLOAD ADD DUP1 DUP3 SSTORE DUP1 SWAP2 POP POP PUSH1 0x1 SWAP1 SUB SWAP1 PUSH1 0x0 MSTORE PUSH1 0x20 PUSH1 0x0 KECCAK256 ADD PUSH1 0x0 SWAP1 SWAP2 SWAP1 SWAP2 SWAP1 SWAP2 POP SWAP1 DUP1 MLOAD SWAP1 PUSH1 0x20 ADD SWAP1 PUSH3 0x33E SWAP3 SWAP2 SWAP1 PUSH3 0x6C1 JUMP JUMPDEST POP PUSH1 0x3 DUP3 SWAP1 DUP1 PUSH1 0x1 DUP2 SLOAD ADD DUP1 DUP3 SSTORE DUP1 SWAP2 POP POP PUSH1 0x1 SWAP1 SUB SWAP1 PUSH1 0x0 MSTORE PUSH1 0x20 PUSH1 0x0 KECCAK256 ADD PUSH1 0x0 SWAP1 SWAP2 SWAP1 SWAP2 SWAP1 SWAP2 POP SWAP1 DUP1 MLOAD SWAP1 PUSH1 0x20 ADD SWAP1 PUSH3 0x37C SWAP3 SWAP2 SWAP1 PUSH3 0x6C1 JUMP JUMPDEST POP POP POP POP POP POP JUMP JUMPDEST PUSH1 0x60 DUP1 PUSH1 0x60 DUP1 PUSH1 0x0 PUSH1 0x1 PUSH1 0x2 PUSH1 0x3 DUP4 DUP1 SLOAD DUP1 PUSH1 0x20 MUL PUSH1 0x20 ADD PUSH1 0x40 MLOAD SWAP1 DUP2 ADD PUSH1 0x40 MSTORE DUP1 SWAP3 SWAP2 SWAP1 DUP2 DUP2 MSTORE PUSH1 0x20 ADD DUP3 DUP1 SLOAD DUP1 ISZERO PUSH3 0x415 JUMPI PUSH1 0x20 MUL DUP3 ADD SWAP2 SWAP1 PUSH1 0x0 MSTORE PUSH1 0x20 PUSH1 0x0 KECCAK256 SWAP1 JUMPDEST DUP2 PUSH1 0x0 SWAP1 SLOAD SWAP1 PUSH2 0x100 EXP SWAP1 DIV PUSH20 0xFFFFFFFFFFFFFFFFFFFFFFFFFFFFFFFFFFFFFFFF AND PUSH20 0xFFFFFFFFFFFFFFFFFFFFFFFFFFFFFFFFFFFFFFFF AND DUP2 MSTORE PUSH1 0x20 ADD SWAP1 PUSH1 0x1 ADD SWAP1 DUP1 DUP4 GT PUSH3 0x3CA JUMPI JUMPDEST POP POP POP POP POP SWAP4 POP DUP3 DUP1 SLOAD DUP1 PUSH1 0x20 MUL PUSH1 0x20 ADD PUSH1 0x40 MLOAD SWAP1 DUP2 ADD PUSH1 0x40 MSTORE DUP1 SWAP3 SWAP2 SWAP1 DUP2 DUP2 MSTORE PUSH1 0x20 ADD PUSH1 0x0 SWAP1 JUMPDEST DUP3 DUP3 LT ISZERO PUSH3 0x4F3 JUMPI DUP4 DUP3 SWAP1 PUSH1 0x0 MSTORE PUSH1 0x20 PUSH1 0x0 KECCAK256 ADD DUP1 SLOAD PUSH3 0x45F SWAP1 PUSH3 0xE78 JUMP JUMPDEST DUP1 PUSH1 0x1F ADD PUSH1 0x20 DUP1 SWAP2 DIV MUL PUSH1 0x20 ADD PUSH1 0x40 MLOAD SWAP1 DUP2 ADD PUSH1 0x40 MSTORE DUP1 SWAP3 SWAP2 SWAP1 DUP2 DUP2 MSTORE PUSH1 0x20 ADD DUP3 DUP1 SLOAD PUSH3 0x48D SWAP1 PUSH3 0xE78 JUMP JUMPDEST DUP1 ISZERO PUSH3 0x4DE JUMPI DUP1 PUSH1 0x1F LT PUSH3 0x4B2 JUMPI PUSH2 0x100 DUP1 DUP4 SLOAD DIV MUL DUP4 MSTORE SWAP2 PUSH1 0x20 ADD SWAP2 PUSH3 0x4DE JUMP JUMPDEST DUP3 ADD SWAP2 SWAP1 PUSH1 0x0 MSTORE PUSH1 0x20 PUSH1 0x0 KECCAK256 SWAP1 JUMPDEST DUP2 SLOAD DUP2 MSTORE SWAP1 PUSH1 0x1 ADD SWAP1 PUSH1 0x20 ADD DUP1 DUP4 GT PUSH3 0x4C0 JUMPI DUP3 SWAP1 SUB PUSH1 0x1F AND DUP3 ADD SWAP2 JUMPDEST POP POP POP POP POP DUP2 MSTORE PUSH1 0x20 ADD SWAP1 PUSH1 0x1 ADD SWAP1 PUSH3 0x43D JUMP JUMPDEST POP POP POP POP SWAP3 POP DUP2 DUP1 SLOAD DUP1 PUSH1 0x20 MUL PUSH1 0x20 ADD PUSH1 0x40 MLOAD SWAP1 DUP2 ADD PUSH1 0x40 MSTORE DUP1 SWAP3 SWAP2 SWAP1 DUP2 DUP2 MSTORE PUSH1 0x20 ADD PUSH1 0x0 SWAP1 JUMPDEST DUP3 DUP3 LT ISZERO PUSH3 0x5D0 JUMPI DUP4 DUP3 SWAP1 PUSH1 0x0 MSTORE PUSH1 0x20 PUSH1 0x0 KECCAK256 ADD DUP1 SLOAD PUSH3 0x53C SWAP1 PUSH3 0xE78 JUMP JUMPDEST DUP1 PUSH1 0x1F ADD PUSH1 0x20 DUP1 SWAP2 DIV MUL PUSH1 0x20 ADD PUSH1 0x40 MLOAD SWAP1 DUP2 ADD PUSH1 0x40 MSTORE DUP1 SWAP3 SWAP2 SWAP1 DUP2 DUP2 MSTORE PUSH1 0x20 ADD DUP3 DUP1 SLOAD PUSH3 0x56A SWAP1 PUSH3 0xE78 JUMP JUMPDEST DUP1 ISZERO PUSH3 0x5BB JUMPI DUP1 PUSH1 0x1F LT PUSH3 0x58F JUMPI PUSH2 0x100 DUP1 DUP4 SLOAD DIV MUL DUP4 MSTORE SWAP2 PUSH1 0x20 ADD SWAP2 PUSH3 0x5BB JUMP JUMPDEST DUP3 ADD SWAP2 SWAP1 PUSH1 0x0 MSTORE PUSH1 0x20 PUSH1 0x0 KECCAK256 SWAP1 JUMPDEST DUP2 SLOAD DUP2 MSTORE SWAP1 PUSH1 0x1 ADD SWAP1 PUSH1 0x20 ADD DUP1 DUP4 GT PUSH3 0x59D JUMPI DUP3 SWAP1 SUB PUSH1 0x1F AND DUP3 ADD SWAP2 JUMPDEST POP POP POP POP POP DUP2 MSTORE PUSH1 0x20 ADD SWAP1 PUSH1 0x1 ADD SWAP1 PUSH3 0x51A JUMP JUMPDEST POP POP POP POP SWAP2 POP DUP1 DUP1 SLOAD DUP1 PUSH1 0x20 MUL PUSH1 0x20 ADD PUSH1 0x40 MLOAD SWAP1 DUP2 ADD PUSH1 0x40 MSTORE DUP1 SWAP3 SWAP2 SWAP1 DUP2 DUP2 MSTORE PUSH1 0x20 ADD PUSH1 0x0 SWAP1 JUMPDEST DUP3 DUP3 LT ISZERO PUSH3 0x6AD JUMPI DUP4 DUP3 SWAP1 PUSH1 0x0 MSTORE PUSH1 0x20 PUSH1 0x0 KECCAK256 ADD DUP1 SLOAD PUSH3 0x619 SWAP1 PUSH3 0xE78 JUMP JUMPDEST DUP1 PUSH1 0x1F ADD PUSH1 0x20 DUP1 SWAP2 DIV MUL PUSH1 0x20 ADD PUSH1 0x40 MLOAD SWAP1 DUP2 ADD PUSH1 0x40 MSTORE DUP1 SWAP3 SWAP2 SWAP1 DUP2 DUP2 MSTORE PUSH1 0x20 ADD DUP3 DUP1 SLOAD PUSH3 0x647 SWAP1 PUSH3 0xE78 JUMP JUMPDEST DUP1 ISZERO PUSH3 0x698 JUMPI DUP1 PUSH1 0x1F LT PUSH3 0x66C JUMPI PUSH2 0x100 DUP1 DUP4 SLOAD DIV MUL DUP4 MSTORE SWAP2 PUSH1 0x20 ADD SWAP2 PUSH3 0x698 JUMP JUMPDEST DUP3 ADD SWAP2 SWAP1 PUSH1 0x0 MSTORE PUSH1 0x20 PUSH1 0x0 KECCAK256 SWAP1 JUMPDEST DUP2 SLOAD DUP2 MSTORE SWAP1 PUSH1 0x1 ADD SWAP1 PUSH1 0x20 ADD DUP1 DUP4 GT PUSH3 0x67A JUMPI DUP3 SWAP1 SUB PUSH1 0x1F AND DUP3 ADD SWAP2 JUMPDEST POP POP POP POP POP DUP2 MSTORE PUSH1 0x20 ADD SWAP1 PUSH1 0x1 ADD SWAP1 PUSH3 0x5F7 JUMP JUMPDEST POP POP POP POP SWAP1 POP SWAP4 POP SWAP4 POP SWAP4 POP SWAP4 POP SWAP1 SWAP2 SWAP3 SWAP4 JUMP JUMPDEST DUP3 DUP1 SLOAD PUSH3 0x6CF SWAP1 PUSH3 0xE78 JUMP JUMPDEST SWAP1 PUSH1 0x0 MSTORE PUSH1 0x20 PUSH1 0x0 KECCAK256 SWAP1 PUSH1 0x1F ADD PUSH1 0x20 SWAP1 DIV DUP2 ADD SWAP3 DUP3 PUSH3 0x6F3 JUMPI PUSH1 0x0 DUP6 SSTORE PUSH3 0x73F JUMP JUMPDEST DUP3 PUSH1 0x1F LT PUSH3 0x70E JUMPI DUP1 MLOAD PUSH1 0xFF NOT AND DUP4 DUP1 ADD OR DUP6 SSTORE PUSH3 0x73F JUMP JUMPDEST DUP3 DUP1 ADD PUSH1 0x1 ADD DUP6 SSTORE DUP3 ISZERO PUSH3 0x73F JUMPI SWAP2 DUP3 ADD JUMPDEST DUP3 DUP2 GT ISZERO PUSH3 0x73E JUMPI DUP3 MLOAD DUP3 SSTORE SWAP2 PUSH1 0x20 ADD SWAP2 SWAP1 PUSH1 0x1 ADD SWAP1 PUSH3 0x721 JUMP JUMPDEST JUMPDEST POP SWAP1 POP PUSH3 0x74E SWAP2 SWAP1 PUSH3 0x760 JUMP JUMPDEST POP SWAP1 JUMP JUMPDEST PUSH2 0x17B4 DUP1 PUSH3 0xFB1 DUP4 CODECOPY ADD SWAP1 JUMP JUMPDEST JUMPDEST DUP1 DUP3 GT ISZERO PUSH3 0x77B JUMPI PUSH1 0x0 DUP2 PUSH1 0x0 SWAP1 SSTORE POP PUSH1 0x1 ADD PUSH3 0x761 JUMP JUMPDEST POP SWAP1 JUMP JUMPDEST PUSH1 0x0 PUSH3 0x796 PUSH3 0x790 DUP5 PUSH3 0xCF8 JUMP JUMPDEST PUSH3 0xCCF JUMP JUMPDEST SWAP1 POP DUP3 DUP2 MSTORE PUSH1 0x20 DUP2 ADD DUP5 DUP5 DUP5 ADD GT ISZERO PUSH3 0x7B5 JUMPI PUSH3 0x7B4 PUSH3 0xF76 JUMP JUMPDEST JUMPDEST PUSH3 0x7C2 DUP5 DUP3 DUP6 PUSH3 0xE33 JUMP JUMPDEST POP SWAP4 SWAP3 POP POP POP JUMP JUMPDEST PUSH1 0x0 DUP3 PUSH1 0x1F DUP4 ADD SLT PUSH3 0x7E2 JUMPI PUSH3 0x7E1 PUSH3 0xF71 JUMP JUMPDEST JUMPDEST DUP2 CALLDATALOAD PUSH3 0x7F4 DUP5 DUP3 PUSH1 0x20 DUP7 ADD PUSH3 0x77F JUMP JUMPDEST SWAP2 POP POP SWAP3 SWAP2 POP POP JUMP JUMPDEST PUSH1 0x0 DUP2 CALLDATALOAD SWAP1 POP PUSH3 0x80E DUP2 PUSH3 0xF96 JUMP JUMPDEST SWAP3 SWAP2 POP POP JUMP JUMPDEST PUSH1 0x0 DUP1 PUSH1 0x0 DUP1 PUSH1 0x80 DUP6 DUP8 SUB SLT ISZERO PUSH3 0x831 JUMPI PUSH3 0x830 PUSH3 0xF80 JUMP JUMPDEST JUMPDEST PUSH1 0x0 DUP6 ADD CALLDATALOAD PUSH8 0xFFFFFFFFFFFFFFFF DUP2 GT ISZERO PUSH3 0x852 JUMPI PUSH3 0x851 PUSH3 0xF7B JUMP JUMPDEST JUMPDEST PUSH3 0x860 DUP8 DUP3 DUP9 ADD PUSH3 0x7CA JUMP JUMPDEST SWAP5 POP POP PUSH1 0x20 DUP6 ADD CALLDATALOAD PUSH8 0xFFFFFFFFFFFFFFFF DUP2 GT ISZERO PUSH3 0x884 JUMPI PUSH3 0x883 PUSH3 0xF7B JUMP JUMPDEST JUMPDEST PUSH3 0x892 DUP8 DUP3 DUP9 ADD PUSH3 0x7CA JUMP JUMPDEST SWAP4 POP POP PUSH1 0x40 DUP6 ADD CALLDATALOAD PUSH8 0xFFFFFFFFFFFFFFFF DUP2 GT ISZERO PUSH3 0x8B6 JUMPI PUSH3 0x8B5 PUSH3 0xF7B JUMP JUMPDEST JUMPDEST PUSH3 0x8C4 DUP8 DUP3 DUP9 ADD PUSH3 0x7CA JUMP JUMPDEST SWAP3 POP POP PUSH1 0x60 PUSH3 0x8D7 DUP8 DUP3 DUP9 ADD PUSH3 0x7FD JUMP JUMPDEST SWAP2 POP POP SWAP3 SWAP6 SWAP2 SWAP5 POP SWAP3 POP JUMP JUMPDEST PUSH1 0x0 DUP1 PUSH1 0x0 DUP1 PUSH1 0x80 DUP6 DUP8 SUB SLT ISZERO PUSH3 0x900 JUMPI PUSH3 0x8FF PUSH3 0xF80 JUMP JUMPDEST JUMPDEST PUSH1 0x0 PUSH3 0x910 DUP8 DUP3 DUP9 ADD PUSH3 0x7FD JUMP JUMPDEST SWAP5 POP POP PUSH1 0x20 DUP6 ADD CALLDATALOAD PUSH8 0xFFFFFFFFFFFFFFFF DUP2 GT ISZERO PUSH3 0x934 JUMPI PUSH3 0x933 PUSH3 0xF7B JUMP JUMPDEST JUMPDEST PUSH3 0x942 DUP8 DUP3 DUP9 ADD PUSH3 0x7CA JUMP JUMPDEST SWAP4 POP POP PUSH1 0x40 DUP6 ADD CALLDATALOAD PUSH8 0xFFFFFFFFFFFFFFFF DUP2 GT ISZERO PUSH3 0x966 JUMPI PUSH3 0x965 PUSH3 0xF7B JUMP JUMPDEST JUMPDEST PUSH3 0x974 DUP8 DUP3 DUP9 ADD PUSH3 0x7CA JUMP JUMPDEST SWAP3 POP POP PUSH1 0x60 DUP6 ADD CALLDATALOAD PUSH8 0xFFFFFFFFFFFFFFFF DUP2 GT ISZERO PUSH3 0x998 JUMPI PUSH3 0x997 PUSH3 0xF7B JUMP JUMPDEST JUMPDEST PUSH3 0x9A6 DUP8 DUP3 DUP9 ADD PUSH3 0x7CA JUMP JUMPDEST SWAP2 POP POP SWAP3 SWAP6 SWAP2 SWAP5 POP SWAP3 POP JUMP JUMPDEST PUSH1 0x0 PUSH3 0x9C0 DUP4 DUP4 PUSH3 0xADE JUMP JUMPDEST PUSH1 0x20 DUP4 ADD SWAP1 POP SWAP3 SWAP2 POP POP JUMP JUMPDEST PUSH1 0x0 PUSH3 0x9DA DUP4 DUP4 PUSH3 0xAEF JUMP JUMPDEST SWAP1 POP SWAP3 SWAP2 POP POP JUMP JUMPDEST PUSH3 0x9ED DUP2 PUSH3 0xDCD JUMP JUMPDEST DUP3 MSTORE POP POP JUMP JUMPDEST PUSH1 0x0 PUSH3 0xA00 DUP3 PUSH3 0xD4E JUMP JUMPDEST PUSH3 0xA0C DUP2 DUP6 PUSH3 0xD89 JUMP JUMPDEST SWAP4 POP PUSH3 0xA19 DUP4 PUSH3 0xD2E JUMP JUMPDEST DUP1 PUSH1 0x0 JUMPDEST DUP4 DUP2 LT ISZERO PUSH3 0xA50 JUMPI DUP2 MLOAD PUSH3 0xA34 DUP9 DUP3 PUSH3 0x9B2 JUMP JUMPDEST SWAP8 POP PUSH3 0xA41 DUP4 PUSH3 0xD6F JUMP JUMPDEST SWAP3 POP POP PUSH1 0x1 DUP2 ADD SWAP1 POP PUSH3 0xA1D JUMP JUMPDEST POP DUP6 SWAP4 POP POP POP POP SWAP3 SWAP2 POP POP JUMP JUMPDEST PUSH1 0x0 PUSH3 0xA6A DUP3 PUSH3 0xD59 JUMP JUMPDEST PUSH3 0xA76 DUP2 DUP6 PUSH3 0xD9A JUMP JUMPDEST SWAP4 POP DUP4 PUSH1 0x20 DUP3 MUL DUP6 ADD PUSH3 0xA8A DUP6 PUSH3 0xD3E JUMP JUMPDEST DUP1 PUSH1 0x0 JUMPDEST DUP6 DUP2 LT ISZERO PUSH3 0xACC JUMPI DUP5 DUP5 SUB DUP10 MSTORE DUP2 MLOAD PUSH3 0xAAA DUP6 DUP3 PUSH3 0x9CC JUMP JUMPDEST SWAP5 POP PUSH3 0xAB7 DUP4 PUSH3 0xD7C JUMP JUMPDEST SWAP3 POP PUSH1 0x20 DUP11 ADD SWAP10 POP POP PUSH1 0x1 DUP2 ADD SWAP1 POP PUSH3 0xA8E JUMP JUMPDEST POP DUP3 SWAP8 POP DUP8 SWAP6 POP POP POP POP POP POP SWAP3 SWAP2 POP POP JUMP JUMPDEST PUSH3 0xAE9 DUP2 PUSH3 0xE0B JUMP JUMPDEST DUP3 MSTORE POP POP JUMP JUMPDEST PUSH1 0x0 PUSH3 0xAFC DUP3 PUSH3 0xD64 JUMP JUMPDEST PUSH3 0xB08 DUP2 DUP6 PUSH3 0xDAB JUMP JUMPDEST SWAP4 POP PUSH3 0xB1A DUP2 DUP6 PUSH1 0x20 DUP7 ADD PUSH3 0xE42 JUMP JUMPDEST PUSH3 0xB25 DUP2 PUSH3 0xF85 JUMP JUMPDEST DUP5 ADD SWAP2 POP POP SWAP3 SWAP2 POP POP JUMP JUMPDEST PUSH1 0x0 PUSH3 0xB3D DUP3 PUSH3 0xD64 JUMP JUMPDEST PUSH3 0xB49 DUP2 DUP6 PUSH3 0xDBC JUMP JUMPDEST SWAP4 POP PUSH3 0xB5B DUP2 DUP6 PUSH1 0x20 DUP7 ADD PUSH3 0xE42 JUMP JUMPDEST PUSH3 0xB66 DUP2 PUSH3 0xF85 JUMP JUMPDEST DUP5 ADD SWAP2 POP POP SWAP3 SWAP2 POP POP JUMP JUMPDEST PUSH3 0xB7C DUP2 PUSH3 0xE01 JUMP JUMPDEST DUP3 MSTORE POP POP JUMP JUMPDEST PUSH1 0x0 PUSH1 0x80 DUP3 ADD SWAP1 POP DUP2 DUP2 SUB PUSH1 0x0 DUP4 ADD MSTORE PUSH3 0xB9E DUP2 DUP8 PUSH3 0x9F3 JUMP JUMPDEST SWAP1 POP DUP2 DUP2 SUB PUSH1 0x20 DUP4 ADD MSTORE PUSH3 0xBB4 DUP2 DUP7 PUSH3 0xA5D JUMP JUMPDEST SWAP1 POP DUP2 DUP2 SUB PUSH1 0x40 DUP4 ADD MSTORE PUSH3 0xBCA DUP2 DUP6 PUSH3 0xA5D JUMP JUMPDEST SWAP1 POP DUP2 DUP2 SUB PUSH1 0x60 DUP4 ADD MSTORE PUSH3 0xBE0 DUP2 DUP5 PUSH3 0xA5D JUMP JUMPDEST SWAP1 POP SWAP6 SWAP5 POP POP POP POP POP JUMP JUMPDEST PUSH1 0x0 PUSH1 0x80 DUP3 ADD SWAP1 POP DUP2 DUP2 SUB PUSH1 0x0 DUP4 ADD MSTORE PUSH3 0xC07 DUP2 DUP8 PUSH3 0xB30 JUMP JUMPDEST SWAP1 POP DUP2 DUP2 SUB PUSH1 0x20 DUP4 ADD MSTORE PUSH3 0xC1D DUP2 DUP7 PUSH3 0xB30 JUMP JUMPDEST SWAP1 POP DUP2 DUP2 SUB PUSH1 0x40 DUP4 ADD MSTORE PUSH3 0xC33 DUP2 DUP6 PUSH3 0xB30 JUMP JUMPDEST SWAP1 POP PUSH3 0xC44 PUSH1 0x60 DUP4 ADD DUP5 PUSH3 0x9E2 JUMP JUMPDEST SWAP6 SWAP5 POP POP POP POP POP JUMP JUMPDEST PUSH1 0x0 PUSH1 0xC0 DUP3 ADD SWAP1 POP PUSH3 0xC64 PUSH1 0x0 DUP4 ADD DUP10 PUSH3 0xB71 JUMP JUMPDEST DUP2 DUP2 SUB PUSH1 0x20 DUP4 ADD MSTORE PUSH3 0xC78 DUP2 DUP9 PUSH3 0xB30 JUMP JUMPDEST SWAP1 POP DUP2 DUP2 SUB PUSH1 0x40 DUP4 ADD MSTORE PUSH3 0xC8E DUP2 DUP8 PUSH3 0xB30 JUMP JUMPDEST SWAP1 POP DUP2 DUP2 SUB PUSH1 0x60 DUP4 ADD MSTORE PUSH3 0xCA4 DUP2 DUP7 PUSH3 0xB30 JUMP JUMPDEST SWAP1 POP PUSH3 0xCB5 PUSH1 0x80 DUP4 ADD DUP6 PUSH3 0x9E2 JUMP JUMPDEST PUSH3 0xCC4 PUSH1 0xA0 DUP4 ADD DUP5 PUSH3 0xB71 JUMP JUMPDEST SWAP8 SWAP7 POP POP POP POP POP POP POP JUMP JUMPDEST PUSH1 0x0 PUSH3 0xCDB PUSH3 0xCEE JUMP JUMPDEST SWAP1 POP PUSH3 0xCE9 DUP3 DUP3 PUSH3 0xEAE JUMP JUMPDEST SWAP2 SWAP1 POP JUMP JUMPDEST PUSH1 0x0 PUSH1 0x40 MLOAD SWAP1 POP SWAP1 JUMP JUMPDEST PUSH1 0x0 PUSH8 0xFFFFFFFFFFFFFFFF DUP3 GT ISZERO PUSH3 0xD16 JUMPI PUSH3 0xD15 PUSH3 0xF42 JUMP JUMPDEST JUMPDEST PUSH3 0xD21 DUP3 PUSH3 0xF85 JUMP JUMPDEST SWAP1 POP PUSH1 0x20 DUP2 ADD SWAP1 POP SWAP2 SWAP1 POP JUMP JUMPDEST PUSH1 0x0 DUP2 SWAP1 POP PUSH1 0x20 DUP3 ADD SWAP1 POP SWAP2 SWAP1 POP JUMP JUMPDEST PUSH1 0x0 DUP2 SWAP1 POP PUSH1 0x20 DUP3 ADD SWAP1 POP SWAP2 SWAP1 POP JUMP JUMPDEST PUSH1 0x0 DUP2 MLOAD SWAP1 POP SWAP2 SWAP1 POP JUMP JUMPDEST PUSH1 0x0 DUP2 MLOAD SWAP1 POP SWAP2 SWAP1 POP JUMP JUMPDEST PUSH1 0x0 DUP2 MLOAD SWAP1 POP SWAP2 SWAP1 POP JUMP JUMPDEST PUSH1 0x0 PUSH1 0x20 DUP3 ADD SWAP1 POP SWAP2 SWAP1 POP JUMP JUMPDEST PUSH1 0x0 PUSH1 0x20 DUP3 ADD SWAP1 POP SWAP2 SWAP1 POP JUMP JUMPDEST PUSH1 0x0 DUP3 DUP3 MSTORE PUSH1 0x20 DUP3 ADD SWAP1 POP SWAP3 SWAP2 POP POP JUMP JUMPDEST PUSH1 0x0 DUP3 DUP3 MSTORE PUSH1 0x20 DUP3 ADD SWAP1 POP SWAP3 SWAP2 POP POP JUMP JUMPDEST PUSH1 0x0 DUP3 DUP3 MSTORE PUSH1 0x20 DUP3 ADD SWAP1 POP SWAP3 SWAP2 POP POP JUMP JUMPDEST PUSH1 0x0 DUP3 DUP3 MSTORE PUSH1 0x20 DUP3 ADD SWAP1 POP SWAP3 SWAP2 POP POP JUMP JUMPDEST PUSH1 0x0 PUSH3 0xDDA DUP3 PUSH3 0xDE1 JUMP JUMPDEST SWAP1 POP SWAP2 SWAP1 POP JUMP JUMPDEST PUSH1 0x0 PUSH20 0xFFFFFFFFFFFFFFFFFFFFFFFFFFFFFFFFFFFFFFFF DUP3 AND SWAP1 POP SWAP2 SWAP1 POP JUMP JUMPDEST PUSH1 0x0 DUP2 SWAP1 POP SWAP2 SWAP1 POP JUMP JUMPDEST PUSH1 0x0 PUSH3 0xE18 DUP3 PUSH3 0xE1F JUMP JUMPDEST SWAP1 POP SWAP2 SWAP1 POP JUMP JUMPDEST PUSH1 0x0 PUSH3 0xE2C DUP3 PUSH3 0xDE1 JUMP JUMPDEST SWAP1 POP SWAP2 SWAP1 POP JUMP JUMPDEST DUP3 DUP2 DUP4 CALLDATACOPY PUSH1 0x0 DUP4 DUP4 ADD MSTORE POP POP POP JUMP JUMPDEST PUSH1 0x0 JUMPDEST DUP4 DUP2 LT ISZERO PUSH3 0xE62 JUMPI DUP1 DUP3 ADD MLOAD DUP2 DUP5 ADD MSTORE PUSH1 0x20 DUP2 ADD SWAP1 POP PUSH3 0xE45 JUMP JUMPDEST DUP4 DUP2 GT ISZERO PUSH3 0xE72 JUMPI PUSH1 0x0 DUP5 DUP5 ADD MSTORE JUMPDEST POP POP POP POP JUMP JUMPDEST PUSH1 0x0 PUSH1 0x2 DUP3 DIV SWAP1 POP PUSH1 0x1 DUP3 AND DUP1 PUSH3 0xE91 JUMPI PUSH1 0x7F DUP3 AND SWAP2 POP JUMPDEST PUSH1 0x20 DUP3 LT DUP2 EQ ISZERO PUSH3 0xEA8 JUMPI PUSH3 0xEA7 PUSH3 0xEE4 JUMP JUMPDEST JUMPDEST POP SWAP2 SWAP1 POP JUMP JUMPDEST PUSH3 0xEB9 DUP3 PUSH3 0xF85 JUMP JUMPDEST DUP2 ADD DUP2 DUP2 LT PUSH8 0xFFFFFFFFFFFFFFFF DUP3 GT OR ISZERO PUSH3 0xEDB JUMPI PUSH3 0xEDA PUSH3 0xF42 JUMP JUMPDEST JUMPDEST DUP1 PUSH1 0x40 MSTORE POP POP POP JUMP JUMPDEST PUSH32 0x4E487B7100000000000000000000000000000000000000000000000000000000 PUSH1 0x0 MSTORE PUSH1 0x22 PUSH1 0x4 MSTORE PUSH1 0x24 PUSH1 0x0 REVERT JUMPDEST PUSH32 0x4E487B7100000000000000000000000000000000000000000000000000000000 PUSH1 0x0 MSTORE PUSH1 0x32 PUSH1 0x4 MSTORE PUSH1 0x24 PUSH1 0x0 REVERT JUMPDEST PUSH32 0x4E487B7100000000000000000000000000000000000000000000000000000000 PUSH1 0x0 MSTORE PUSH1 0x41 PUSH1 0x4 MSTORE PUSH1 0x24 PUSH1 0x0 REVERT JUMPDEST PUSH1 0x0 DUP1 REVERT JUMPDEST PUSH1 0x0 DUP1 REVERT JUMPDEST PUSH1 0x0 DUP1 REVERT JUMPDEST PUSH1 0x0 DUP1 REVERT JUMPDEST PUSH1 0x0 PUSH1 0x1F NOT PUSH1 0x1F DUP4 ADD AND SWAP1 POP SWAP2 SWAP1 POP JUMP JUMPDEST PUSH3 0xFA1 DUP2 PUSH3 0xE01 JUMP JUMPDEST DUP2 EQ PUSH3 0xFAD JUMPI PUSH1 0x0 DUP1 REVERT JUMPDEST POP JUMP INVALID PUSH1 0x80 PUSH1 0x40 MSTORE CALLVALUE DUP1 ISZERO PUSH3 0x11 JUMPI PUSH1 0x0 DUP1 REVERT JUMPDEST POP PUSH1 0x40 MLOAD PUSH3 0x17B4 CODESIZE SUB DUP1 PUSH3 0x17B4 DUP4 CODECOPY DUP2 DUP2 ADD PUSH1 0x40 MSTORE DUP2 ADD SWAP1 PUSH3 0x37 SWAP2 SWAP1 PUSH3 0x248 JUMP JUMPDEST DUP6 PUSH1 0x1 DUP2 SWAP1 SSTORE POP DUP5 PUSH1 0x3 SWAP1 DUP1 MLOAD SWAP1 PUSH1 0x20 ADD SWAP1 PUSH3 0x56 SWAP3 SWAP2 SWAP1 PUSH3 0xEC JUMP JUMPDEST POP DUP4 PUSH1 0x2 SWAP1 DUP1 MLOAD SWAP1 PUSH1 0x20 ADD SWAP1 PUSH3 0x6F SWAP3 SWAP2 SWAP1 PUSH3 0xEC JUMP JUMPDEST POP DUP3 PUSH1 0x4 SWAP1 DUP1 MLOAD SWAP1 PUSH1 0x20 ADD SWAP1 PUSH3 0x88 SWAP3 SWAP2 SWAP1 PUSH3 0xEC JUMP JUMPDEST POP PUSH1 0x0 PUSH1 0x8 DUP2 SWAP1 SSTORE POP PUSH1 0x0 PUSH1 0x6 DUP2 SWAP1 SSTORE POP DUP2 PUSH1 0x0 DUP1 PUSH2 0x100 EXP DUP2 SLOAD DUP2 PUSH20 0xFFFFFFFFFFFFFFFFFFFFFFFFFFFFFFFFFFFFFFFF MUL NOT AND SWAP1 DUP4 PUSH20 0xFFFFFFFFFFFFFFFFFFFFFFFFFFFFFFFFFFFFFFFF AND MUL OR SWAP1 SSTORE POP DUP1 PUSH1 0x9 DUP2 SWAP1 SSTORE POP POP POP POP POP POP POP PUSH3 0x537 JUMP JUMPDEST DUP3 DUP1 SLOAD PUSH3 0xFA SWAP1 PUSH3 0x414 JUMP JUMPDEST SWAP1 PUSH1 0x0 MSTORE PUSH1 0x20 PUSH1 0x0 KECCAK256 SWAP1 PUSH1 0x1F ADD PUSH1 0x20 SWAP1 DIV DUP2 ADD SWAP3 DUP3 PUSH3 0x11E JUMPI PUSH1 0x0 DUP6 SSTORE PUSH3 0x16A JUMP JUMPDEST DUP3 PUSH1 0x1F LT PUSH3 0x139 JUMPI DUP1 MLOAD PUSH1 0xFF NOT AND DUP4 DUP1 ADD OR DUP6 SSTORE PUSH3 0x16A JUMP JUMPDEST DUP3 DUP1 ADD PUSH1 0x1 ADD DUP6 SSTORE DUP3 ISZERO PUSH3 0x16A JUMPI SWAP2 DUP3 ADD JUMPDEST DUP3 DUP2 GT ISZERO PUSH3 0x169 JUMPI DUP3 MLOAD DUP3 SSTORE SWAP2 PUSH1 0x20 ADD SWAP2 SWAP1 PUSH1 0x1 ADD SWAP1 PUSH3 0x14C JUMP JUMPDEST JUMPDEST POP SWAP1 POP PUSH3 0x179 SWAP2 SWAP1 PUSH3 0x17D JUMP JUMPDEST POP SWAP1 JUMP JUMPDEST JUMPDEST DUP1 DUP3 GT ISZERO PUSH3 0x198 JUMPI PUSH1 0x0 DUP2 PUSH1 0x0 SWAP1 SSTORE POP PUSH1 0x1 ADD PUSH3 0x17E JUMP JUMPDEST POP SWAP1 JUMP JUMPDEST PUSH1 0x0 PUSH3 0x1B3 PUSH3 0x1AD DUP5 PUSH3 0x36A JUMP JUMPDEST PUSH3 0x341 JUMP JUMPDEST SWAP1 POP DUP3 DUP2 MSTORE PUSH1 0x20 DUP2 ADD DUP5 DUP5 DUP5 ADD GT ISZERO PUSH3 0x1D2 JUMPI PUSH3 0x1D1 PUSH3 0x4E3 JUMP JUMPDEST JUMPDEST PUSH3 0x1DF DUP5 DUP3 DUP6 PUSH3 0x3DE JUMP JUMPDEST POP SWAP4 SWAP3 POP POP POP JUMP JUMPDEST PUSH1 0x0 DUP2 MLOAD SWAP1 POP PUSH3 0x1F8 DUP2 PUSH3 0x503 JUMP JUMPDEST SWAP3 SWAP2 POP POP JUMP JUMPDEST PUSH1 0x0 DUP3 PUSH1 0x1F DUP4 ADD SLT PUSH3 0x216 JUMPI PUSH3 0x215 PUSH3 0x4DE JUMP JUMPDEST JUMPDEST DUP2 MLOAD PUSH3 0x228 DUP5 DUP3 PUSH1 0x20 DUP7 ADD PUSH3 0x19C JUMP JUMPDEST SWAP2 POP POP SWAP3 SWAP2 POP POP JUMP JUMPDEST PUSH1 0x0 DUP2 MLOAD SWAP1 POP PUSH3 0x242 DUP2 PUSH3 0x51D JUMP JUMPDEST SWAP3 SWAP2 POP POP JUMP JUMPDEST PUSH1 0x0 DUP1 PUSH1 0x0 DUP1 PUSH1 0x0 DUP1 PUSH1 0xC0 DUP8 DUP10 SUB SLT ISZERO PUSH3 0x268 JUMPI PUSH3 0x267 PUSH3 0x4ED JUMP JUMPDEST JUMPDEST PUSH1 0x0 PUSH3 0x278 DUP10 DUP3 DUP11 ADD PUSH3 0x231 JUMP JUMPDEST SWAP7 POP POP PUSH1 0x20 DUP8 ADD MLOAD PUSH8 0xFFFFFFFFFFFFFFFF DUP2 GT ISZERO PUSH3 0x29C JUMPI PUSH3 0x29B PUSH3 0x4E8 JUMP JUMPDEST JUMPDEST PUSH3 0x2AA DUP10 DUP3 DUP11 ADD PUSH3 0x1FE JUMP JUMPDEST SWAP6 POP POP PUSH1 0x40 DUP8 ADD MLOAD PUSH8 0xFFFFFFFFFFFFFFFF DUP2 GT ISZERO PUSH3 0x2CE JUMPI PUSH3 0x2CD PUSH3 0x4E8 JUMP JUMPDEST JUMPDEST PUSH3 0x2DC DUP10 DUP3 DUP11 ADD PUSH3 0x1FE JUMP JUMPDEST SWAP5 POP POP PUSH1 0x60 DUP8 ADD MLOAD PUSH8 0xFFFFFFFFFFFFFFFF DUP2 GT ISZERO PUSH3 0x300 JUMPI PUSH3 0x2FF PUSH3 0x4E8 JUMP JUMPDEST JUMPDEST PUSH3 0x30E DUP10 DUP3 DUP11 ADD PUSH3 0x1FE JUMP JUMPDEST SWAP4 POP POP PUSH1 0x80 PUSH3 0x321 DUP10 DUP3 DUP11 ADD PUSH3 0x1E7 JUMP JUMPDEST SWAP3 POP POP PUSH1 0xA0 PUSH3 0x334 DUP10 DUP3 DUP11 ADD PUSH3 0x231 JUMP JUMPDEST SWAP2 POP POP SWAP3 SWAP6 POP SWAP3 SWAP6 POP SWAP3 SWAP6 JUMP JUMPDEST PUSH1 0x0 PUSH3 0x34D PUSH3 0x360 JUMP JUMPDEST SWAP1 POP PUSH3 0x35B DUP3 DUP3 PUSH3 0x44A JUMP JUMPDEST SWAP2 SWAP1 POP JUMP JUMPDEST PUSH1 0x0 PUSH1 0x40 MLOAD SWAP1 POP SWAP1 JUMP JUMPDEST PUSH1 0x0 PUSH8 0xFFFFFFFFFFFFFFFF DUP3 GT ISZERO PUSH3 0x388 JUMPI PUSH3 0x387 PUSH3 0x4AF JUMP JUMPDEST JUMPDEST PUSH3 0x393 DUP3 PUSH3 0x4F2 JUMP JUMPDEST SWAP1 POP PUSH1 0x20 DUP2 ADD SWAP1 POP SWAP2 SWAP1 POP JUMP JUMPDEST PUSH1 0x0 PUSH3 0x3AD DUP3 PUSH3 0x3B4 JUMP JUMPDEST SWAP1 POP SWAP2 SWAP1 POP JUMP JUMPDEST PUSH1 0x0 PUSH20 0xFFFFFFFFFFFFFFFFFFFFFFFFFFFFFFFFFFFFFFFF DUP3 AND SWAP1 POP SWAP2 SWAP1 POP JUMP JUMPDEST PUSH1 0x0 DUP2 SWAP1 POP SWAP2 SWAP1 POP JUMP JUMPDEST PUSH1 0x0 JUMPDEST DUP4 DUP2 LT ISZERO PUSH3 0x3FE JUMPI DUP1 DUP3 ADD MLOAD DUP2 DUP5 ADD MSTORE PUSH1 0x20 DUP2 ADD SWAP1 POP PUSH3 0x3E1 JUMP JUMPDEST DUP4 DUP2 GT ISZERO PUSH3 0x40E JUMPI PUSH1 0x0 DUP5 DUP5 ADD MSTORE JUMPDEST POP POP POP POP JUMP JUMPDEST PUSH1 0x0 PUSH1 0x2 DUP3 DIV SWAP1 POP PUSH1 0x1 DUP3 AND DUP1 PUSH3 0x42D JUMPI PUSH1 0x7F DUP3 AND SWAP2 POP JUMPDEST PUSH1 0x20 DUP3 LT DUP2 EQ ISZERO PUSH3 0x444 JUMPI PUSH3 0x443 PUSH3 0x480 JUMP JUMPDEST JUMPDEST POP SWAP2 SWAP1 POP JUMP JUMPDEST PUSH3 0x455 DUP3 PUSH3 0x4F2 JUMP JUMPDEST DUP2 ADD DUP2 DUP2 LT PUSH8 0xFFFFFFFFFFFFFFFF DUP3 GT OR ISZERO PUSH3 0x477 JUMPI PUSH3 0x476 PUSH3 0x4AF JUMP JUMPDEST JUMPDEST DUP1 PUSH1 0x40 MSTORE POP POP POP JUMP JUMPDEST PUSH32 0x4E487B7100000000000000000000000000000000000000000000000000000000 PUSH1 0x0 MSTORE PUSH1 0x22 PUSH1 0x4 MSTORE PUSH1 0x24 PUSH1 0x0 REVERT JUMPDEST PUSH32 0x4E487B7100000000000000000000000000000000000000000000000000000000 PUSH1 0x0 MSTORE PUSH1 0x41 PUSH1 0x4 MSTORE PUSH1 0x24 PUSH1 0x0 REVERT JUMPDEST PUSH1 0x0 DUP1 REVERT JUMPDEST PUSH1 0x0 DUP1 REVERT JUMPDEST PUSH1 0x0 DUP1 REVERT JUMPDEST PUSH1 0x0 DUP1 REVERT JUMPDEST PUSH1 0x0 PUSH1 0x1F NOT PUSH1 0x1F DUP4 ADD AND SWAP1 POP SWAP2 SWAP1 POP JUMP JUMPDEST PUSH3 0x50E DUP2 PUSH3 0x3A0 JUMP JUMPDEST DUP2 EQ PUSH3 0x51A JUMPI PUSH1 0x0 DUP1 REVERT JUMPDEST POP JUMP JUMPDEST PUSH3 0x528 DUP2 PUSH3 0x3D4 JUMP JUMPDEST DUP2 EQ PUSH3 0x534 JUMPI PUSH1 0x0 DUP1 REVERT JUMPDEST POP JUMP JUMPDEST PUSH2 0x126D DUP1 PUSH3 0x547 PUSH1 0x0 CODECOPY PUSH1 0x0 RETURN INVALID PUSH1 0x80 PUSH1 0x40 MSTORE PUSH1 0x4 CALLDATASIZE LT PUSH2 0x91 JUMPI PUSH1 0x0 CALLDATALOAD PUSH1 0xE0 SHR DUP1 PUSH4 0x473FC933 GT PUSH2 0x59 JUMPI DUP1 PUSH4 0x473FC933 EQ PUSH2 0x183 JUMPI DUP1 PUSH4 0x81D12C58 EQ PUSH2 0x1AC JUMPI DUP1 PUSH4 0x82FDE093 EQ PUSH2 0x1ED JUMPI DUP1 PUSH4 0xD7BB99BA EQ PUSH2 0x218 JUMPI DUP1 PUSH4 0xD7D1BBDB EQ PUSH2 0x222 JUMPI PUSH2 0x91 JUMP JUMPDEST DUP1 PUSH4 0x3441006 EQ PUSH2 0x96 JUMPI DUP1 PUSH4 0x1B16BB5C EQ PUSH2 0xBF JUMPI DUP1 PUSH4 0x1D0D35F5 EQ PUSH2 0xE8 JUMPI DUP1 PUSH4 0x3FAD1834 EQ PUSH2 0x125 JUMPI DUP1 PUSH4 0x4051DDAC EQ PUSH2 0x150 JUMPI JUMPDEST PUSH1 0x0 DUP1 REVERT JUMPDEST CALLVALUE DUP1 ISZERO PUSH2 0xA2 JUMPI PUSH1 0x0 DUP1 REVERT JUMPDEST POP PUSH2 0xBD PUSH1 0x4 DUP1 CALLDATASIZE SUB DUP2 ADD SWAP1 PUSH2 0xB8 SWAP2 SWAP1 PUSH2 0xD52 JUMP JUMPDEST PUSH2 0x24B JUMP JUMPDEST STOP JUMPDEST CALLVALUE DUP1 ISZERO PUSH2 0xCB JUMPI PUSH1 0x0 DUP1 REVERT JUMPDEST POP PUSH2 0xE6 PUSH1 0x4 DUP1 CALLDATASIZE SUB DUP2 ADD SWAP1 PUSH2 0xE1 SWAP2 SWAP1 PUSH2 0xC28 JUMP JUMPDEST PUSH2 0x385 JUMP JUMPDEST STOP JUMPDEST CALLVALUE DUP1 ISZERO PUSH2 0xF4 JUMPI PUSH1 0x0 DUP1 REVERT JUMPDEST POP PUSH2 0x10F PUSH1 0x4 DUP1 CALLDATASIZE SUB DUP2 ADD SWAP1 PUSH2 0x10A SWAP2 SWAP1 PUSH2 0xBFB JUMP JUMPDEST PUSH2 0x49C JUMP JUMPDEST PUSH1 0x40 MLOAD PUSH2 0x11C SWAP2 SWAP1 PUSH2 0xDF4 JUMP JUMPDEST PUSH1 0x40 MLOAD DUP1 SWAP2 SUB SWAP1 RETURN JUMPDEST CALLVALUE DUP1 ISZERO PUSH2 0x131 JUMPI PUSH1 0x0 DUP1 REVERT JUMPDEST POP PUSH2 0x13A PUSH2 0x4F2 JUMP JUMPDEST PUSH1 0x40 MLOAD PUSH2 0x147 SWAP2 SWAP1 PUSH2 0xE69 JUMP JUMPDEST PUSH1 0x40 MLOAD DUP1 SWAP2 SUB SWAP1 RETURN JUMPDEST CALLVALUE DUP1 ISZERO PUSH2 0x15C JUMPI PUSH1 0x0 DUP1 REVERT JUMPDEST POP PUSH2 0x165 PUSH2 0x4FC JUMP JUMPDEST PUSH1 0x40 MLOAD PUSH2 0x17A SWAP10 SWAP9 SWAP8 SWAP7 SWAP6 SWAP5 SWAP4 SWAP3 SWAP2 SWAP1 PUSH2 0xE84 JUMP JUMPDEST PUSH1 0x40 MLOAD DUP1 SWAP2 SUB SWAP1 RETURN JUMPDEST CALLVALUE DUP1 ISZERO PUSH2 0x18F JUMPI PUSH1 0x0 DUP1 REVERT JUMPDEST POP PUSH2 0x1AA PUSH1 0x4 DUP1 CALLDATASIZE SUB DUP2 ADD SWAP1 PUSH2 0x1A5 SWAP2 SWAP1 PUSH2 0xC97 JUMP JUMPDEST PUSH2 0x6FF JUMP JUMPDEST STOP JUMPDEST CALLVALUE DUP1 ISZERO PUSH2 0x1B8 JUMPI PUSH1 0x0 DUP1 REVERT JUMPDEST POP PUSH2 0x1D3 PUSH1 0x4 DUP1 CALLDATASIZE SUB DUP2 ADD SWAP1 PUSH2 0x1CE SWAP2 SWAP1 PUSH2 0xD52 JUMP JUMPDEST PUSH2 0x7A2 JUMP JUMPDEST PUSH1 0x40 MLOAD PUSH2 0x1E4 SWAP6 SWAP5 SWAP4 SWAP3 SWAP2 SWAP1 PUSH2 0xE0F JUMP JUMPDEST PUSH1 0x40 MLOAD DUP1 SWAP2 SUB SWAP1 RETURN JUMPDEST CALLVALUE DUP1 ISZERO PUSH2 0x1F9 JUMPI PUSH1 0x0 DUP1 REVERT JUMPDEST POP PUSH2 0x202 PUSH2 0x88D JUMP JUMPDEST PUSH1 0x40 MLOAD PUSH2 0x20F SWAP2 SWAP1 PUSH2 0xE69 JUMP JUMPDEST PUSH1 0x40 MLOAD DUP1 SWAP2 SUB SWAP1 RETURN JUMPDEST PUSH2 0x220 PUSH2 0x893 JUMP JUMPDEST STOP JUMPDEST CALLVALUE DUP1 ISZERO PUSH2 0x22E JUMPI PUSH1 0x0 DUP1 REVERT JUMPDEST POP PUSH2 0x249 PUSH1 0x4 DUP1 CALLDATASIZE SUB DUP2 ADD SWAP1 PUSH2 0x244 SWAP2 SWAP1 PUSH2 0xD52 JUMP JUMPDEST PUSH2 0x96B JUMP JUMPDEST STOP JUMPDEST PUSH1 0x0 DUP1 SLOAD SWAP1 PUSH2 0x100 EXP SWAP1 DIV PUSH20 0xFFFFFFFFFFFFFFFFFFFFFFFFFFFFFFFFFFFFFFFF AND PUSH20 0xFFFFFFFFFFFFFFFFFFFFFFFFFFFFFFFFFFFFFFFF AND CALLER PUSH20 0xFFFFFFFFFFFFFFFFFFFFFFFFFFFFFFFFFFFFFFFF AND EQ PUSH2 0x2A3 JUMPI PUSH1 0x0 DUP1 REVERT JUMPDEST PUSH1 0x0 PUSH1 0x5 PUSH1 0x0 DUP4 DUP2 MSTORE PUSH1 0x20 ADD SWAP1 DUP2 MSTORE PUSH1 0x20 ADD PUSH1 0x0 KECCAK256 SWAP1 POP PUSH1 0x2 PUSH1 0x8 SLOAD PUSH2 0x2C9 SWAP2 SWAP1 PUSH2 0xF98 JUMP JUMPDEST DUP2 PUSH1 0x4 ADD SLOAD LT ISZERO PUSH2 0x2D9 JUMPI PUSH1 0x0 DUP1 REVERT JUMPDEST DUP1 PUSH1 0x5 ADD PUSH1 0x0 SWAP1 SLOAD SWAP1 PUSH2 0x100 EXP SWAP1 DIV PUSH1 0xFF AND ISZERO PUSH2 0x2F5 JUMPI PUSH1 0x0 DUP1 REVERT JUMPDEST DUP1 PUSH1 0x2 ADD PUSH1 0x0 SWAP1 SLOAD SWAP1 PUSH2 0x100 EXP SWAP1 DIV PUSH20 0xFFFFFFFFFFFFFFFFFFFFFFFFFFFFFFFFFFFFFFFF AND PUSH20 0xFFFFFFFFFFFFFFFFFFFFFFFFFFFFFFFFFFFFFFFF AND PUSH2 0x8FC DUP3 PUSH1 0x1 ADD SLOAD SWAP1 DUP2 ISZERO MUL SWAP1 PUSH1 0x40 MLOAD PUSH1 0x0 PUSH1 0x40 MLOAD DUP1 DUP4 SUB DUP2 DUP6 DUP9 DUP9 CALL SWAP4 POP POP POP POP ISZERO DUP1 ISZERO PUSH2 0x363 JUMPI RETURNDATASIZE PUSH1 0x0 DUP1 RETURNDATACOPY RETURNDATASIZE PUSH1 0x0 REVERT JUMPDEST POP PUSH1 0x1 DUP2 PUSH1 0x5 ADD PUSH1 0x0 PUSH2 0x100 EXP DUP2 SLOAD DUP2 PUSH1 0xFF MUL NOT AND SWAP1 DUP4 ISZERO ISZERO MUL OR SWAP1 SSTORE POP POP POP JUMP JUMPDEST PUSH1 0x0 DUP1 SLOAD SWAP1 PUSH2 0x100 EXP SWAP1 DIV PUSH20 0xFFFFFFFFFFFFFFFFFFFFFFFFFFFFFFFFFFFFFFFF AND PUSH20 0xFFFFFFFFFFFFFFFFFFFFFFFFFFFFFFFFFFFFFFFF AND CALLER PUSH20 0xFFFFFFFFFFFFFFFFFFFFFFFFFFFFFFFFFFFFFFFF AND EQ PUSH2 0x3DD JUMPI PUSH1 0x0 DUP1 REVERT JUMPDEST PUSH1 0x0 PUSH1 0x5 PUSH1 0x0 PUSH1 0x6 PUSH1 0x0 DUP2 SLOAD DUP1 SWAP3 SWAP2 SWAP1 PUSH2 0x3F6 SWAP1 PUSH2 0x10C8 JUMP JUMPDEST SWAP2 SWAP1 POP SSTORE DUP2 MSTORE PUSH1 0x20 ADD SWAP1 DUP2 MSTORE PUSH1 0x20 ADD PUSH1 0x0 KECCAK256 SWAP1 POP DUP4 DUP2 PUSH1 0x0 ADD SWAP1 DUP1 MLOAD SWAP1 PUSH1 0x20 ADD SWAP1 PUSH2 0x422 SWAP3 SWAP2 SWAP1 PUSH2 0xAA9 JUMP JUMPDEST POP DUP3 DUP2 PUSH1 0x2 ADD PUSH1 0x0 PUSH2 0x100 EXP DUP2 SLOAD DUP2 PUSH20 0xFFFFFFFFFFFFFFFFFFFFFFFFFFFFFFFFFFFFFFFF MUL NOT AND SWAP1 DUP4 PUSH20 0xFFFFFFFFFFFFFFFFFFFFFFFFFFFFFFFFFFFFFFFF AND MUL OR SWAP1 SSTORE POP DUP2 DUP2 PUSH1 0x1 ADD DUP2 SWAP1 SSTORE POP PUSH1 0x0 DUP2 PUSH1 0x4 ADD DUP2 SWAP1 SSTORE POP PUSH1 0x0 DUP2 PUSH1 0x5 ADD PUSH1 0x0 PUSH2 0x100 EXP DUP2 SLOAD DUP2 PUSH1 0xFF MUL NOT AND SWAP1 DUP4 ISZERO ISZERO MUL OR SWAP1 SSTORE POP POP POP POP POP JUMP JUMPDEST PUSH1 0x0 PUSH1 0x7 PUSH1 0x0 DUP4 PUSH20 0xFFFFFFFFFFFFFFFFFFFFFFFFFFFFFFFFFFFFFFFF AND PUSH20 0xFFFFFFFFFFFFFFFFFFFFFFFFFFFFFFFFFFFFFFFF AND DUP2 MSTORE PUSH1 0x20 ADD SWAP1 DUP2 MSTORE PUSH1 0x20 ADD PUSH1 0x0 KECCAK256 PUSH1 0x0 SWAP1 SLOAD SWAP1 PUSH2 0x100 EXP SWAP1 DIV PUSH1 0xFF AND SWAP1 POP SWAP2 SWAP1 POP JUMP JUMPDEST PUSH1 0x0 PUSH1 0x6 SLOAD SWAP1 POP SWAP1 JUMP JUMPDEST PUSH1 0x0 DUP1 PUSH1 0x0 DUP1 PUSH1 0x60 DUP1 PUSH1 0x60 PUSH1 0x0 DUP1 PUSH1 0x1 SLOAD PUSH1 0x6 SLOAD PUSH1 0x8 SLOAD SELFBALANCE PUSH1 0x3 PUSH1 0x2 PUSH1 0x4 PUSH1 0x0 DUP1 SLOAD SWAP1 PUSH2 0x100 EXP SWAP1 DIV PUSH20 0xFFFFFFFFFFFFFFFFFFFFFFFFFFFFFFFFFFFFFFFF AND PUSH1 0x9 SLOAD DUP5 DUP1 SLOAD PUSH2 0x54A SWAP1 PUSH2 0x1065 JUMP JUMPDEST DUP1 PUSH1 0x1F ADD PUSH1 0x20 DUP1 SWAP2 DIV MUL PUSH1 0x20 ADD PUSH1 0x40 MLOAD SWAP1 DUP2 ADD PUSH1 0x40 MSTORE DUP1 SWAP3 SWAP2 SWAP1 DUP2 DUP2 MSTORE PUSH1 0x20 ADD DUP3 DUP1 SLOAD PUSH2 0x576 SWAP1 PUSH2 0x1065 JUMP JUMPDEST DUP1 ISZERO PUSH2 0x5C3 JUMPI DUP1 PUSH1 0x1F LT PUSH2 0x598 JUMPI PUSH2 0x100 DUP1 DUP4 SLOAD DIV MUL DUP4 MSTORE SWAP2 PUSH1 0x20 ADD SWAP2 PUSH2 0x5C3 JUMP JUMPDEST DUP3 ADD SWAP2 SWAP1 PUSH1 0x0 MSTORE PUSH1 0x20 PUSH1 0x0 KECCAK256 SWAP1 JUMPDEST DUP2 SLOAD DUP2 MSTORE SWAP1 PUSH1 0x1 ADD SWAP1 PUSH1 0x20 ADD DUP1 DUP4 GT PUSH2 0x5A6 JUMPI DUP3 SWAP1 SUB PUSH1 0x1F AND DUP3 ADD SWAP2 JUMPDEST POP POP POP POP POP SWAP5 POP DUP4 DUP1 SLOAD PUSH2 0x5D6 SWAP1 PUSH2 0x1065 JUMP JUMPDEST DUP1 PUSH1 0x1F ADD PUSH1 0x20 DUP1 SWAP2 DIV MUL PUSH1 0x20 ADD PUSH1 0x40 MLOAD SWAP1 DUP2 ADD PUSH1 0x40 MSTORE DUP1 SWAP3 SWAP2 SWAP1 DUP2 DUP2 MSTORE PUSH1 0x20 ADD DUP3 DUP1 SLOAD PUSH2 0x602 SWAP1 PUSH2 0x1065 JUMP JUMPDEST DUP1 ISZERO PUSH2 0x64F JUMPI DUP1 PUSH1 0x1F LT PUSH2 0x624 JUMPI PUSH2 0x100 DUP1 DUP4 SLOAD DIV MUL DUP4 MSTORE SWAP2 PUSH1 0x20 ADD SWAP2 PUSH2 0x64F JUMP JUMPDEST DUP3 ADD SWAP2 SWAP1 PUSH1 0x0 MSTORE PUSH1 0x20 PUSH1 0x0 KECCAK256 SWAP1 JUMPDEST DUP2 SLOAD DUP2 MSTORE SWAP1 PUSH1 0x1 ADD SWAP1 PUSH1 0x20 ADD DUP1 DUP4 GT PUSH2 0x632 JUMPI DUP3 SWAP1 SUB PUSH1 0x1F AND DUP3 ADD SWAP2 JUMPDEST POP POP POP POP POP SWAP4 POP DUP3 DUP1 SLOAD PUSH2 0x662 SWAP1 PUSH2 0x1065 JUMP JUMPDEST DUP1 PUSH1 0x1F ADD PUSH1 0x20 DUP1 SWAP2 DIV MUL PUSH1 0x20 ADD PUSH1 0x40 MLOAD SWAP1 DUP2 ADD PUSH1 0x40 MSTORE DUP1 SWAP3 SWAP2 SWAP1 DUP2 DUP2 MSTORE PUSH1 0x20 ADD DUP3 DUP1 SLOAD PUSH2 0x68E SWAP1 PUSH2 0x1065 JUMP JUMPDEST DUP1 ISZERO PUSH2 0x6DB JUMPI DUP1 PUSH1 0x1F LT PUSH2 0x6B0 JUMPI PUSH2 0x100 DUP1 DUP4 SLOAD DIV MUL DUP4 MSTORE SWAP2 PUSH1 0x20 ADD SWAP2 PUSH2 0x6DB JUMP JUMPDEST DUP3 ADD SWAP2 SWAP1 PUSH1 0x0 MSTORE PUSH1 0x20 PUSH1 0x0 KECCAK256 SWAP1 JUMPDEST DUP2 SLOAD DUP2 MSTORE SWAP1 PUSH1 0x1 ADD SWAP1 PUSH1 0x20 ADD DUP1 DUP4 GT PUSH2 0x6BE JUMPI DUP3 SWAP1 SUB PUSH1 0x1F AND DUP3 ADD SWAP2 JUMPDEST POP POP POP POP POP SWAP3 POP SWAP9 POP SWAP9 POP SWAP9 POP SWAP9 POP SWAP9 POP SWAP9 POP SWAP9 POP SWAP9 POP SWAP9 POP SWAP1 SWAP2 SWAP3 SWAP4 SWAP5 SWAP6 SWAP7 SWAP8 SWAP9 JUMP JUMPDEST PUSH1 0x0 DUP1 SLOAD SWAP1 PUSH2 0x100 EXP SWAP1 DIV PUSH20 0xFFFFFFFFFFFFFFFFFFFFFFFFFFFFFFFFFFFFFFFF AND PUSH20 0xFFFFFFFFFFFFFFFFFFFFFFFFFFFFFFFFFFFFFFFF AND DUP2 PUSH20 0xFFFFFFFFFFFFFFFFFFFFFFFFFFFFFFFFFFFFFFFF AND EQ PUSH2 0x757 JUMPI PUSH1 0x0 DUP1 REVERT JUMPDEST DUP4 PUSH1 0x3 SWAP1 DUP1 MLOAD SWAP1 PUSH1 0x20 ADD SWAP1 PUSH2 0x76D SWAP3 SWAP2 SWAP1 PUSH2 0xAA9 JUMP JUMPDEST POP DUP3 PUSH1 0x2 SWAP1 DUP1 MLOAD SWAP1 PUSH1 0x20 ADD SWAP1 PUSH2 0x784 SWAP3 SWAP2 SWAP1 PUSH2 0xAA9 JUMP JUMPDEST POP DUP2 PUSH1 0x4 SWAP1 DUP1 MLOAD SWAP1 PUSH1 0x20 ADD SWAP1 PUSH2 0x79B SWAP3 SWAP2 SWAP1 PUSH2 0xAA9 JUMP JUMPDEST POP POP POP POP POP JUMP JUMPDEST PUSH1 0x5 PUSH1 0x20 MSTORE DUP1 PUSH1 0x0 MSTORE PUSH1 0x40 PUSH1 0x0 KECCAK256 PUSH1 0x0 SWAP2 POP SWAP1 POP DUP1 PUSH1 0x0 ADD DUP1 SLOAD PUSH2 0x7C5 SWAP1 PUSH2 0x1065 JUMP JUMPDEST DUP1 PUSH1 0x1F ADD PUSH1 0x20 DUP1 SWAP2 DIV MUL PUSH1 0x20 ADD PUSH1 0x40 MLOAD SWAP1 DUP2 ADD PUSH1 0x40 MSTORE DUP1 SWAP3 SWAP2 SWAP1 DUP2 DUP2 MSTORE PUSH1 0x20 ADD DUP3 DUP1 SLOAD PUSH2 0x7F1 SWAP1 PUSH2 0x1065 JUMP JUMPDEST DUP1 ISZERO PUSH2 0x83E JUMPI DUP1 PUSH1 0x1F LT PUSH2 0x813 JUMPI PUSH2 0x100 DUP1 DUP4 SLOAD DIV MUL DUP4 MSTORE SWAP2 PUSH1 0x20 ADD SWAP2 PUSH2 0x83E JUMP JUMPDEST DUP3 ADD SWAP2 SWAP1 PUSH1 0x0 MSTORE PUSH1 0x20 PUSH1 0x0 KECCAK256 SWAP1 JUMPDEST DUP2 SLOAD DUP2 MSTORE SWAP1 PUSH1 0x1 ADD SWAP1 PUSH1 0x20 ADD DUP1 DUP4 GT PUSH2 0x821 JUMPI DUP3 SWAP1 SUB PUSH1 0x1F AND DUP3 ADD SWAP2 JUMPDEST POP POP POP POP POP SWAP1 DUP1 PUSH1 0x1 ADD SLOAD SWAP1 DUP1 PUSH1 0x2 ADD PUSH1 0x0 SWAP1 SLOAD SWAP1 PUSH2 0x100 EXP SWAP1 DIV PUSH20 0xFFFFFFFFFFFFFFFFFFFFFFFFFFFFFFFFFFFFFFFF AND SWAP1 DUP1 PUSH1 0x4 ADD SLOAD SWAP1 DUP1 PUSH1 0x5 ADD PUSH1 0x0 SWAP1 SLOAD SWAP1 PUSH2 0x100 EXP SWAP1 DIV PUSH1 0xFF AND SWAP1 POP DUP6 JUMP JUMPDEST PUSH1 0x8 SLOAD DUP2 JUMP JUMPDEST PUSH1 0x1 SLOAD CALLVALUE LT ISZERO PUSH2 0x8A2 JUMPI PUSH1 0x0 DUP1 REVERT JUMPDEST PUSH1 0x7 PUSH1 0x0 CALLER PUSH20 0xFFFFFFFFFFFFFFFFFFFFFFFFFFFFFFFFFFFFFFFF AND PUSH20 0xFFFFFFFFFFFFFFFFFFFFFFFFFFFFFFFFFFFFFFFF AND DUP2 MSTORE PUSH1 0x20 ADD SWAP1 DUP2 MSTORE PUSH1 0x20 ADD PUSH1 0x0 KECCAK256 PUSH1 0x0 SWAP1 SLOAD SWAP1 PUSH2 0x100 EXP SWAP1 DIV PUSH1 0xFF AND ISZERO PUSH2 0x8F9 JUMPI PUSH1 0x0 DUP1 REVERT JUMPDEST PUSH1 0x1 PUSH1 0x7 PUSH1 0x0 CALLER PUSH20 0xFFFFFFFFFFFFFFFFFFFFFFFFFFFFFFFFFFFFFFFF AND PUSH20 0xFFFFFFFFFFFFFFFFFFFFFFFFFFFFFFFFFFFFFFFF AND DUP2 MSTORE PUSH1 0x20 ADD SWAP1 DUP2 MSTORE PUSH1 0x20 ADD PUSH1 0x0 KECCAK256 PUSH1 0x0 PUSH2 0x100 EXP DUP2 SLOAD DUP2 PUSH1 0xFF MUL NOT AND SWAP1 DUP4 ISZERO ISZERO MUL OR SWAP1 SSTORE POP PUSH1 0x8 PUSH1 0x0 DUP2 SLOAD DUP1 SWAP3 SWAP2 SWAP1 PUSH2 0x964 SWAP1 PUSH2 0x10C8 JUMP JUMPDEST SWAP2 SWAP1 POP SSTORE POP JUMP JUMPDEST PUSH1 0x7 PUSH1 0x0 CALLER PUSH20 0xFFFFFFFFFFFFFFFFFFFFFFFFFFFFFFFFFFFFFFFF AND PUSH20 0xFFFFFFFFFFFFFFFFFFFFFFFFFFFFFFFFFFFFFFFF AND DUP2 MSTORE PUSH1 0x20 ADD SWAP1 DUP2 MSTORE PUSH1 0x20 ADD PUSH1 0x0 KECCAK256 PUSH1 0x0 SWAP1 SLOAD SWAP1 PUSH2 0x100 EXP SWAP1 DIV PUSH1 0xFF AND PUSH2 0x9C1 JUMPI PUSH1 0x0 DUP1 REVERT JUMPDEST PUSH1 0x0 PUSH1 0x5 PUSH1 0x0 DUP4 DUP2 MSTORE PUSH1 0x20 ADD SWAP1 DUP2 MSTORE PUSH1 0x20 ADD PUSH1 0x0 KECCAK256 SWAP1 POP DUP1 PUSH1 0x3 ADD PUSH1 0x0 CALLER PUSH20 0xFFFFFFFFFFFFFFFFFFFFFFFFFFFFFFFFFFFFFFFF AND PUSH20 0xFFFFFFFFFFFFFFFFFFFFFFFFFFFFFFFFFFFFFFFF AND DUP2 MSTORE PUSH1 0x20 ADD SWAP1 DUP2 MSTORE PUSH1 0x20 ADD PUSH1 0x0 KECCAK256 PUSH1 0x0 SWAP1 SLOAD SWAP1 PUSH2 0x100 EXP SWAP1 DIV PUSH1 0xFF AND ISZERO PUSH2 0xA31 JUMPI PUSH1 0x0 DUP1 REVERT JUMPDEST PUSH1 0x1 DUP2 PUSH1 0x3 ADD PUSH1 0x0 CALLER PUSH20 0xFFFFFFFFFFFFFFFFFFFFFFFFFFFFFFFFFFFFFFFF AND PUSH20 0xFFFFFFFFFFFFFFFFFFFFFFFFFFFFFFFFFFFFFFFF AND DUP2 MSTORE PUSH1 0x20 ADD SWAP1 DUP2 MSTORE PUSH1 0x20 ADD PUSH1 0x0 KECCAK256 PUSH1 0x0 PUSH2 0x100 EXP DUP2 SLOAD DUP2 PUSH1 0xFF MUL NOT AND SWAP1 DUP4 ISZERO ISZERO MUL OR SWAP1 SSTORE POP DUP1 PUSH1 0x4 ADD PUSH1 0x0 DUP2 SLOAD DUP1 SWAP3 SWAP2 SWAP1 PUSH2 0xAA0 SWAP1 PUSH2 0x10C8 JUMP JUMPDEST SWAP2 SWAP1 POP SSTORE POP POP POP JUMP JUMPDEST DUP3 DUP1 SLOAD PUSH2 0xAB5 SWAP1 PUSH2 0x1065 JUMP JUMPDEST SWAP1 PUSH1 0x0 MSTORE PUSH1 0x20 PUSH1 0x0 KECCAK256 SWAP1 PUSH1 0x1F ADD PUSH1 0x20 SWAP1 DIV DUP2 ADD SWAP3 DUP3 PUSH2 0xAD7 JUMPI PUSH1 0x0 DUP6 SSTORE PUSH2 0xB1E JUMP JUMPDEST DUP3 PUSH1 0x1F LT PUSH2 0xAF0 JUMPI DUP1 MLOAD PUSH1 0xFF NOT AND DUP4 DUP1 ADD OR DUP6 SSTORE PUSH2 0xB1E JUMP JUMPDEST DUP3 DUP1 ADD PUSH1 0x1 ADD DUP6 SSTORE DUP3 ISZERO PUSH2 0xB1E JUMPI SWAP2 DUP3 ADD JUMPDEST DUP3 DUP2 GT ISZERO PUSH2 0xB1D JUMPI DUP3 MLOAD DUP3 SSTORE SWAP2 PUSH1 0x20 ADD SWAP2 SWAP1 PUSH1 0x1 ADD SWAP1 PUSH2 0xB02 JUMP JUMPDEST JUMPDEST POP SWAP1 POP PUSH2 0xB2B SWAP2 SWAP1 PUSH2 0xB2F JUMP JUMPDEST POP SWAP1 JUMP JUMPDEST JUMPDEST DUP1 DUP3 GT ISZERO PUSH2 0xB48 JUMPI PUSH1 0x0 DUP2 PUSH1 0x0 SWAP1 SSTORE POP PUSH1 0x1 ADD PUSH2 0xB30 JUMP JUMPDEST POP SWAP1 JUMP JUMPDEST PUSH1 0x0 PUSH2 0xB5F PUSH2 0xB5A DUP5 PUSH2 0xF4B JUMP JUMPDEST PUSH2 0xF26 JUMP JUMPDEST SWAP1 POP DUP3 DUP2 MSTORE PUSH1 0x20 DUP2 ADD DUP5 DUP5 DUP5 ADD GT ISZERO PUSH2 0xB7B JUMPI PUSH2 0xB7A PUSH2 0x11D2 JUMP JUMPDEST JUMPDEST PUSH2 0xB86 DUP5 DUP3 DUP6 PUSH2 0x1023 JUMP JUMPDEST POP SWAP4 SWAP3 POP POP POP JUMP JUMPDEST PUSH1 0x0 DUP2 CALLDATALOAD SWAP1 POP PUSH2 0xB9D DUP2 PUSH2 0x11F2 JUMP JUMPDEST SWAP3 SWAP2 POP POP JUMP JUMPDEST PUSH1 0x0 DUP2 CALLDATALOAD SWAP1 POP PUSH2 0xBB2 DUP2 PUSH2 0x1209 JUMP JUMPDEST SWAP3 SWAP2 POP POP JUMP JUMPDEST PUSH1 0x0 DUP3 PUSH1 0x1F DUP4 ADD SLT PUSH2 0xBCD JUMPI PUSH2 0xBCC PUSH2 0x11CD JUMP JUMPDEST JUMPDEST DUP2 CALLDATALOAD PUSH2 0xBDD DUP5 DUP3 PUSH1 0x20 DUP7 ADD PUSH2 0xB4C JUMP JUMPDEST SWAP2 POP POP SWAP3 SWAP2 POP POP JUMP JUMPDEST PUSH1 0x0 DUP2 CALLDATALOAD SWAP1 POP PUSH2 0xBF5 DUP2 PUSH2 0x1220 JUMP JUMPDEST SWAP3 SWAP2 POP POP JUMP JUMPDEST PUSH1 0x0 PUSH1 0x20 DUP3 DUP5 SUB SLT ISZERO PUSH2 0xC11 JUMPI PUSH2 0xC10 PUSH2 0x11DC JUMP JUMPDEST JUMPDEST PUSH1 0x0 PUSH2 0xC1F DUP5 DUP3 DUP6 ADD PUSH2 0xB8E JUMP JUMPDEST SWAP2 POP POP SWAP3 SWAP2 POP POP JUMP JUMPDEST PUSH1 0x0 DUP1 PUSH1 0x0 PUSH1 0x60 DUP5 DUP7 SUB SLT ISZERO PUSH2 0xC41 JUMPI PUSH2 0xC40 PUSH2 0x11DC JUMP JUMPDEST JUMPDEST PUSH1 0x0 DUP5 ADD CALLDATALOAD PUSH8 0xFFFFFFFFFFFFFFFF DUP2 GT ISZERO PUSH2 0xC5F JUMPI PUSH2 0xC5E PUSH2 0x11D7 JUMP JUMPDEST JUMPDEST PUSH2 0xC6B DUP7 DUP3 DUP8 ADD PUSH2 0xBB8 JUMP JUMPDEST SWAP4 POP POP PUSH1 0x20 PUSH2 0xC7C DUP7 DUP3 DUP8 ADD PUSH2 0xBA3 JUMP JUMPDEST SWAP3 POP POP PUSH1 0x40 PUSH2 0xC8D DUP7 DUP3 DUP8 ADD PUSH2 0xBE6 JUMP JUMPDEST SWAP2 POP POP SWAP3 POP SWAP3 POP SWAP3 JUMP JUMPDEST PUSH1 0x0 DUP1 PUSH1 0x0 DUP1 PUSH1 0x80 DUP6 DUP8 SUB SLT ISZERO PUSH2 0xCB1 JUMPI PUSH2 0xCB0 PUSH2 0x11DC JUMP JUMPDEST JUMPDEST PUSH1 0x0 DUP6 ADD CALLDATALOAD PUSH8 0xFFFFFFFFFFFFFFFF DUP2 GT ISZERO PUSH2 0xCCF JUMPI PUSH2 0xCCE PUSH2 0x11D7 JUMP JUMPDEST JUMPDEST PUSH2 0xCDB DUP8 DUP3 DUP9 ADD PUSH2 0xBB8 JUMP JUMPDEST SWAP5 POP POP PUSH1 0x20 DUP6 ADD CALLDATALOAD PUSH8 0xFFFFFFFFFFFFFFFF DUP2 GT ISZERO PUSH2 0xCFC JUMPI PUSH2 0xCFB PUSH2 0x11D7 JUMP JUMPDEST JUMPDEST PUSH2 0xD08 DUP8 DUP3 DUP9 ADD PUSH2 0xBB8 JUMP JUMPDEST SWAP4 POP POP PUSH1 0x40 DUP6 ADD CALLDATALOAD PUSH8 0xFFFFFFFFFFFFFFFF DUP2 GT ISZERO PUSH2 0xD29 JUMPI PUSH2 0xD28 PUSH2 0x11D7 JUMP JUMPDEST JUMPDEST PUSH2 0xD35 DUP8 DUP3 DUP9 ADD PUSH2 0xBB8 JUMP JUMPDEST SWAP3 POP POP PUSH1 0x60 PUSH2 0xD46 DUP8 DUP3 DUP9 ADD PUSH2 0xB8E JUMP JUMPDEST SWAP2 POP POP SWAP3 SWAP6 SWAP2 SWAP5 POP SWAP3 POP JUMP JUMPDEST PUSH1 0x0 PUSH1 0x20 DUP3 DUP5 SUB SLT ISZERO PUSH2 0xD68 JUMPI PUSH2 0xD67 PUSH2 0x11DC JUMP JUMPDEST JUMPDEST PUSH1 0x0 PUSH2 0xD76 DUP5 DUP3 DUP6 ADD PUSH2 0xBE6 JUMP JUMPDEST SWAP2 POP POP SWAP3 SWAP2 POP POP JUMP JUMPDEST PUSH2 0xD88 DUP2 PUSH2 0xFDB JUMP JUMPDEST DUP3 MSTORE POP POP JUMP JUMPDEST PUSH2 0xD97 DUP2 PUSH2 0xFC9 JUMP JUMPDEST DUP3 MSTORE POP POP JUMP JUMPDEST PUSH2 0xDA6 DUP2 PUSH2 0xFED JUMP JUMPDEST DUP3 MSTORE POP POP JUMP JUMPDEST PUSH1 0x0 PUSH2 0xDB7 DUP3 PUSH2 0xF7C JUMP JUMPDEST PUSH2 0xDC1 DUP2 DUP6 PUSH2 0xF87 JUMP JUMPDEST SWAP4 POP PUSH2 0xDD1 DUP2 DUP6 PUSH1 0x20 DUP7 ADD PUSH2 0x1032 JUMP JUMPDEST PUSH2 0xDDA DUP2 PUSH2 0x11E1 JUMP JUMPDEST DUP5 ADD SWAP2 POP POP SWAP3 SWAP2 POP POP JUMP JUMPDEST PUSH2 0xDEE DUP2 PUSH2 0x1019 JUMP JUMPDEST DUP3 MSTORE POP POP JUMP JUMPDEST PUSH1 0x0 PUSH1 0x20 DUP3 ADD SWAP1 POP PUSH2 0xE09 PUSH1 0x0 DUP4 ADD DUP5 PUSH2 0xD9D JUMP JUMPDEST SWAP3 SWAP2 POP POP JUMP JUMPDEST PUSH1 0x0 PUSH1 0xA0 DUP3 ADD SWAP1 POP DUP2 DUP2 SUB PUSH1 0x0 DUP4 ADD MSTORE PUSH2 0xE29 DUP2 DUP9 PUSH2 0xDAC JUMP JUMPDEST SWAP1 POP PUSH2 0xE38 PUSH1 0x20 DUP4 ADD DUP8 PUSH2 0xDE5 JUMP JUMPDEST PUSH2 0xE45 PUSH1 0x40 DUP4 ADD DUP7 PUSH2 0xD7F JUMP JUMPDEST PUSH2 0xE52 PUSH1 0x60 DUP4 ADD DUP6 PUSH2 0xDE5 JUMP JUMPDEST PUSH2 0xE5F PUSH1 0x80 DUP4 ADD DUP5 PUSH2 0xD9D JUMP JUMPDEST SWAP7 SWAP6 POP POP POP POP POP POP JUMP JUMPDEST PUSH1 0x0 PUSH1 0x20 DUP3 ADD SWAP1 POP PUSH2 0xE7E PUSH1 0x0 DUP4 ADD DUP5 PUSH2 0xDE5 JUMP JUMPDEST SWAP3 SWAP2 POP POP JUMP JUMPDEST PUSH1 0x0 PUSH2 0x120 DUP3 ADD SWAP1 POP PUSH2 0xE9A PUSH1 0x0 DUP4 ADD DUP13 PUSH2 0xDE5 JUMP JUMPDEST PUSH2 0xEA7 PUSH1 0x20 DUP4 ADD DUP12 PUSH2 0xDE5 JUMP JUMPDEST PUSH2 0xEB4 PUSH1 0x40 DUP4 ADD DUP11 PUSH2 0xDE5 JUMP JUMPDEST PUSH2 0xEC1 PUSH1 0x60 DUP4 ADD DUP10 PUSH2 0xDE5 JUMP JUMPDEST DUP2 DUP2 SUB PUSH1 0x80 DUP4 ADD MSTORE PUSH2 0xED3 DUP2 DUP9 PUSH2 0xDAC JUMP JUMPDEST SWAP1 POP DUP2 DUP2 SUB PUSH1 0xA0 DUP4 ADD MSTORE PUSH2 0xEE7 DUP2 DUP8 PUSH2 0xDAC JUMP JUMPDEST SWAP1 POP DUP2 DUP2 SUB PUSH1 0xC0 DUP4 ADD MSTORE PUSH2 0xEFB DUP2 DUP7 PUSH2 0xDAC JUMP JUMPDEST SWAP1 POP PUSH2 0xF0A PUSH1 0xE0 DUP4 ADD DUP6 PUSH2 0xD8E JUMP JUMPDEST PUSH2 0xF18 PUSH2 0x100 DUP4 ADD DUP5 PUSH2 0xDE5 JUMP JUMPDEST SWAP11 SWAP10 POP POP POP POP POP POP POP POP POP POP JUMP JUMPDEST PUSH1 0x0 PUSH2 0xF30 PUSH2 0xF41 JUMP JUMPDEST SWAP1 POP PUSH2 0xF3C DUP3 DUP3 PUSH2 0x1097 JUMP JUMPDEST SWAP2 SWAP1 POP JUMP JUMPDEST PUSH1 0x0 PUSH1 0x40 MLOAD SWAP1 POP SWAP1 JUMP JUMPDEST PUSH1 0x0 PUSH8 0xFFFFFFFFFFFFFFFF DUP3 GT ISZERO PUSH2 0xF66 JUMPI PUSH2 0xF65 PUSH2 0x119E JUMP JUMPDEST JUMPDEST PUSH2 0xF6F DUP3 PUSH2 0x11E1 JUMP JUMPDEST SWAP1 POP PUSH1 0x20 DUP2 ADD SWAP1 POP SWAP2 SWAP1 POP JUMP JUMPDEST PUSH1 0x0 DUP2 MLOAD SWAP1 POP SWAP2 SWAP1 POP JUMP JUMPDEST PUSH1 0x0 DUP3 DUP3 MSTORE PUSH1 0x20 DUP3 ADD SWAP1 POP SWAP3 SWAP2 POP POP JUMP JUMPDEST PUSH1 0x0 PUSH2 0xFA3 DUP3 PUSH2 0x1019 JUMP JUMPDEST SWAP2 POP PUSH2 0xFAE DUP4 PUSH2 0x1019 JUMP JUMPDEST SWAP3 POP DUP3 PUSH2 0xFBE JUMPI PUSH2 0xFBD PUSH2 0x1140 JUMP JUMPDEST JUMPDEST DUP3 DUP3 DIV SWAP1 POP SWAP3 SWAP2 POP POP JUMP JUMPDEST PUSH1 0x0 PUSH2 0xFD4 DUP3 PUSH2 0xFF9 JUMP JUMPDEST SWAP1 POP SWAP2 SWAP1 POP JUMP JUMPDEST PUSH1 0x0 PUSH2 0xFE6 DUP3 PUSH2 0xFF9 JUMP JUMPDEST SWAP1 POP SWAP2 SWAP1 POP JUMP JUMPDEST PUSH1 0x0 DUP2 ISZERO ISZERO SWAP1 POP SWAP2 SWAP1 POP JUMP JUMPDEST PUSH1 0x0 PUSH20 0xFFFFFFFFFFFFFFFFFFFFFFFFFFFFFFFFFFFFFFFF DUP3 AND SWAP1 POP SWAP2 SWAP1 POP JUMP JUMPDEST PUSH1 0x0 DUP2 SWAP1 POP SWAP2 SWAP1 POP JUMP JUMPDEST DUP3 DUP2 DUP4 CALLDATACOPY PUSH1 0x0 DUP4 DUP4 ADD MSTORE POP POP POP JUMP JUMPDEST PUSH1 0x0 JUMPDEST DUP4 DUP2 LT ISZERO PUSH2 0x1050 JUMPI DUP1 DUP3 ADD MLOAD DUP2 DUP5 ADD MSTORE PUSH1 0x20 DUP2 ADD SWAP1 POP PUSH2 0x1035 JUMP JUMPDEST DUP4 DUP2 GT ISZERO PUSH2 0x105F JUMPI PUSH1 0x0 DUP5 DUP5 ADD MSTORE JUMPDEST POP POP POP POP JUMP JUMPDEST PUSH1 0x0 PUSH1 0x2 DUP3 DIV SWAP1 POP PUSH1 0x1 DUP3 AND DUP1 PUSH2 0x107D JUMPI PUSH1 0x7F DUP3 AND SWAP2 POP JUMPDEST PUSH1 0x20 DUP3 LT DUP2 EQ ISZERO PUSH2 0x1091 JUMPI PUSH2 0x1090 PUSH2 0x116F JUMP JUMPDEST JUMPDEST POP SWAP2 SWAP1 POP JUMP JUMPDEST PUSH2 0x10A0 DUP3 PUSH2 0x11E1 JUMP JUMPDEST DUP2 ADD DUP2 DUP2 LT PUSH8 0xFFFFFFFFFFFFFFFF DUP3 GT OR ISZERO PUSH2 0x10BF JUMPI PUSH2 0x10BE PUSH2 0x119E JUMP JUMPDEST JUMPDEST DUP1 PUSH1 0x40 MSTORE POP POP POP JUMP JUMPDEST PUSH1 0x0 PUSH2 0x10D3 DUP3 PUSH2 0x1019 JUMP JUMPDEST SWAP2 POP PUSH32 0xFFFFFFFFFFFFFFFFFFFFFFFFFFFFFFFFFFFFFFFFFFFFFFFFFFFFFFFFFFFFFFFF DUP3 EQ ISZERO PUSH2 0x1106 JUMPI PUSH2 0x1105 PUSH2 0x1111 JUMP JUMPDEST JUMPDEST PUSH1 0x1 DUP3 ADD SWAP1 POP SWAP2 SWAP1 POP JUMP JUMPDEST PUSH32 0x4E487B7100000000000000000000000000000000000000000000000000000000 PUSH1 0x0 MSTORE PUSH1 0x11 PUSH1 0x4 MSTORE PUSH1 0x24 PUSH1 0x0 REVERT JUMPDEST PUSH32 0x4E487B7100000000000000000000000000000000000000000000000000000000 PUSH1 0x0 MSTORE PUSH1 0x12 PUSH1 0x4 MSTORE PUSH1 0x24 PUSH1 0x0 REVERT JUMPDEST PUSH32 0x4E487B7100000000000000000000000000000000000000000000000000000000 PUSH1 0x0 MSTORE PUSH1 0x22 PUSH1 0x4 MSTORE PUSH1 0x24 PUSH1 0x0 REVERT JUMPDEST PUSH32 0x4E487B7100000000000000000000000000000000000000000000000000000000 PUSH1 0x0 MSTORE PUSH1 0x41 PUSH1 0x4 MSTORE PUSH1 0x24 PUSH1 0x0 REVERT JUMPDEST PUSH1 0x0 DUP1 REVERT JUMPDEST PUSH1 0x0 DUP1 REVERT JUMPDEST PUSH1 0x0 DUP1 REVERT JUMPDEST PUSH1 0x0 DUP1 REVERT JUMPDEST PUSH1 0x0 PUSH1 0x1F NOT PUSH1 0x1F DUP4 ADD AND SWAP1 POP SWAP2 SWAP1 POP JUMP JUMPDEST PUSH2 0x11FB DUP2 PUSH2 0xFC9 JUMP JUMPDEST DUP2 EQ PUSH2 0x1206 JUMPI PUSH1 0x0 DUP1 REVERT JUMPDEST POP JUMP JUMPDEST PUSH2 0x1212 DUP2 PUSH2 0xFDB JUMP JUMPDEST DUP2 EQ PUSH2 0x121D JUMPI PUSH1 0x0 DUP1 REVERT JUMPDEST POP JUMP JUMPDEST PUSH2 0x1229 DUP2 PUSH2 0x1019 JUMP JUMPDEST DUP2 EQ PUSH2 0x1234 JUMPI PUSH1 0x0 DUP1 REVERT JUMPDEST POP JUMP INVALID LOG2 PUSH5 0x6970667358 0x22 SLT KECCAK256 0x21 0xB7 0xAC GASPRICE 0xC 0x2E 0x29 0xEC 0x1E LT 0xAC 0xD6 PUSH1 0xC9 0xCA 0xEE 0xCE 0xCF 0xCC 0xCD PUSH10 0xF2359782280C5F2E5181 0x24 PUSH5 0x736F6C6343 STOP ADDMOD SDIV STOP CALLER LOG2 PUSH5 0x6970667358 0x22 SLT KECCAK256 0xD3 0xB0 0x1E PUSH26 0xB3472852E82032F15B0613D4F813214EA673A374EB7A192B24E9 SWAP14 SWAP4 PUSH5 0x736F6C6343 STOP ADDMOD SDIV STOP CALLER "},"gasEstimates":{"creation":{"codeDepositCost":"2027600","executionCost":"2149","totalCost":"2029749"},"external":{"createCampaign(uint256,string,string,string)":"infinite","getCampaigns()":"infinite","updateCampaign(string,string,string,uint256)":"infinite"}},"methodIdentifiers":{"createCampaign(uint256,string,string,string)":"8ef03928","getCampaigns()":"a6b03633","updateCampaign(string,string,string,uint256)":"48bc4063"}},"storageLayout":{"storage":[{"astId":366,"contract":"Factory.sol:Factory","label":"deployedContracts","offset":0,"slot":"0","type":"t_array(t_contract(Campaign)359)dyn_storage"},{"astId":369,"contract":"Factory.sol:Factory","label":"titles","offset":0,"slot":"1","type":"t_array(t_string_storage)dyn_storage"},{"astId":372,"contract":"Factory.sol:Factory","label":"descriptions","offset":0,"slot":"2","type":"t_array(t_string_storage)dyn_storage"},{"astId":375,"contract":"Factory.sol:Factory","label":"images","offset":0,"slot":"3","type":"t_array(t_string_storage)dyn_storage"}],"types":{"t_array(t_contract(Campaign)359)dyn_storage":{"base":"t_contract(Campaign)359","encoding":"dynamic_array","label":"contract Campaign[]","numberOfBytes":"32"},"t_array(t_string_storage)dyn_storage":{"base":"t_string_storage","encoding":"dynamic_array","label":"string[]","numberOfBytes":"32"},"t_contract(Campaign)359":{"encoding":"inplace","label":"contract Campaign","numberOfBytes":"20"},"t_string_storage":{"encoding":"bytes","label":"string","numberOfBytes":"32"}}},"userdoc":{"kind":"user","methods":{},"version":1}}